:100000000C94653F0C94963F0C94963F0C94963F4D
:100010000C94963F0D9434060C94963F0C944D4DE1
:100020000C946A4D0C94963F0C94963F0C94963F1A
:100030000C9421540C94963F0C94C1DC0C94B28027
:100040000C94963F0C94FBE40C94963F0C94963FD2
:100050000C94963F0C94963F0C94963F0C94A04CB5
:100060000C94963F0C94EC580C94963F0C94963F4D
:100070000C94963F0C94B64F0C94963F0C94963F7C
:100080000C94963F0C94963F0C94963F0C94963F9C
:100090000C94A8580C94963F0C94963F0C94963F61
:1000A0000C94963F0C94963F0C9402630C94963FEC
:1000B0000C94963F0C94E4620C94963F0C9413E2DB
:1000C0000C94963F0C94963F0C94963F0C94A4622B
:1000D0000C94963F0C94963F0C94963F0C94963F4C
:1000E0000C94963F084AD73B3BCE016E84BCBFFDC3
:1000F000C12F3D6C74319ABD56833DDA3D00C77FF8
:1001000011BED9E4BB4C3E916BAAAABE0000008090
:100110003F05A84CCDB2D44EB93836A9020C50B91F
:10012000918688083CA6AAAA2ABE000000803F0744
:10013000634236B79BD8A71A39685618AEBAAB5582
:100140008C1D3CB7CC5763BD6DEDFD753EF6177247
:1001500031BF000000803F08000000BE9224491219
:100160003EABAAAA2ABECDCCCC4C3E00000080BE3D
:10017000ABAAAAAA3E00000000BF000000803F001A
:1001800000000000084178D3BB4387D1133D190E0E
:100190003CC3BD4282AD2B3E68EC8276BED98FE176
:1001A000A93E4C80EFFFBE01C4FF7F3F000000006E
:1001B00000000D94E72F0C9425D00D9442260D9449
:1001C00040550D94CD290D949E2F0D94A62A0C9484
:1001D00026C50D943B5C0D94BB3B0D94DE2F0D9416
:1001E00062200D9431200D948C1F0D942C370C94AB
:1001F00088F10D94B69A0C94A5400D945E200D9450
:1002000087040D94E81C0D94F0560D9435200C9441
:100210005ACA0C94E0D00C94F24C0D949C2A0D9484
:10022000B1590D94FF2E0D94F2200D9425A10C943C
:100230001DC60D9477410D9436370D94922A0D9476
:100240005F280D94BB590D9461260D94825B0C942C
:10025000114D0D9430270D94AA2A0C943ED00C9485
:1002600080F10D9442200C948DCF0D946D510D941E
:10027000FB1B0D947B450D94F2540C94BF4C0C94D5
:1002800042C40C9439CA0D94F5360D9486260D940B
:100290000D3B0D94EB260C94D8410C9428F10D9451
:1002A00073300D94C3410D943C200D94CF2F0D94C9
:1002B000F89A0D94F6530C94D94C0C9470F00C945D
:1002C0009BC30C944DC70C9488F00D94C6250C94D8
:1002D00050F10C9458F10D9418370C9470F10D9462
:1002E0005C410D94D82F0D9499040C94084D0D94F5
:1002F000D9590D9409370C9434C80C949FC50D94AA
:100300006C200D94CF410D945A200D945B300C94C9
:10031000F1C80D94B41F0D94B0360D94A3270C941E
:1003200068F10C94DFC40D948D2A0C945EC30D9477
:10033000ADA70C94BAF00D9465410C94A0CF0D9428
:10034000CD250D94F8020D948F300C94464D0D94EC
:10035000F42C0D9409550D9439450D94E8540D94E1
:10036000DB360C9460F10D94109B0D94CB260D940C
:10037000CD1D0C9448F10C943EC30D94E5280C94CB
:1003800043C80D94A3260D94BD360D9427200D94DB
:10039000AB2D0C9440F10D942CA10D94D61D0D9411
:1003A0002C260D94DC300D94CE460D94D8410C943F
:1003B0009B4C0D94D31D0D94FE3B0D94AC3A0D94C3
:1003C00039200C948AC40D948E2F0D94A12A0D947B
:1003D000B4410D940D5C0D9409A10D9456550C94E7
:1003E00078F10C9425F10D940D9B0D94D52F0C9460
:1003F000B7F00D94A0400D94D4250C944ECA0D94E2
:10040000E5470C9494D00D94104D0D94F6560D9430
:1004100002270D947E300D94832A0D9467300D943D
:1004200044270D9435A10D94BD410D949D9A0D94D2
:10043000DB1D0D94BF3D0D9490040D94A7540D94B5
:10044000C0410C9430F10D94139B0C9420F10D9449
:1004500055260C94344D0D94DE2A0D9470200D9485
:10046000D22F0D9454200D94FA4C0D94EF490D9415
:1004700090260D94A84D0D9470260C943DCA0D94B1
:10048000882A0D9467200C9489410D94DB410D94CA
:10049000C92D0D9422370D9422550D94EB360D94F1
:1004A0003C590D942D200D94E4410D94972A0D9400
:1004B000DF260D94D01D0D944C200D945B290C94D7
:1004C000EB4E0D9466550D94B8360D94D1360C94C0
:1004D000B0F00D944A370D943AA10D94885A0D94BA
:1004E0007A200D949C270D9428A10D94E3360D9449
:1004F000F13F0D94EDBC0C948D400D94F7200D94BC
:100500008D300D9435460D94B7260C9404C40C948C
:10051000E44C0D941E550C946AC30D94FF360D9453
:100520007A3D0D9499320C945DC50D94C3590D9488
:10053000BF590D94DB250D947F200D94C7360D9483
:1005400053450D945C510D9446200D9440370C9406
:1005500050CE0D9477540D943C2C0D94C22C0D94D8
:10056000DB2F0C94ADF00D94B3580D94762E0D94B2
:10057000B7580D947B260D944C580D9450200D9433
:10058000AF540C94E3CF0D9425290D94C6410D94DE
:1005900022260C941CCA0D94342B0C9444590D94AF
:1005A00036260D94F52E0D943A540D942A2F0D9461
:1005B000B73E0D94C3A00D9461300C94EBF00D94F4
:1005C00018550D94BF250D9455300C9438F10D94A9
:1005D00032270D94B7590D9468200D9465450C94FD
:1005E00016D00C941DF10D949D546E616E00696ED1
:1005F000660000407A10F35A00A0724E18090010ED
:10060000A5D4E80000E87648170000E40B54020087
:1006100000CA9A3B000000E1F505000080969800B2
:10062000000040420F000000A086010000001027DB
:1006300000000000E803000000006400000000006B
:100640000A00000000000100000000002C76D8889D
:10065000DC674F0823DFC1DFAE59E1B1B796E5E3B0
:10066000E453C63AE651997696E8E6C28426EB89C9
:100670008C9B62ED407C6FFCEFBC9C9F40F2BAA566
:100680006FA5F490055A2AF75C936B6CF9676DC1FE
:100690001BFCE0E40D47FEF520E6B500D0ED902E02
:1006A0000300943577050080841E080000204E0A60
:1006B000000000C80C333333330F986E128311419E
:1006C000EF8D2114893BE65516CFFEE6DB18D18469
:1006D0004B381BF77C1D901DA4BBE4242032847290
:1006E0005E228100C9F124ECA1E53D27555341521A
:1006F00054322072782046756C6C2121210053659C
:100700007474696E67732053746F72656400544D1E
:100710003A2073746F7265642063616C6962726100
:1007200074696F6E20696E76616C69642C207265E5
:1007300073657474696E670053746F7265642073B7
:10074000657474696E677320726574726965766525
:10075000640048617264636F646564204465666127
:10076000756C742053657474696E6773204C6F6187
:1007700064656400563200000000C8420000C842B0
:100780000000C84300008C43000048430000484379
:10079000000040410000F042E8030000E8030000D0
:1007A000C80000008813000000409C4400409C44A6
:1007B0000000000000000000204E0000000020416A
:1007C00000002041CDCCCC3E000090400000000055
:1007D0000000000000000000CDCCCC3E3D0A81416D
:1007E000FF08433EB099AB438F42FC42E65A343F88
:1007F0004C62B04500000000004040000034420060
:100800000000000000000000000041000000E03F88
:100810000000C8420000C842000040410000F04211
:10082000C0030000C0030000C800000088130000DF
:100830001010102000409C440000803F0000003F4A
:100840001914000000CDCCCC3D0AD7233C17B7D1FA
:100850003877CC2B329595E6241FB14F0A00002043
:10086000410000C84200401C4620BCBE4CCA1B0EC2
:100870005AAEC59D744E414E494E46627573793AE3
:100880002070617573656420666F7220696E707583
:100890007400627573793A207061757365642066BF
:1008A0006F72207573657200627573793A20707289
:1008B0006F63657373696E67000000524300004305
:1008C000430000434300000000000080C09A9919D3
:1008D0003E00000000000080C09A99193E0000A070
:1008E000400000A040000000402533642073746580
:1008F000703D253264206D73636E743D2534640A47
:100900000000005243000047439AD94243FFFFFFD3
:1009100020413A0020503A002042403A0020403A1C
:1009200000202F002054303A00202F0020423A00AF
:10093000202F00543A002553457863657373697618
:100940006520626564206C6576656C696E672063FE
:100950006F7272656374696F6E3A202569206D69E4
:1009600063726F6E730A00426564206C6576656C15
:10097000696E67206661696C65642E20546F6F2014
:100980006D75636820766172696174696F6E206647
:10099000726F6D20656570726F6D206D6573680094
:1009A000426564206C6576656C696E672066616976
:1009B0006C65642E2053656E736F72207472696764
:1009C000676572656420746F6F20736F6F6E0020AF
:1009D00020004D6561737572656420706F696E7477
:1009E000733A005A207365617263682068656967AD
:1009F00068743A20352E3066004E756D20582C599B
:100A00003A20372C37004D65736820626564206C8E
:100A10006576656C696E67206E6F742061637469BA
:100A200076652E0020453A00205A3A0020593A00B7
:100A300020453A00205A3A0020593A00583A0020FE
:100A40002D3E200053706F6F6C4A6F696E3A200024
:100A50002C20006673656E736F722076302E342002
:100A6000696E206661756C742072616E67652034F2
:100A70002E362D3556202D20756E636F6E6E656394
:100A8000746564006673656E736F7220696E2066AC
:100A90006F7262696464656E2072616E6765203191
:100AA0002E352D3356202D20636865636B207365CA
:100AB0006E736F7200496E61637469766974792030
:100AC00053687574646F776E004B494C4C45442EE7
:100AD000005072696E7465722068616C7465642E72
:100AE000206B696C6C28292063616C6C6564210043
:100AF0005A206C6976652061646A757374206F751D
:100B000074206F662072616E67652E205365747461
:100B1000696E6720746F20302E20436C69636B20F0
:100B2000746F20636F6E74696E75652E005A206C49
:100B30006976652061646A757374206F7574206FBF
:100B4000662072616E67652E2053657474696E67E6
:100B500020746F20300020453A3020423A00543A49
:100B6000004731205A252D2E33662046252D2E3361
:100B70006600496E76616C6964205420636F646519
:100B80002E004475706C696361746520542D636F29
:100B900064652069676E6F7265642E0041647661DA
:100BA0006E6365204B3D004B206F7574206F66208F
:100BB000616C6C6F7765642072616E676521004DB2
:100BC0004B3353004D4B33534D4D5533005E762E12
:100BD000012533642F2533640025336400200A2067
:100BE0000A200025534172632053657474696E674F
:100BF000733A20503A4D6178206C656E67746828AE
:100C00006D6D2920533A4D696E206C656E6774686E
:100C100020286D6D29204E3A436F727265637469A6
:100C20006F6E7320523A4D696E207365676D656E05
:100C3000747320463A5365676D656E74732F7365E0
:100C4000632E0A255320204D3231342050252E3278
:100C5000662053252E3266204E25642052256420BE
:100C60004625640A00255346696C616D656E7420E3
:100C700073657474696E67733A2044697361626C5A
:100C800065640A00255346696C616D656E74207356
:100C9000657474696E67733A0A25532020204D32BB
:100CA00030302044252E32660A0025535265747276
:100CB0006163743A20533D4C656E67746820286DFB
:100CC0006D2920463A537065656420286D6D2F6D3F
:100CD00029205A3A205A4C69667420286D6D290AD9
:100CE00025532020204D3230372053252E326620C8
:100CF00046252E3266205A252E32660A2553526525
:100D0000636F7665723A20533D4578747261206C4A
:100D1000656E67746820286D6D2920463A537065AA
:100D2000656420286D6D2F6D290A25532020204DE4
:100D30003230382053252E32662046252E32660A60
:100D400025534175746F2D526574726163743A2036
:100D5000533D3020746F2064697361626C652C2090
:100D60003120746F20696E746572707265742065CD
:100D70007874727564652D6F6E6C79206D6F766511
:100D800073206173207265747261637473206F7273
:100D9000207265636F7665726965730A255320203A
:100DA000204D323039205325640A002553504944E0
:100DB00020686561746265642073657474696E6728
:100DC000733A0A25532020204D3330342050252EED
:100DD00032662049252E32662044252E32660A00CE
:100DE00025535049442073657474696E67733A0AD9
:100DF00025532020204D3330312050252E326620BF
:100E000049252E32662044252E32660A002553538A
:100E1000746570732070657220756E69743A0A2566
:100E20005320204D39322058252E32662059252E48
:100E30003266205A252E32662045252E32660A2536
:100E4000535553746570207265736F6C7574696F58
:100E50006E3A200A2553204D333530205825642022
:100E6000592564205A2564204525640A25534D617F
:100E700078696D756D20666565647261746573204F
:100E80002D206E6F726D616C20286D6D2F73293A65
:100E90000A255320204D3230332058252E3266202B
:100EA00059252E3266205A252E32662045252E32AF
:100EB000660A25534D6178696D756D2066656564B8
:100EC0007261746573202D20737465616C74682081
:100ED000286D6D2F73293A0A255320204D32303367
:100EE0002058252E32662059252E3266205A252E6E
:100EF00032662045252E32660A25534D6178696D8C
:100F0000756D20616363656C65726174696F6E20D5
:100F10002D206E6F726D616C20286D6D2F733229DC
:100F20003A0A255320204D3230312058256C752047
:100F300059256C75205A256C752045256C750A2538
:100F4000534D6178696D756D20616363656C657281
:100F50006174696F6E202D20737465616C746820F4
:100F6000286D6D2F7332293A0A255320204D3230D7
:100F7000312058256C752059256C75205A256C75C3
:100F80002045256C750A2553416363656C65726164
:100F900074696F6E3A20503D7072696E742C2052E5
:100FA0003D726574726163742C20543D7472617675
:100FB000656C0A255320204D3230342050252E32C6
:100FC000662052252E32662054252E32660A25537D
:100FD000416476616E636564207661726961626CFA
:100FE00065733A20533D4D696E2066656564726194
:100FF000746520286D6D2F73292C20543D4D696E2A
:101000002074726176656C206665656472617465D2
:1010100020286D6D2F73292C20423D6D696E696DFE
:10102000756D207365676D656E742074696D6520DC
:10103000287573292C20583D6D6178696D756D2078
:101040005859206A65726B20286D6D2F73292C20EA
:10105000205A3D6D6178696D756D205A206A657200
:101060006B20286D6D2F73292C2020453D6D6178F4
:10107000696D756D2045206A65726B20286D6D2F36
:1010800073290A255320204D3230352053252E3226
:10109000662054252E32662042256C752058252E58
:1010A00032662059252E3266205A252E326620457A
:1010B000252E32660A2553486F6D65206F6666736C
:1010C000657420286D6D293A0A255320204D323051
:1010D000362058252E32662059252E3266205A2574
:1010E0002E32660A00544D3A20525B25755D20650C
:1010F0007374696D61742E00544D3A20255320524B
:101100002025644300544D3A202553204320657325
:10111000742E00544D3A20636F6F6C20646F776EAD
:10112000203C25644300726566696E6500696E69DE
:101130007469616C00544D3A2063616C6962722E6F
:10114000206661696C65642100544D3A2063616CCE
:101150006962726174696F6E207374617274005495
:101160004D3A2043616C2E204E4F542049444C454B
:10117000004361703A25533A25630A005052555393
:10118000415F4D4D553200455854454E4445445FEE
:101190004D3230004155544F5245504F52545F50DC
:1011A0004F534954494F4E004155544F5245504FAB
:1011B00052545F46414E53004155544F5245504F93
:1011C00052545F54454D50000044656C6574696F1E
:1011D0006E206661696C65642C2046696C653A20F6
:1011E0000046696C652064656C657465643A004E00
:1011F0006F74205344207072696E74696E6700507A
:1012000072696E7420736176656400534420707255
:10121000696E7420706175736564002533642F25D1
:101220003364004F4B004241440052414D426F2015
:1012300046414E20006676007468780050524E0099
:1012400043524153485F43414E43454C0043524152
:1012500053485F5245434F5645520043524153480D
:101260005F5245434F5645520022283229002553EC
:101270003A2025530A002C204D393037204520696B
:10128000676E6F726564006E6F2076616C696420B2
:10129000636F6D6D616E64007A65726F72697A65F5
:1012A0006400666163746F727920726573746F7223
:1012B000656400696E6465782C2074656D702C20FF
:1012C00075737465702C20756D0050494E44412033
:1012D00063616C207374617475733A2000503A0036
:1012E0005761697420666F722050494E44412074E2
:1012F00061726765742074656D7065726174757272
:10130000653A00204100205000204200204C00207F
:101310005200205A00204E4F5420494E4954494112
:101320004C495A45440053686565742000205A2092
:1013300056414C5545204F5554204F462052414E62
:10134000474500496E76616C696420736865657411
:101350002049442E20416C6C6F7765643A20302E12
:101360002E004155544F004C414E472053454C20D0
:10137000464F524345440020643A0020693A002019
:10138000703A0020643A0020693A0020703A002543
:101390006925250A00256925250A0022283129000A
:1013A0002F2F0030303030303030302D3030303072
:1013B0002D303030302D303030302D303030303036
:1013C000303030303030300020555549443A00201C
:1013D00045585452554445525F434F554E543A3147
:1013E000005072757361206933204D4B33530020D8
:1013F0004D414348494E455F545950453A00312EBE
:101400003000206261736564206F6E204D61726CE4
:10141000696E204649524D574152455F55524C3AEC
:1014200068747470733A2F2F6769746875622E63DD
:101430006F6D2F707275736133642F5072757361A5
:101440002D4669726D776172652050524F544F433B
:101450004F4C5F56455253494F4E3A004649524D04
:10146000574152455F4E414D453A50727573612D5B
:101470004669726D7761726520004D3131332053BA
:10148000006F6B20006E2F61003F546F73686962BC
:101490006120466C617368416972204765744950E8
:1014A000206661696C65640A00000125311D0C40ED
:1014B00024301C0B45232F1B0A17FF0406222B1A6E
:1014C00003363735382569206D696E2C2025692053
:1014D00073656300496E76616C6964204D20636FAB
:1014E00064653A2025730A0050494E4441207072C9
:1014F0006F62652063616C6962726174696F6E20EE
:101500007374617274004E6F2050494E44412074D0
:101510006865726D6973746F7200736574006E6FC5
:101520007A7A6C65004D424C004652004C7A004C71
:10153000616E6700315F37356D6D5F4D4B33532DF5
:1015400045494E53795F3130612D453344763666D7
:10155000756C6C0052657600332E31332E302D526F
:1015600043312D363835330046697200534E2069B9
:101570006E76616C696400534E00524553455400C9
:101580004D4D555245530075766C6F0046414E00E7
:1015900046414E50494E5453540050525553410009
:1015A0005345545F43484F505F005345545F535475
:1015B00045505F005345545F574156455F00544DB9
:1015C000435F0043524153485F43414E43454C0003
:1015D00043524153485F5245434F56455200435290
:1015E0004153485F444554454354454400435241A8
:1015F00053485F007B5B4552523A00332E31332E05
:10160000302D524331005D5B4657523A005D5B54CA
:10161000494D3A005D5B464E4D3A005D5B46454D97
:101620003A005D5B5043443A005B5446553A005BD8
:1016300050524E3A005B50464E3A305D005B444992
:10164000413A005D5B4154423A005D5B4154303A9F
:10165000005D5B5354423A005B5354303A007B5B6D
:1016600050524E3A355D007B5B50524E3A305D0031
:101670007B5B50524E3A395D007B5B50524E3A389C
:101680005D007B5B5245533A305D5B46494C3A0006
:101690007B5B5245533A315D5B46494C3A00000052
:1016A0002110422063308440A550C660E770088155
:1016B00029914AA16BB18CC1ADD1CEE1EFF13112CC
:1016C000100273325222B5529442F772D6623993A5
:1016D00018837BB35AA3BDD39CC3FFF3DEE362241C
:1016E000433420040114E664C774A44485546AA5F5
:1016F0004BB528850995EEE5CFF5ACC58DD55336AC
:10170000722611163006D776F6669556B4465BB744
:101710007AA719973887DFF7FEE79DD7BCC7C4487B
:10172000E5588668A7784008611802282338CCC994
:10173000EDD98EE9AFF9488969990AA92BB9F55A0B
:10174000D44AB77A966A711A500A333A122AFDDBE4
:10175000DCCBBFFB9EEB799B588B3BBB1AABA66CDB
:10176000877CE44CC55C222C033C600C411CAEED34
:101770008FFDECCDCDDD2AAD0BBD688D499D977EEB
:10178000B66ED55EF44E133E322E511E700E9FFF84
:10179000BEEFDDDFFCCF1BBF3AAF599F788F88913A
:1017A000A981CAB1EBA10CD12DC14EF16FE180101E
:1017B000A100C230E3200450254046706760B98321
:1017C0009893FBA3DAB33DC31CD37FE35EF3B1026E
:1017D0009012F322D2323542145277625672EAB531
:1017E000CBA5A89589856EF54FE52CD50DC5E234BE
:1017F000C324A01481046674476424540544DBA701
:10180000FAB79987B8975FE77EF71DC73CD7D3260D
:10181000F2369106B01657667676154634564CD990
:101820006DC90EF92FE9C899E9898AB9ABA944585D
:10183000654806782768C018E1088238A3287DCB60
:101840005CDB3FEB1EFBF98BD89BBBAB9ABB754AAD
:10185000545A376A167AF10AD01AB32A923A2EFDF0
:101860000FED6CDD4DCDAABD8BADE89DC98D267CFD
:10187000076C645C454CA23C832CE01CC10C1FEF40
:101880003EFF5DCF7CDF9BAFBABFD98FF89F176E4D
:10189000367E554E745E932EB23ED10EF01E7C3CC9
:1018A0003E3F2F2A225C002200002045535000209A
:1018B0004E535000204F464600204F4E00505630A9
:1018C0003100205B4D505D2000256920686F7572E6
:1018D00073202569206D696E7574657300525820F8
:1018E00074696D656F7574004D333130004D313161
:1018F00032004D3131300046756C6C205258204218
:10190000756666657200437573746F6D004E796C11
:101910006F6E504100536174696E202000546578E9
:1019200074757200536D6F6F746800486F74656EE4
:10193000642066616E207370656564206973206C35
:101940006F776572207468616E2065787065637466
:101950006564005072696E742066616E20737065F4
:101960006564206973206C6F776572207468616E9E
:1019700020657870656374656400312E3000312E07
:101980003500554E4B4E4F574E004C413130433A87
:10199000204C696E65617220416476616E636520DA
:1019A0006D6F64653A20004C413130433A20416408
:1019B0006A757374656420452D4A65726B3A200020
:1019C0003E0FA8AF00480069960000DF602555581B
:1019D00087680427F2E0005E3403CC1960F33C0E04
:1019E000F88F00DB08029492003E1C079A8700E5FE
:1019F00024008528527E06001BE4007E7812707851
:101A00007061F812788F884178427078706178251B
:101A100070787061F850788F88D1F025270787613A
:101A2000F025278F88412C0D27AA50D1BC070787A6
:101A30001161BE788F881141785270787061F852C8
:101A4000788F88412012788870632052788870637C
:101A5000485278888743031117997064181278F8F0
:101A600070654412F8F8F045184278F8706518254A
:101A700078F87065185278F87065185078F87065C5
:101A80000C078F872365A20F8F8F11450012062246
:101A90007069001207222749002506227069002577
:101AA0000722274900120622276C026236A2706CB8
:101AB00040456C44704C03622222706C43888888D5
:101AC000F04C7812BC88806E7852BC88806E3812D8
:101AD0007888706F78127888874F38427888706F6E
:101AE00038257888706F3A0079AC786F3D079AACEA
:101AF000786F7850788887EF39497888706F085206
:101B0000BC8880729852F88F985220127870F073C7
:101B100048127863875320527870F0734852786384
:101B200087531007870F24731278638724536069E3
:101B30009A988BE22304E4443074104E4443247496
:101B40007C12888960753C50888870557825288972
:101B500060757949088960753C12887070790C123B
:101B6000885222594412F124F07A4452F124F07A36
:101B70008C52F0368F5A4420F124F07A00401454ED
:101B8000256C752062797465732077726974746549
:101B90006E20746F20255320617420616464726527
:101BA00073732030782530346C780A004425642023
:101BB0002D20526561642F57726974652025530A80
:101BC0000020436F756E7420583A200045303A2546
:101BD000642052504D2050524E313A2564205250CC
:101BE0004D204530403A25752050524E31403A251F
:101BF000750A00526573656E640025533A20256CA2
:101C0000640A25530A005072696E746572207374F9
:101C10006F707065642064756520746F20657272E2
:101C20006F72732E205375706572766973696F6E6B
:101C30002072657175697265642E0064756D70201F
:101C4000636C65617265640A006E6F2064756D7007
:101C500020617661696C61626C650A0044323120F2
:101C60002D20726561642063726173682064756DF4
:101C7000700A006E6F2064756D7020617661696C0A
:101C800061626C650A0064756D7020636F6D706CC5
:101C90006574656420696E20256C756D730A005843
:101CA000464C41534800454550524F4D0053524118
:101CB0004D00442D31202D20456E646C65737320DA
:101CC0006C6F6F700A0041637469766520457874A3
:101CD00072756465723A203000496E76616C696491
:101CE000206578747275646572005344207072695F
:101CF0006E74696E672062797465200025750055E1
:101D00006E6B6E6F776E20636F6D6D616E643A20DF
:101D100022004D32303020496E76616C6964206556
:101D20007874727564657220007A5F6D61783A200C
:101D3000007A5F6D696E3A2000795F6D61783A20B4
:101D400000795F6D696E3A2000785F6D61783A20A6
:101D500000545249474745524544006F70656E0034
:101D6000785F6D696E3A20005265706F7274696EAB
:101D70006720656E6473746F70207374617475731B
:101D80000053494C454E54004E4F524D414C002596
:101D900053204D4F44453A2050657263656E742060
:101DA000646F6E653A20256868643B207072696EC6
:101DB000742074696D652072656D61696E696E6706
:101DC00020696E206D696E733A2025643B2043685C
:101DD000616E676520696E206D696E733A202564B7
:101DE0000A00456E642066696C65206C6973740036
:101DF000426567696E2066696C65206C6973740062
:101E0000556E6B6E6F776E20256320636F64653A45
:101E10002025730A000A50494E44412074656D70B4
:101E2000657261747572653A20252E3166205A20DC
:101E3000736869667420286D6D293A20252E3366F3
:101E4000000A537465703A2025642F360A000A533D
:101E50007465703A2025642F362028736B69707082
:101E60006564290A50494E44412074656D7065725D
:101E700061747572653A202564205A20736869661A
:101E80007420286D6D293A300A000A5A45524F3A9B
:101E900020252E33660A0073746172742074656D98
:101EA00070657261747572653A20252E31660A007C
:101EB00025642020252E326600255320583A2025FF
:101EC0002E356620593A20252E3566205A3A20258F
:101ED0002E35660A00536C6565702E2E2E00453037
:101EE0003A25642052504D0A50524E303A25642013
:101EF00052504D0A00656E717565696E672022004B
:101F0000446F6E65207072696E74696E67206669D1
:101F10006C65004D3131322063616C6C65642E203C
:101F2000456D657267656E63792053746F702E001E
:101F30004E6F204C696E65204E756D62657220771C
:101F400069746820636865636B73756D2C204C61E0
:101F50007374204C696E653A20004E6F20436865AB
:101F6000636B73756D2077697468206C696E65208A
:101F70006E756D6265722C204C617374204C696EB5
:101F8000653A2000636865636B73756D206D6973D6
:101F90006D617463682C204C617374204C696E65AC
:101FA0003A20004C696E65204E756D62657220693D
:101FB00073206E6F74204C617374204C696E6520C1
:101FC0004E756D6265722B312C204C617374204C00
:101FD000696E653A200043726173682064657465B8
:101FE000637465642E00536F6D652070726F626C50
:101FF000656D20656E636F756E74657265642C2007
:102000005A2D6C6576656C696E6720656E666F72B9
:10201000636564202E2E2E004D6573682062656412
:10202000206C6576656C696E67206661696C6564B5
:102030002E20506C656173652072756E205A206386
:10204000616C6962726174696F6E2E0048656174BB
:10205000696E672064697361626C656420627920CF
:102060007361666574792074696D65722E005354CE
:102070004F505045442E005041555345442054483C
:1020800045524D414C204552524F5200472D636FEF
:10209000646520736C6963656420666F72206120DB
:1020A000646966666572656E74206C6576656C2E13
:1020B00020506C656173652072652D736C69636572
:1020C00020746865206D6F64656C20616761696E5E
:1020D0002E205072696E742063616E63656C6C654E
:1020E000642E00472D636F646520736C69636564BB
:1020F00020666F72206120646966666572656E7421
:10210000206C6576656C2E20436F6E74696E756504
:102110003F00472D636F646520736C6963656420BD
:10212000666F722061206E65776572206669726DD8
:10213000776172652E20506C6561736520757064DF
:1021400061746520746865206669726D7761726577
:102150002E205072696E742063616E63656C6C65CD
:10216000642E00472D636F646520736C696365643A
:1021700020666F722061206E6577657220666972D5
:102180006D776172652E20436F6E74696E75653F61
:1021900000472D636F646520736C69636564206616
:1021A0006F72206120646966666572656E74207066
:1021B00072696E74657220747970652E20506C653A
:1021C0006173652072652D736C6963652074686541
:1021D000206D6F64656C20616761696E2E2050729E
:1021E000696E742063616E63656C6C65642E004774
:1021F0002D636F646520736C6963656420666F721C
:10220000206120646966666572656E74207072690B
:102210006E74657220747970652E20436F6E7469D8
:102220006E75653F00507265737320746865206B2E
:102230006E6F6220746F2070726568656174206EC5
:102240006F7A7A6C6520616E6420636F6E74696E5C
:1022500075652E00506C65617365207072657373CF
:1022600020746865206B6E6F6220746F20756E6CD1
:102270006F61642066696C616D656E7400616E6487
:1022800020707265737320746865206B6E6F6200D6
:10229000496E736572742066696C616D656E740059
:1022A000436F6C6F72206E6F7420636F7272656320
:1022B000740046696C616D656E74206E6F74206C7D
:1022C0006F61646564004368616E67656420636F75
:1022D00072726563746C793F004C6F6164696E67FC
:1022E00020636F6C6F72004368616E676520737561
:1022F00063636573732100506C65617365206F7053
:10230000656E2069646C657220616E642072656D13
:102310006F76652066696C616D656E74206D616EA7
:1023200075616C6C792E005761732066696C616D04
:10233000656E7420756E6C6F616420737563636580
:10234000737366756C3F00506C65617365207570C2
:1023500067726164652E004E6577206669726D77DD
:102360006172652076657273696F6E20617661694E
:102370006C61626C653A0057616974696E672066CA
:102380006F722050494E44412070726F6265206325
:102390006F6F6C696E6700506C6561736520776163
:1023A0006974004E6F206D6F76652E0057616974F9
:1023B00020666F7220757365722E2E2E0053746125
:1023C000626C6520616D6269656E742074656D7004
:1023D000657261747572652032312D323643206921
:1023E00073206E6565646564206120726967696445
:1023F000207374616E6420697320726571756972EF
:1024000065642E00506C656173652072756E20588E
:10241000595A2063616C6962726174696F6E2066DB
:10242000697273742E00556E6578706563746564A7
:10243000206572726F72206F636375727265642EAD
:10244000004D3630302046696C616D656E742043F6
:1024500068616E67652E204C6F61642061206E6537
:10246000772066696C616D656E74206F7220656A95
:1024700065637420746865206F6C64206F6E652ED0
:102480000052656D6F76652074686520656A6563C6
:102490007465642066696C616D656E742066726F28
:1024A0006D207468652066726F6E74206F6620748C
:1024B0006865204D4D552E0046696C616D656E74E2
:1024C00020646574656374656420756E65787065F5
:1024D000637465646C792E20456E73757265206E29
:1024E0006F2066696C616D656E74206973206C6F16
:1024F000616465642E20436865636B2074686520A1
:1025000073656E736F727320616E64207769726990
:102510006E672E00496E7465726E616C2072756E06
:1025200074696D65206572726F722E205472792005
:10253000726573657474696E6720746865204D4DAB
:1025400055206F72207570646174696E67207468BD
:1025500065206669726D776172652E004D4D55205C
:1025600046572076657273696F6E20697320696EB5
:10257000636F6D70617469626C652077697468203F
:102580007072696E7465722046572E55706461745E
:102590006520746F2076657273696F6E20332E30FC
:1025A0002E312E004D4D55204669726D7761726552
:1025B00020696E7465726E616C206572726F722C28
:1025C00020706C6561736520726573657420746832
:1025D00065204D4D552E00526571756573746564A7
:1025E0002066696C616D656E7420746F6F6C206914
:1025F00073206E6F7420617661696C61626C652016
:102600006F6E2074686973206861726477617265A7
:102610002E20436865636B2074686520472D636FC7
:10262000646520666F7220746F6F6C20696E6465DC
:1026300078206F7574206F662072616E6765202840
:1026400054302D5434292E0043616E6E6F74207007
:102650006572666F726D2074686520616374696F5E
:102660006E2C2066696C616D656E742069732061E3
:102670006C7265616479206C6F616465642E2055AD
:102680006E6C6F61642069742066697273742E00C9
:102690004D4D55206E6F7420726573706F6E646956
:1026A0006E6720636F72726563746C792E20436865
:1026B00065636B2074686520776972696E67206155
:1026C0006E6420636F6E6E6563746F72732E004D5F
:1026D0004D55206E6F7420726573706F6E64696EF5
:1026E000672E20436865636B207468652077697284
:1026F000696E6720616E6420636F6E6E6563746FD0
:1027000072732E004D6F72652064657461696C731D
:10271000206F6E6C696E652E005468652049646C8C
:1027200065722063616E6E6F7420686F6D652070D6
:10273000726F7065726C792E20436865636B2066DA
:102740006F7220616E797468696E6720626C6F6366
:102750006B696E6720697473206D6F76656D656E49
:10276000742E0043616E2774206D6F76652053656B
:102770006C6563746F72206F722049646C65722E91
:10278000005468652053656C6563746F72206361E3
:102790006E6E6F7420686F6D652070726F706572F9
:1027A0006C792E20436865636B20666F7220616EC2
:1027B000797468696E6720626C6F636B696E6720FD
:1027C000697473206D6F76656D656E742E004C6F45
:1027D0006164696E6720746F2065787472756465D2
:1027E00072206661696C65642E20496E7370656342
:1027F00074207468652066696C616D656E74207400
:1028000069702073686170652E20526566696E6517
:10281000207468652073656E736F722063616C69E4
:1028200062726174696F6E2C206966206E656564E2
:1028300065642E0053656C6563746F722063616E0E
:102840002774206D6F76652064756520746F20464F
:10285000494E444120646574656374696E67206104
:102860002066696C616D656E742E204D616B65200C
:1028700073757265206E6F2066696C616D656E742C
:1028800020697320696E2053656C6563746F7220D4
:10289000616E642046494E444120776F726B73200D
:1028A00070726F7065726C792E0046696C616D652F
:1028B0006E742073656E736F7220747269676765DA
:1028C00072656420746F6F206561726C792077681F
:1028D000696C65206C6F6164696E6720746F206538
:1028E000787472756465722E20436865636B20741A
:1028F000686572652069736E277420616E797468EB
:10290000696E6720737475636B20696E205054463E
:102910004520747562652E20436865636B2074687A
:1029200061742073656E736F7220726561647320C9
:1029300070726F7065726C792E0050756C6C657971
:10294000206D6F746F72207374616C6C65642E20DF
:10295000456E73757265207468652070756C6C6562
:10296000792063616E206D6F766520616E642063EF
:102970006865636B2074686520776972696E672E7D
:102980000046696C616D656E742073656E736F725D
:10299000206469646E277420737769746368206F9C
:1029A0006666207768696C6520756E6C6F61646916
:1029B0006E672066696C616D656E742E20456E735E
:1029C0007572652066696C616D656E742063616EF9
:1029D000206D6F766520616E642074686520736574
:1029E0006E736F7220776F726B732E0046696C6125
:1029F0006D656E742073656E736F72206469646EAA
:102A000027742074726967676572207768696C65DE
:102A1000206C6F6164696E67207468652066696CFC
:102A2000616D656E742E20456E73757265207468D5
:102A3000652073656E736F722069732063616C69C2
:102A400062726174656420616E64207468652066DA
:102A5000696C616D656E7420726561636865642080
:102A600069742E0046494E4441206469646E27749F
:102A700020737769746368206F6666207768696C75
:102A80006520756E6C6F6164696E672066696C6144
:102A90006D656E742E2054727920756E6C6F616452
:102AA000696E67206D616E75616C6C792E20456E64
:102AB000737572652066696C616D656E7420636103
:102AC0006E206D6F766520616E642046494E4441EC
:102AD00020776F726B732E0046494E444120646923
:102AE000646E2774207472696767657220776869FD
:102AF0006C65206C6F6164696E6720746865206620
:102B0000696C616D656E742E20456E7375726520FB
:102B10007468652066696C616D656E742063616EB2
:102B2000206D6F766520616E642046494E444120D9
:102B3000776F726B732E0044697361626C6500532A
:102B4000746F7000456A656374004C6F6164005572
:102B50006E6C6F61640052657365744D4D55005223
:102B60006574727900426564206C6576656C696E87
:102B700067206661696C65642E2053656E736F72A1
:102B8000206469646E277420747269676765722EA9
:102B900020446562726973206F6E206E6F7A7A6C62
:102BA000653F2057616974696E6720666F72207295
:102BB000657365742E0053656E7369746976697404
:102BC0007900446F6E65005265636F766572696E59
:102BD00067207072696E7400544845524D414C2014
:102BE000414E4F4D414C5900526573756D696E678A
:102BF000207072696E740050494E444120486561EE
:102C000074696E670043616C6962726174696F6EAA
:102C100020646F6E650043616C6962726174696EF5
:102C200067205A0042656420646F6E6500426564E7
:102C30002048656174696E670048656174696E67F4
:102C400020646F6E652E0048656174696E67004D83
:102C50004D5520706F776572206661696C73004D09
:102C60004D55206C6F6164206661696C73004D4D39
:102C700055206661696C73004D6174657269616CA1
:102C8000206368616E67657300546F74616C2066C1
:102C900061696C757265730043726173680046699F
:102CA0006C2E2072756E6F75747300506F7765723D
:102CB000206661696C75726573004C617374207075
:102CC00072696E74206661696C7572657300546F09
:102CD00074616C004C617374207072696E74004191
:102CE0006D6269656E7400566F6C74616765730020
:102CF00054656D7065726174757265730042656CC0
:102D000074207374617475730053656E736F7220F1
:102D1000696E666F00457874727564657220696EBD
:102D2000666F0058595A2063616C2E206465746187
:102D3000696C73005072696E74657220495020414D
:102D40006464723A00756E6B6E6F776E004D4D5510
:102D500020636F6E6E656374656400446174653AE8
:102D600000746F20756E6C6F61642066696C616DB4
:102D7000656E7400746F206C6F61642066696C61AD
:102D80006D656E7400507265737320746865206B96
:102D90006E6F620050726568656174696E67207459
:102DA0006F206375740050726568656174696E6741
:102DB00020746F20656A6563740050726568656190
:102DC00074696E6720746F20756E6C6F616400505B
:102DD000726568656174696E6720746F206C6F61DD
:102DE0006400436F6F6C646F776E0046696C616D51
:102DF000656E7420657874727564696E672026202C
:102E00007769746820636F727265637420636F6C96
:102E10006F723F004175746F6C6F6164696E6720FB
:102E200066696C616D656E74206973206163746995
:102E300076652C206A7573742070726573732074C4
:102E40006865206B6E6F6220616E6420696E7365C9
:102E500072742066696C616D656E742E2E2E005042
:102E600072696E742074696D650046696C616D6588
:102E70006E74207573656400546F74616C20707299
:102E8000696E742074696D6500546F74616C20669E
:102E9000696C616D656E740050726568656174205F
:102EA000746865206E6F7A7A6C6521004552524FC6
:102EB000523A005269676874004C65667400592084
:102EC00064697374616E63652066726F6D206D69ED
:102ED0006E0053657665726520736B657700536C81
:102EE0006967687420736B6577004D6561737572EF
:102EF000656420736B6577005B303B305D20706FDD
:102F0000696E74206F66667365740041646A7573D8
:102F100074696E67205A004D494E54454D50204209
:102F20004544206669786564004D494E54454D50CE
:102F300020484F54454E4420666978656400252E2C
:102F40003130532000253464003F4A5241202D2067
:102F5000776F726C64326D616368696E655F7570FE
:102F6000646174652829202823373034292E0A000B
:102F7000457872656D65207370616E206F66207490
:102F80006865205A2076616C756573210025642F71
:102F900039004D4D55323A002533640018010419AB
:102FA0000407D82A642AEC2981293A29AA28342836
:102FB000CE2781276327192763270427042704279F
:102FC00004270427042704270427042704270427A9
:102FD0000427042704270427042704270427042799
:102FE000042704270427CF2690264826D725A42582
:102FF0005C251425B82481244124262401010101E3
:103000000101010271017101323232030303030332
:103010000303030303030303030303030303939360
:1030200024380393030102560365006600670068B5
:103030000069006A006B006C00730074007D007E04
:1030400000C900D300DD00CA00D400DE002D013726
:103050000141012E01380142012F013901430130A4
:10306000013A01440131013B0145013201910192D4
:1030700001F501F601F701F801F901FA01FB01FC84
:103080000184035F2BC22B562B4F2B4A2B442BD989
:103090005C3F2B372B252E3230530A7072757361CB
:1030A0002E696F2F30342568750020557067726166
:1030B00064696E672078666C6173680A20446F20CB
:1030C0006E6F7420646973636F6E6E656374210044
:1030D000773235783230636C5F63666D0A00773221
:1030E00035783230636C5F656E7465720A00737494
:1030F0006172740A007265636F7665725F6D6163F9
:1031000068696E655F73746174655F61667465722A
:103110005F706F7765725F70616E69632C20696E96
:10312000697469616C200050525553412075766C6A
:103130006F004734205330004D32362053256C75D4
:10314000004D313036205325750047312046256427
:10315000004D3832004739322045252D2E33660088
:103160004D3230342050252D2E31662052252D2E03
:1031700031662054252D2E3166004731205A252DE9
:103180002E3366005052555341204D424C2056314B
:103190000047312058252D2E33662059252D2E33FA
:1031A0006620463330303000506F736974696F6E3B
:1031B00020726561642066726F6D20656570726F44
:1031C0006D3A002C20666565646D756C7469706C71
:1031D000793A0046656564726174653A004731204A
:1031E00045352046313230004D3130392053256489
:1031F000004D31343020532564004D31303420539C
:1032000025640047323820582059004731205A257C
:103210002E336620463830300024F4D43050C38E2C
:1032200020C2A24017828B7011127A910D816CD945
:103230000AA861E108C7586607615143061E4B5D45
:1032400005C145A7041A411104093D98037139319C
:10325000034036DB0265339102D4305402802E1DC8
:1032600002632CEE01752AC501B028A00110278148
:10327000018F2564012B244B01E0223401AC211F76
:10328000018D200D01801FFC00841EED00971DDFC5
:1032900000B81CD200E61BC600201BBC00641AB29A
:1032A00000B219A8000A19A0006A189900D1179154
:1032B0000040178B00B516840031167E00B31579D7
:1032C000003A157300C7146F0058146A00EE1366B5
:1032D000008813630025135E00C7125B006C125751
:1032E0000015125400C111510070114F0021114BF3
:1032F00000D61049008D10470046104400021042CD
:1033000000C00F4000800F3E00420F3C00060F3B04
:1033100000CB0E3800930E37005C0E3500270E34BC
:1033200000F30D3200C10D3100900D3000600D2E04
:1033300000320D2D00050D2C00D90C2B00AE0C29F0
:1033400000850C29005C0C2700350C27000E0C268C
:1033500000E80B2400C40B2400A00B23007D0B23EA
:10336000005A0B2100390B2100180B2000F80A1F0E
:1033700000D90A1E00BB0A1E009D0A1D00800A1DFE
:1033800000630A1C00470A1B002C0A1B00110A1AC2
:1033900000F7091A00DD091900C4091900AB091961
:1033A00000920917007B091800630917004C0916E1
:1033B0000036091600200916000A091500F508153F
:1033C00000E0081400CC081400B8081400A4081485
:1033D00000900813007D0812006B081300580812B3
:1033E00000460812003408110023081100120811C9
:1033F0000001081100F0071000E0071000D00710CE
:1034000000C0071000B0070F00A107100091070EC1
:103410000083070F0074070F0065070E0057070EA3
:103420000049070E003B070D002E070E0020070D78
:103430000013070D0006070D00F9060C00ED060D40
:1034400000E0060C00D4060C00C8060C00BC060CFC
:1034500000B0060C00A4060B0099060C008D060BAC
:103460000082060B0077060B006C060B0061060A53
:103470000057060B004C060A0042060A0038060AEE
:10348000002E060A0024060A001A060A0010060981
:103490000007060A00FD050900F4050900EB05090F
:1034A00000E2050900D9050900D0050900C7050992
:1034B00000BE050900B5050800AD050800A5050911
:1034C000009C050800940508008C05080084050888
:1034D000007C050800740508006C050700650508F8
:1034E000005D050700560508004E05070047050763
:1034F000004005080038050700310507002A0507C8
:1035000000230507001C050600160507000F050728
:10351000000805060002050700FB040600F5040785
:1035200000EE040600E8040600E2040700DB0406DF
:1035300000D5040600CF040600C9040600C3040633
:1035400000BD040600B7040600B1040500AC040683
:1035500000A6040600A00405009B040600950405CF
:1035600000900406008A0405008504050080040616
:10357000007A04050075040500700405006B04055D
:103580000066040500610405005C0405005704059D
:1035900000520405004D04050048040500430405DD
:1035A000003E0404003A040500350405003004041C
:1035B000002C04050027040400230405001E040455
:1035C000001A04040016040500110404000D04048C
:1035D00000090405000404040000040400FC0304C2
:1035E00000F8030400F4030400F0030400EC0304F7
:1035F00000E8030400E4030400E0030400DC030427
:1036000000D8030400D4030400D0030400CC030456
:1036100000C8030300C503030024F404D9201BC41D
:103620000C5C0E9804C4095F0265077101F405F98A
:1036300000FB04B30048048700C103690058035528
:103640000003034500BE023A008402310053022AFF
:10365000002902250004022000E4011C00C8011911
:1036600000AF0117009801140084011300710110CC
:10367000006101100051010E0043010D0036010BE5
:10368000002B010B0020010B00150109000C0109A2
:103690000003010800FB000800F3000800EB00072E
:1036A00000E4000600DE000600D8000600D2000696
:1036B00000CC000500C7000500C2000500BD0004E5
:1036C00000B9000400B5000400B1000400AD00041E
:1036D00000A9000400A5000300A20003009F00044D
:1036E000009B000300980003009500020093000374
:1036F00000900003008D0002008B00030088000290
:10370000008600020084000300810002007F0002A6
:10371000007D0002007B00020079000200770001BA
:1037200000760002007400020072000100710002C5
:10373000006F0002006D0001006C0002006A0001D1
:1037400000690002006700010066000100650001D9
:1037500000640002006200010061000100600001DD
:10376000005F0002005D0001005C0001005B0001E1
:10377000005A0001005900010058000100570001E3
:1037800000560001005500010054000100530000E4
:1037900000530001005200010051000100500001DF
:1037A000004F0001004E0000004E0001004D0001DE
:1037B000004C0001004B0000004B0001004A0001DA
:1037C00000490001004800000048000100470001D6
:1037D00000460000004600010045000000450001D1
:1037E00000440001004300000043000100420000CB
:1037F00000420001004100000041000100400001C2
:10380000003F0000003F0001003E0000003E0001BC
:10381000003D0000003D0001003C0000003C0000B5
:10382000003C0001003B0000003B0001003A0000AA
:10383000003A0001003900000039000100380000A2
:103840000038000000380001003700000037000198
:103850000036000000360000003600010035000090
:103860000035000000350001003400000034000085
:103870000034000100330000003300000033000179
:103880000032000000320000003200010031000070
:103890000031000000310001003000000030000065
:1038A00000300001002F0000002F0000002F00005A
:1038B000002F0001002E0000002E0000002E00014D
:1038C000002D0000002D0000002D0000002D000143
:1038D000002C0000002C0000002C0000002C000137
:1038E000002B0000002B0000002B0000002B00012B
:1038F000002A0000002A0000002A0000002A00011F
:103900000029000000290000002900000029000013
:103910000029000100280000002800000028000005
:1039200000280000002800010027000000270000F8
:1039300000270000002700000027000100260000EB
:1039400000260000002600000026000000260001DE
:1039500000250000002500000025000000250000D3
:1039600000250000002500010024000000240000C4
:1039700000240000002400000024000100230000B7
:1039800000230000002300000023000000230000AB
:10399000002300000023000100220000002200009C
:1039A000002200000022000000220000002200018E
:1039B0000021000000210000002100000021000083
:1039C0000021000000210000002100010020000073
:1039D0000020000000200000002000000020000067
:1039E000002000000020000000200001001F000057
:1039F000001F0000001F0000001F0000001F00004B
:103A0000001F0000001F0001001E0000001E00003B
:103A1000001E0000001E0000005049442041757443
:103A20006F74756E652066696E69736865642120C0
:103A300050757420746865206C617374204B702C11
:103A4000204B6920616E64204B6420636F6E737439
:103A5000616E74732066726F6D2061626F7665208F
:103A6000696E746F20436F6E666967757261746901
:103A70006F6E2E6800504944204175746F74756EE6
:103A800065206661696C6564212074696D656F7578
:103A9000740020403A00543A00423A005049442011
:103AA0004175746F74756E65206661696C6564211B
:103AB0002054656D706572617475726520746F6FE6
:103AC000206869676800204B643A2000204B693AFF
:103AD0002000204B703A200020436C6173736963AF
:103AE0002050494420002054753A2000204B753A5C
:103AF0002000206D61783A2000206D696E3A200028
:103B000020643A200020626961733A2000504944E1
:103B1000204175746F74756E6520737461727400E2
:103B2000504944204175746F74756E6520666169F3
:103B30006C65642E204261642065787472756465DA
:103B400072206E756D6265722E00544D4C20256496
:103B500020256420257820256C7820256C780A00A3
:103B60004D494E54454D50004D494E54454D502001
:103B7000424544004D494E54454D5020414D420070
:103B80004D415854454D50004D415854454D5020DD
:103B9000424544004D415854454D5020414D42004E
:103BA000544D3A206572726F7220636C6561726564
:103BB0006400544D3A206572726F722074726967A6
:103BC00067657265642100544D3A206572726F72A8
:103BD000207C25667C3E25660A0070012C01900140
:103BE0002701B0012201C0011D01F00118011002DE
:103BF000130130020E016002090190020401C002AB
:103C0000FF000003FA004003F5008003F000D0033A
:103C1000EB002004E6007004E100E004DC00400555
:103C2000D700C005D2004006CD00D006C8008007EE
:103C3000C3003008BE00F008B900C009B400B00AE3
:103C4000AF00B00BAA00D00CA500000EA000500FD2
:103C50009B00C01096005012910000148C00C015FB
:103C60008700B0178200B0197D00D01B7800001EBD
:103C7000730040206E0090226900F0246400402709
:103C80005F0090295A00E02B5500102E5000203084
:103C90004B0010324600E033410090353C001037B5
:103CA000370070383200A0392D00B03A2800A03B10
:103CB0002300603C1E00103D1900903D1400103E92
:103CC0000F00703E0A00C03E0500003F0000901348
:103CD0007D00B0157800F0177300601A6E00F01CBC
:103CE0006900A01F640050225F0020255A00E027D1
:103CF0005500902A5000202D4B00A02F4600F03197
:103D0000410010343C00F0353700A0373200203934
:103D10002D00603A2800703B2300603C1E00203DCF
:103D20001900C03D1400403E0F00A03E0A00F03EC6
:103D30000500403F0000703FFBFF903FF6FFB03FA3
:103D4000F1FFC03FECFFD03FE7FFE03FE2FFF03F75
:103D5000DDFFF03FD8FF20484F54454E44205448E3
:103D600045524D414C2052554E4157415900204833
:103D700045415442454420544845524D414C2052FF
:103D8000554E4157415900544845524D414C2052DF
:103D9000554E415741590042454420544845524DE3
:103DA000414C2052554E41574159002054484552EC
:103DB0004D414C2052554E415741592028505245B3
:103DC0004845415420484F54454E4429002054480A
:103DD00045524D414C2052554E4157415920285093
:103DE00052454845415420484541544245442900E4
:103DF00050524548454154204552524F5200424589
:103E0000442050524548454154204552524F52009B
:103E10002074726967676572656421004865617422
:103E2000657273207377697463686564206F666672
:103E30002E20003A20004572723A200000FF010255
:103E4000010002FFFFFE0001FE01FF00506C6561F2
:103E50007365207265737461727400544D3A206901
:103E60006E76616C696420706172616D65746572F3
:103E7000732C2063616E6E6F7420656E61626C6579
:103E800000255320204D3331302050252E3266201E
:103E900055252E34662056252E32662043252E3297
:103EA000662044252E3466204C2575205325752028
:103EB0004225752045252E32662057252E32662054
:103EC00054252E32660A00255320204D33313020F0
:103ED0004925752052252E32660A00546865726D98
:103EE000616C204D6F64656C2073657474696E67D6
:103EF000733A000000A441333393419A99854133CA
:103F00003373419A996141CDCC544133334B419A3B
:103F100099414133333B41CDCC344100003041CD58
:103F2000CC2C419A99294166662641333323419A24
:103F3000992141452D6D6F746F72206375727265A2
:103F40006E74207363616C696E6720656E61626C6C
:103F5000656400746D63323133305F686F6D655F27
:103F6000656E74657228617865735F6D61736B3D12
:103F7000307825303278290A00746D63323133305D
:103F80005F686F6D655F6578697420746D63323149
:103F900033305F73675F686F6D696E675F61786507
:103FA000735F6D61736B3D3078253032780A007233
:103FB0006573756C742076616C75653A2025640AAA
:103FC0000020693D25326420636E743D25326420F3
:103FD00076616C3D2532640A00636C75737465729A
:103FE000733A0020693D25326420737465703D2565
:103FF00032640A00736F727465642073616D706C53
:1040000065733A003A2000252D31322E3132532586
:104010002D642F36002533642F252D336400203A7C
:10402000200025335300252D377300252D31352EE3
:10403000313553252D35640A252D31352E31355333
:10404000252D35640A0025530A20252D31362E31C1
:104050003653252D33640A20252D31362E31365323
:10406000252D33640025530A20252D31362E313677
:1040700053252D33640A20252D31362E3136532514
:104080002D33640A20252D31362E313653252D331C
:10409000640025530A20252D31362E313653252D27
:1040A00033640A20252D31362E313653252D3364C5
:1040B0000A20252D372E37535820252D33642020F4
:1040C0005920252D33640020257325336481200A6F
:1040D000000A204952203A20202020202020253389
:1040E0002E31665600205057523A202020202020A2
:1040F00025342E3166560A204245443A202020209D
:10410000202025342E3166560025530A20582025BC
:10411000640A20592025640025752E25752E2575E5
:104120002E25750020002000466C6173684169727D
:1041300020495020416464723A004D4D55202020A2
:1041400020202020204E2F410025642E25642E257E
:1041500064002046573A0046696C2E2073656E73E2
:104160006F7220762E3A004E6F7620323420323035
:10417000323300453344763666756C6C0045494EE3
:1041800053795F31306100315F37356D6D5F4D4B75
:1041900033530020486173683A3000205265706FD5
:1041A0003A507275736133640020332E31332E30F0
:1041B0002D5243312D36383533004669726D7761A3
:1041C00072653A00464C4558202D20203234302F5D
:1041D000353000464C4558202D20203234300050D8
:1041E000502020202D20203235342F313030005007
:1041F000502020202D2020323534004849505320B3
:104200002D20203232302F31303000484950532099
:104210002D20203232300041425320202D202032E8
:1042200035352F3130300041425320202D202032AF
:1042300035350050412020202D20203237352F39B0
:10424000300050412020202D20203237350050569C
:104250004220202D20203231352F37350050564254
:1042600020202D20203231350050432020202D20C9
:10427000203237352F3131300050432020202D207F
:10428000203237350041534120202D202032363056
:104290002F3130350041534120202D20203236303F
:1042A0000050455420202D20203233302F38350047
:1042B00050455420202D202032333000504C4120D6
:1042C000202D20203231352F363000504C41202017
:1042D0002D2020323135006E6F7A7A6C65202D20CA
:1042E000203235302F30006661726D2020202D2065
:1042F000203235302F383000252D31322E313253D7
:10430000252B382E31660045787472756465723AD3
:104310000025632531372E32666D6D00583A0059FD
:104320003A005A3A002563252D31332E3133532577
:104330002B352E336600312F3900880020746F6FC3
:10434000206C6F6E6720657874727573696F6E206C
:1043500070726576656E7465640020636F6C6420AE
:10436000657874727573696F6E2070726576656EAC
:10437000746564004D6F76652061626F7274656468
:1043800000504F5745522050414E49432044455418
:1043900045435445440055564C4F202D20656E64CE
:1043A0002025640A0055564C4F5F54494E59202D24
:1043B00020656E642025640A00776F726C64206348
:1043C0006F6F7264696E617465733A2028252E33AD
:1043D000662C20252E33662C20252E3366290A00D4
:1043E0004D3232302053256400446F6E6520726573
:1043F0006164696E6720454550524F4D0A0054650F
:104400006D706572617475726520526573746F7238
:1044100065640A0047312045252D2E33662046323B
:1044200037303000544D4320445249564552204FB6
:1044300056455254454D5000486F6C642063757268
:1044400072656E74207472756E6361746564207435
:104450006F2052756E2063757272656E74002563ED
:104460002533642F256481005A25362E3266256354
:10447000005A2020202D2D2D20008625336425254F
:10448000002D2D2D2525002533642525002053449E
:10449000002020200020484F002046524D20008759
:1044A0002D2D3A2D2D20200087253375682025637A
:1044B00025630087253032753A253032752563250E
:1044C00063002F2F20616374696F6E3A706175739A
:1044D0006564002F2F20616374696F6E3A70617597
:1044E00073650044756D70206D656D6F727900683D
:1044F000656C702E707275736133642E636F6D001E
:10450000666F72756D2E707275736133642E636F92
:104510006D00707275736133642E636F6D004D377B
:1045200030310025533A0A2531382E32666D200A83
:1045300025533A0A2531306C646820253032646D89
:104540002025303264730025533A0A2531382E3243
:10455000666D200A25533A0A2531306C64642025A3
:104560003032646820253032646D0025362E326684
:104570006D6D0025530A25530A25533A0A25533AEF
:104580000025332E32668100252D31342E313453EF
:104590003A0A25530A252D31342E3134533A253326
:1045A0002E3266810A252D31342E3134533A25338B
:1045B0002E32668100473120583130205931383051
:1045C000204634303030004731205A3130204631D7
:1045D000333030004D313430205330004D313034E1
:1045E00020533000473120452D302E3037352046BE
:1045F00032313030004731204634303030004D32D7
:104600003034205331303030004731205A35204685
:104610003732303000473120452D312E352046329B
:10462000313030004739300047312058352045348B
:10463000204631303030004731205A302E3220466B
:104640003130303000473120583535204532352063
:10465000463134303000473120592D322046313038
:104660003030004731205832343020453235202058
:104670004632323030004731205A302E3320463116
:10468000303030004731205835352045382046320B
:1046900030303000473120583520453239204631FE
:1046A00038303000473120583535204532392046E2
:1046B0003130373300473932204530004732380037
:1046C0004D313039004D313930001000C902100130
:1046D0002C014001220170011801B0010E01F0010E
:1046E00004015002FA00B002F0003003E600D003EB
:1046F000DC009004D2007005C800A006BE000008CF
:10470000B400B009AA00D00BA000600E96006011A2
:104710008C000015820020197800C01D6E00A022B8
:104720006400B0275A00902C500000314600E0345D
:104730003C0010383200903A2800603C1E00A03D3A
:104740001400803E0A00203F0000253375005049C8
:104750004E44412063616C6962726174696F6E20BE
:104760006661696C65642E20436F6E74696E756551
:104770002077697468207072657373696E6720743E
:104780006865206B6E6F622E0050494E4441206375
:10479000616C6962726174696F6E20646F6E652E00
:1047A00020436F6E74696E75652077697468207038
:1047B00072657373696E6720746865206B6E6F62D3
:1047C0002E00473830004D3435004D3435205A0026
:1047D000473736004D3730312050300057697A6105
:1047E00072642073746174653A2025640A00457808
:1047F000706572696D656E74616C004673656E7389
:104800006F7220446574656374696F6E00302E3872
:104810003000302E363000302E343000302E32351D
:104820000044697361626C65206661726D206D6F12
:104830006465005265736574204D4D55004D4D55AE
:10484000004D3434004739390044697361626C6546
:10485000206661726D206D6F64653F004D203834B5
:1048600000852E2E00593A202575202D3E202E2E13
:104870002E00583A202575202D3E202E2E2E004643
:10488000696C616D656E742073656E736F72206202
:104890006F617264206368616E676520646574652A
:1048A000637465643A207265766973696F6E255327
:1048B0000A004D656173757265642066696C616D8F
:1048C000656E742073656E736F72206C6F77206CE9
:1048D0006576656C3A2025342E3266560A004D65A1
:1048E0006173757265642066696C616D656E7420B4
:1048F00073656E736F722068696768206C65766592
:104900006C3A2025342E3266560A002533642F3047
:10491000002533642F30002563204158495320532C
:1049200047313D25640A00486F74656E6400426536
:1049300064005A00590058002D2D2D2D2D2D2D2DA0
:104940002D2D2D2D2D2D2D2D2D2D2D2D00435A505E
:1049500058496E76616C696453657269616C4E7218
:10496000001C4EE445DC45D445C745B545473120DC
:10497000582564205925642045252D2E356600478D
:1049800031204631303830004731205A252D2E3322
:1049900066204637323030004731205835302059B4
:1049A00031353500B5462446774F15460946FE4554
:1049B000F5454731205825642045252D2E336620A6
:1049C000463130303000A446944684467646B5469B
:1049D00063465646454637462846542564004731C7
:1049E000205A302E342046313030300047312059A3
:1049F0002D33204631303030001C4EC546C046BCF9
:104A000046B5464D3834205859004D313039205381
:104A10003238300047312058313235205A32303068
:104A2000204631303030004D333130204120463186
:104A300000473120583132352059313035205A3134
:104A400020463830303000496E76616C6964205001
:104A500049442063616C2E20726573756C74732EEB
:104A6000204E6F742073746F72656420746F2045DC
:104A70004550524F4D2E004D3330312050252E32AF
:104A8000662049252E32662044252E3266004D339D
:104A900030332045302053253375004D39313400F3
:104AA0004D3931350052430044455600424554418A
:104AB00000414C5048410000002100240027002AFA
:104AC000002D003000330001010000040107010A3D
:104AD0000100002200250028002B002E00310034A8
:104AE0000002010000050108010B01000020002365
:104AF00000260029002C002F0032000001000003D6
:104B00000106010901050505050705080808080251
:104B10000202020A0A080804040404010101010156
:104B20000101010303030303030303040707070C45
:104B30000C0C0C0C0C0C0C020202020606060606FB
:104B40000606060B0B0B0B0B0B0B0B07070A0A0ACF
:104B50000A0A0A05050504040408080102102020B9
:104B600008081020401020408002010201080402C1
:104B70000101020408102040808040201008040237
:104B80000180040201804020100804020108040290
:104B90000101020408102040800102040810204096
:104BA0008010080408801020400440801020400439
:104BB0008000000A0B02090C0D0E08070304010017
:104BC00000000000000000000000000000000000E5
:104BD00000000000000000000000000000121110A2
:104BE00000000000000000000000000000000000C5
:104BF00000000000000000000000000000000000B5
:104C000000000000000000332E31332E302D5243BF
:104C100031000A204F726967696E616C20507275AD
:104C200073612069330A202020507275736120520D
:104C3000657365617263680A2532302E3230530025
:104C4000435A5058003B530053706F6F6C4A6F6962
:104C50006E20697320006164635F696E697400206F
:104C60000A200A200A2000416C6C20446174610013
:104C70005365727669636520707265700053686968
:104C80007070696E6720707265700053746174692A
:104C90007374696373004C616E6775616765004585
:104CA000524153494E4720616C6C2064617461002D
:104CB000466163746F7279205245534554005052D7
:104CC0005553413344465700494E54340003000DB8
:104CD000000000210003000200000004004E4F43CA
:104CE00054554100414C5446414E00286E6F6E654C
:104CF0002C2064656661756C7420636F6E666967ED
:104D000029004E6F76203234203230323320313752
:104D10003A34383A32340020332E31332E302D528B
:104D200043312D3638353300737461727400534E3D
:104D300020757064617465206661696C65640053F8
:104D40004E207570646174656400435A5058004386
:104D5000524153485F4445544543544544585900D3
:104D600043524153485F44455445435445445900D8
:104D700043524153485F44455445435445445800C9
:104D80004D323900252D392E39535B0047312058DB
:104D900025642059252D2E32662045252D2E33667B
:104DA00000544D20657374696D6174696F6E206481
:104DB0006964206E6F7420636F6E7665726765003C
:104DC000544D20697465723A257520763A252E3245
:104DD0006620653A252E33660A0057726974696E3B
:104DE0006720746F2066696C653A200046696C65BF
:104DF00020616C7265616479206F70656E65640016
:104E000033332942000058419A998D41333353403E
:104E1000200A200A20004D4D55323A004D313037DE
:104E200000202030002020310046494E44410050EF
:104E3000494E44410057697A61726420656E64206E
:104E400073746174653A2025640A0053706F6F6C47
:104E50004A6F696E004669726D77617265004842FB
:104E60006564206F6E206C6F616400466C617368CE
:104E700041697200546865726D616C204D6F6465A4
:104E80006C2063616C2E004572723A5052494E5448
:104E90002046414E204552524F52004572723A48C8
:104EA0004F54454E442046414E204552524F5200E9
:104EB0002F2F20616374696F6E3A726573756D652B
:104EC00064002F2F20616374696F6E3A7265737589
:104ED0006D65002F2F20616374696F6E3A63616E98
:104EE00063656C0041786973206C656E6774682037
:104EF000646966666572656E63653A252E33660A77
:104F0000004D656173757265642061786973206C0A
:104F1000656E6774683A252E33660A004F4B004C65
:104F2000434420737461747573206368616E6765B0
:104F30006400534420636172642072656C65617320
:104F400065640046616B652073657269616C206EF3
:104F5000756D62657200452D636F6F6C206D6F64B7
:104F60006500414C5446414E206465742E004D3816
:104F700034004D373032004D383300473238205737
:104F8000004D3530300045787465726E616C205389
:104F9000504920666C6173680A58464C415348205A
:104FA0006973206E6F74207265732D0A706F6E6462
:104FB000696E672E204C616E67756167650A73774D
:104FC0006974636820756E617661696C61626C6595
:104FD0002E0058464C415348206E6F742072657302
:104FE000706F6E64696E672E00465720637261733E
:104FF000682064657465637465642120596F752049
:1050000063616E20636F6E74696E7565207072697E
:105010006E74696E672E20446562756720646174E2
:105020006120617661696C61626C6520666F7220D7
:10503000616E616C797369732E20436F6E74616366
:105040007420737570706F727420746F2073756242
:105050006D69742064657461696C732E002F2F2054
:10506000616374696F6E3A64756D705F61766169D2
:105070006C61626C6500437261736844657465635A
:105080007420454E41424C4544210043726173688F
:105090004465746563742044495341424C4544005F
:1050A000486F74656E642066616E20747970653A2D
:1050B00020002020506C616E6E65724275666665D8
:1050C0007242797465733A20002046726565204DFE
:1050D000656D6F72793A2000207C20417574686F8D
:1050E000723A2000204C61737420557064617465BD
:1050F000643A200020536F667477617265205265B0
:1051000073657400205761746368646F672052652B
:10511000736574002042726F776E206F7574205231
:1051200065736574002045787465726E616C2052F9
:105130006573657400506F776572557000657272A3
:105140006F722077726974696E6720746F20666968
:105150006C6500446F6E6520736176696E672066CA
:10516000696C652E006F6B00526561722073696413
:1051700065205BE46D5D0046726F6E742073696438
:10518000655BE46D5D0052696768742073696465EE
:105190005BE46D5D004C6566742073696465205B3B
:1051A000E46D5D005365742074656D7065726174A3
:1051B0007572653A0050494E44412063616C6962E2
:1051C000726174696F6E206661696C656400504934
:1051D0004E44412063616C6962726174696F6E2034
:1051E00069732066696E697368656420616E642006
:1051F0006163746976652E2049742063616E206254
:10520000652064697361626C656420696E206D65F8
:105210006E752053657474696E67732D3E50494EE8
:1052200044412063616C2E00457874727564657228
:10523000004D6F7665205A004D6F76652059004D00
:105240006F766520580043726173682064657465E9
:105250006374696F6E2063616E0A62652074757293
:105260006E6564206F6E206F6E6C7920696E0A4ED9
:105270006F726D616C206D6F6465005741524E49CD
:105280004E473A0A437261736820646574656374BB
:10529000696F6E0A64697361626C656420696E0A85
:1052A000537465616C7468206D6F6465004D6F6444
:1052B00065206368616E676520696E2070726F6734
:1052C000726573732E2E2E00536865657420252E2B
:1052D00037730A5A206F66667365743A20252B313E
:1052E0002E33666D6D0A2563436F6E74696E756546
:1052F0000A2563526573657400506C65617365209F
:105300006C6F61642066696C616D656E742066699E
:105310007273742E003E43616E63656C0052756E4D
:105320006E696E672057697A6172642077696C6C68
:105330002064656C6574652063757272656E742097
:1053400063616C6962726174696F6E2072657375F6
:105350006C747320616E6420737461727420667261
:105360006F6D2074686520626567696E6E696E672F
:105370002E20436F6E74696E75653F0050726568CC
:10538000656174696E67206E6F7A7A6C652E205045
:105390006C6561736520776169742E00506C65617E
:1053A000736520696E736572742066696C616D65E2
:1053B0006E7420696E746F207468652065787472ED
:1053C000756465722C207468656E207072657373E5
:1053D00020746865206B6E6F6220746F206C6F6143
:1053E000642069742E00506C6561736520696E736A
:1053F0006572742066696C616D656E7420696E7487
:105400006F207468652066697273742074756265B4
:10541000206F6620746865204D4D552C207468659A
:105420006E20707265737320746865206B6E6F6296
:1054300020746F206C6F61642069742E005468655D
:10544000207072696E7465722077696C6C20737459
:10545000617274207072696E74696E672061207A5F
:1054600069672D7A6167206C696E652E20526F74B2
:1054700061746520746865206B6E6F6220756E7450
:10548000696C20796F752072656163682074686546
:10549000206F7074696D616C206865696768742E2F
:1054A00020436865636B2074686520706963747558
:1054B00072657320696E207468652068616E64622D
:1054C0006F6F6B202843616C6962726174696F6EE3
:1054D0002063686170746572292E0053656C656382
:1054E000742074656D70657261747572652077687B
:1054F000696368206D61746368657320796F757284
:10550000206D6174657269616C2E0053656C656312
:105510007420612066696C616D656E7420666F72BF
:1055200020746865204669727374204C61796572D5
:105530002043616C6962726174696F6E20616E6490
:105540002073656C65637420697420696E207468CB
:1055500065206F6E2D73637265656E206D656E7567
:105560002E004E6F7720492077696C6C2063616C48
:105570006962726174652064697374616E63652029
:105580006265747765656E20746970206F6620743B
:105590006865206E6F7A7A6C6520616E642068653C
:1055A000617462656420737572666163652E005074
:1055B0006C6561736520636865636B206F7572202D
:1055C00068616E64626F6F6B20616E6420666978DB
:1055D000207468652070726F626C656D2E2054684F
:1055E000656E20726573756D6520746865205769F6
:1055F0007A617264206279207265626F6F74696E7D
:105600006720746865207072696E7465722E00413F
:105610006C6C20697320646F6E652E204861707019
:1056200079207072696E74696E672100596F7520F8
:1056300063616E20616C7761797320726573756D3B
:1056400065207468652057697A6172642066726F9C
:105650006D2043616C6962726174696F6E202D3ECA
:105660002057697A6172642E00496620796F75202F
:1056700068617665206164646974696F6E616C202D
:10568000737465656C207368656574732C20636141
:105690006C696272617465207468656972207072E9
:1056A000657365747320696E2053657474696E67E1
:1056B00073202D204857205365747570202D20537A
:1056C0007465656C207368656574732E00506C6535
:1056D00061736520636C65616E20686561746265E5
:1056E0006420616E64207468656E207072657373E7
:1056F00020746865206B6E6F622E00446F20796F96
:10570000752077616E7420746F20726570656174A6
:10571000206C617374207374657020746F207265DF
:1057200061646A7573742064697374616E63652063
:105730006265747765656E206E6F7A7A6C6520613C
:105740006E6420686561746265643F0053656C65D2
:105750006374206E6F7A7A6C65207072656865611B
:10576000742074656D7065726174757265207768F8
:10577000696368206D61746368657320796F757201
:10578000206D6174657269616C2E004973206669D1
:105790006C616D656E74206C6F616465643F00546C
:1057A0006865726D616C206D6F64656C2063616CFF
:1057B0002E2074616B657320617070726F782E207B
:1057C0003132206D696E732E205365650A707275D3
:1057D00073612E696F2F746D2D63616C004E6F774E
:1057E00020492077696C6C2070726568656174204F
:1057F0006E6F7A7A6C6520666F7220504C412E0075
:10580000492077696C6C2072756E207A2063616C18
:105810006962726174696F6E206E6F772E004E6FD1
:10582000772072656D6F7665207468652074657386
:1058300074207072696E742066726F6D2073746567
:10584000656C2073686565742E00506C65617365C6
:105850002072656D6F7665207368697070696E6718
:105860002068656C706572732066697273742E00AF
:10587000492077696C6C2072756E2078797A206384
:10588000616C6962726174696F6E206E6F772E2031
:1058900049742077696C6C2074616B652075702089
:1058A000746F203234206D696E732E0046697273F6
:1058B000742C20492077696C6C2072756E20746896
:1058C000652073656C667465737420746F206368FB
:1058D00065636B206D6F737420636F6D6D6F6E20E9
:1058E000617373656D626C792070726F626C656D47
:1058F000732E0048692C204920616D20796F7572E4
:10590000204F726967696E616C20507275736120F7
:105910006933207072696E7465722E20576F756CD2
:105920006420796F75206C696B65206D6520746FDC
:1059300020677569646520796F75207468726F756A
:105940006768207468652073657475702070726F65
:10595000636573733F0048692C204920616D20798D
:105960006F7572204F726967696E616C2050727535
:105970007361206933207072696E7465722E2049DC
:105980002077696C6C20677569646520796F752074
:105990007468726F75676820612073686F72742015
:1059A00073657475702070726F636573732C2069F2
:1059B0006E20776869636820746865205A2D617865
:1059C00069732077696C6C2062652063616C696221
:1059D00072617465642E205468656E2C20796F7531
:1059E0002077696C6C20626520726561647920742F
:1059F0006F207072696E742E00452D636F72726530
:105A00006374005A2D636F727265637400592D635D
:105A10006F727265637400582D636F727265637480
:105A200000506175736500436F6E742E00465320FD
:105A3000416374696F6E00462E206175746F6C6FE0
:105A4000616400462E2072756E6F7574004D4D5561
:105A5000204D6F6465004375747465720046616E15
:105A6000207370656564004265640046616E732052
:105A7000636865636B004D6F64656C005374726995
:105A80006374005761726E004E6F7A7A6C650043E2
:105A90006865636B73004E6F7A7A6C6520642E00C4
:105AA0004E6F6E6500416C70686162657400546988
:105AB0006D6500536F72740053442063617264001B
:105AC00052506920706F7274004C696E2E20636FA3
:105AD0007272656374696F6E004E6F7A7A6C6520BE
