:100000000C94193B0C944A3B0C944A3B0C944A3B8D
:100010000C944A3B0D94C9360C944A3B0D94157EC2
:100020000D94327E0C944A3B0C944A3B0C944A3B10
:100030000C94D0470C944A3B0D94CE060C94FF5D73
:100040000C944A3B0D944F0F0C944A3B0C944A3B42
:100050000C944A3B0C944A3B0C944A3B0D945B7DB8
:100060000C944A3B0C94454E0C944A3B0C944A3BEE
:100070000C944A3B0D94DF830C944A3B0C944A3B0E
:100080000C944A3B0C944A3B0C944A3B0C944A3BDC
:100090000C94014E0C944A3B0C944A3B0C944A3B02
:1000A0000C944A3B0C944A3B0C94C8580C944A3B21
:1000B0000C944A3B0C94AA580C944A3B0D94200C87
:1000C0000C944A3B0C944A3B0C944A3B0C946A585F
:1000D0000C944A3B0C944A3B0C944A3B0C944A3B8C
:1000E0000C944A3B084AD73B3BCE016E84BCBFFD13
:1000F000C12F3D6C74319ABD56833DDA3D00C77FF8
:1001000011BED9E4BB4C3E916BAAAABE0000008090
:100110003F05A84CCDB2D44EB93836A9020C50B91F
:10012000918688083CA6AAAA2ABE000000803F0744
:10013000634236B79BD8A71A39685618AEBAAB5582
:100140008C1D3CB7CC5763BD6DEDFD753EF6177247
:1001500031BF000000803F08000000BE9224491219
:100160003EABAAAA2ABECDCCCC4C3E00000080BE3D
:10017000ABAAAAAA3E00000000BF000000803F001A
:1001800000000000084178D3BB4387D1133D190E0E
:100190003CC3BD4282AD2B3E68EC8276BED98FE176
:1001A000A93E4C80EFFFBE01C4FF7F3F000000006E
:1001B00000000D942A640C9468F30C9449A60C94E6
:1001C0006BA20C9444A60C946DE80D942B310D9405
:1001D00024640C9466CC0D94ED320C948DCC0C946C
:1001E000769C0D94E3010C941BE90D9455330C940B
:1001F0005CF30C94D5E70C94A5B10C940D9C0D9474
:1002000027330D9424330C94A1A20C94F4E60C949F
:100210000BF80C94A6D90C942BA60C941CAD0C9442
:1002200088A40D9440320C941CA20C941DEA0C94EA
:1002300078A70C9443A30D94CC7D0C9416AA0D942E
:100240006D330C94849C0D94B0300D9465330D94F3
:100250005B310C943CE10C945EB10C9407F30D946B
:1002600025350C94A1E70C94CDB10C94E3AA0C9421
:10027000619C0C94D5E90C949C9C0C94F8EA0D9428
:1002800080B00C9454B10C9445A20C94B2A90C9477
:100290000DED0C94D5F90C94B0D40C94C3B10D941D
:1002A000206A0C9482B10C9498E60C9406AB0D94E1
:1002B0007D320D94E8300C945AAA0C9479D50C94A4
:1002C000A2DE0C9408FA0C947FF90D94C5810D946C
:1002D000759B0C94A8D40C9402A40C9413ED0D946B
:1002E00075330C941FF70C947DA90D94AD7D0C947F
:1002F00020CC0C9413DA0D94523D0D94F0320C94F2
:10030000E9AA0D9442310C94ACD40C94979C0C94B3
:1003100060A20C9409EB0C94F8DA0C943FA60C94B0
:10032000A8D30C9484CC0D9427640C9470E90C949D
:1003300030A60C94DDA20D948F310C94B9EA0C9484
:100340008CB10C94DDAA0C94ACCA0C94B4D40C946B
:1003500043EE0C945DCC0D944D330C9492F00D94BF
:100360003D330C946C9C0C949BB10C94C9A20D94DD
:1003700045330C94F9F20C9426A60C94ADE60C943B
:10038000A09C0C94CBF20D943A760C9439EC0C941E
:1003900018ED0D94C37D0C9451A20D94516A0C94E8
:1003A000699C0D94017E0C9473D60C948E9C0C94D5
:1003B00060AA0D9480320D94E0300C94AFB10D948E
:1003C000D6300D9458320C9412A20C946CCC0C9430
:1003D0006FCC0D94326C0C943AA60D943F6A0D9438
:1003E00087320C94E9A20C94E1D10C942DE90C9481
:1003F00033B10C94729C0D942D330D9435330C94C1
:100400006FAA0C9466AA0D94416C0D948D330C94D4
:10041000A4D30C94F7A80C9492F90C943DEC0C9492
:10042000E3E60C9415AB0C941D9D0C9485EE0D9495
:1004300057310D949F7D0D94EF7D0D9485330D9470
:100440001C350C9472C90D94DA690C94FA3B0C9427
:1004500066B10C9478B10C94A3A60C94FEA40C94F1
:1004600032A20C94C4F80C94AEE10D944C6A0C9436
:1004700017FA0C946EB10C945D9C0C9430FA0C94A9
:1004800000F30C94D7E60C94F0EA0C9457AA0C9461
:10049000C8A40C9426A20C94E23B0D9421310C9438
:1004A00090D90D94B4630C9461D00D94947D0C9408
:1004B00087A90C942FB50C94EFAA0C9405CC0C943E
:1004C0007ED90D9451310D94BB320C940EF30C94E3
:1004D0003BB10C9463AA0D94F5320C94809C0C945F
:1004E00069CC0D9473300C942DD40C94FCA10C9415
:1004F0008A9C0C94989C0C94CAD40C94579C0C9491
:10050000B5A20D949E3D0D942A330C94B3DE0C9449
:1005100015F30D942E350C9446F00C949D4E0C94CE
:10052000E8F20D9479310D940F640C945DAA0C944B
:10053000E7D10D94C3310C940ECC0D947D330D9402
:100540005D330D94436A0D94181B0C9472EA0C945D
:1005500081CC0C9440B10C944DA60C94A2D40D9473
:100560003C6A0D94A07C0C9435A60C94659C0C946C
:10057000DCE10C94229D0C943FE90C94A2E60C94CF
:1005800026AA0D948A320C94AA9C0C9417AB0C9456
:10059000FDE70C94EBA20C94B9B10C9403EF0C940E
:1005A0003DD30C94FBAA0D94CD630D949F310C9414
:1005B0007C9C0C944AB10C941AF10C945AA70D949B
:1005C000A61C0C94C4E60C94929C0C9478CC0C94CD
:1005D0009CCF0C9473A20D947A7D0C9497E90C94A3
:1005E000B0C70C9470A50C9433FA6E616E00696EFE
:1005F000660000407A10F35A00A0724E18090010ED
:10060000A5D4E80000E87648170000E40B54020087
:1006100000CA9A3B000000E1F505000080969800B2
:10062000000040420F000000A086010000001027DB
:1006300000000000E803000000006400000000006B
:100640000A00000000000100000000002C76D8889D
:10065000DC674F0823DFC1DFAE59E1B1B796E5E3B0
:10066000E453C63AE651997696E8E6C28426EB89C9
:100670008C9B62ED407C6FFCEFBC9C9F40F2BAA566
:100680006FA5F490055A2AF75C936B6CF9676DC1FE
:100690001BFCE0E40D47FEF520E6B500D0ED902E02
:1006A0000300943577050080841E080000204E0A60
:1006B000000000C80C333333330F986E128311419E
:1006C000EF8D2114893BE65516CFFEE6DB18D18469
:1006D0004B381BF77C1D901DA4BBE4242032847290
:1006E0005E228100C9F124ECA1E53D27555341521A
:1006F00054322072782046756C6C2121210053659C
:100700007474696E67732053746F72656400544D1E
:100710003A2073746F7265642063616C6962726100
:1007200074696F6E20696E76616C69642C207265E5
:1007300073657474696E670053746F7265642073B7
:10074000657474696E677320726574726965766525
:10075000640048617264636F646564204465666127
:10076000756C742053657474696E6773204C6F6187
:1007700064656400563200000000C8420000C842B0
:100780000000C84300008C43000048430000484379
:10079000000040410000F042E8030000E8030000D0
:1007A000C80000008813000000409C4400409C44A6
:1007B0000000000000000000204E0000000020416A
:1007C00000002041CDCCCC3E000090400000000055
:1007D0000000000000000000CDCCCC3E3D0A81416D
:1007E000FF08433EB099AB438F42FC42E65A343F88
:1007F0004C62B04500000000004040000034420060
:100800000000000000000000000041000000E03F88
:100810000000C8420000C842000040410000F04211
:10082000C0030000C0030000C800000088130000DF
:100830001010102000409C440000803F0000003F4A
:100840001914000000CDCCCC3D0AD7233C17B7D1FA
:100850003877CC2B329595E6241FB14F0A00002043
:10086000410000C84200401C4620BCBE4CCA1B0EC2
:100870005AAEC59D744E414E494E46627573793AE3
:100880002070617573656420666F7220696E707583
:100890007400627573793A207061757365642066BF
:1008A0006F72207573657200627573793A20707289
:1008B0006F63657373696E67000000524300004305
:1008C000430000434300000000000080C09A9919D3
:1008D0003E00000000000080C09A99193E0000A070
:1008E000400000A040000000402533642073746580
:1008F000703D253264206D73636E743D2534640A47
:100900000000005243000047439AD94243FFFFFFD3
:1009100020413A0020503A002042403A0020403A1C
:1009200000202F002054303A00202F0020423A00AF
:10093000202F00543A002553457863657373697618
:100940006520626564206C6576656C696E672063FE
:100950006F7272656374696F6E3A202569206D69E4
:1009600063726F6E730A00426564206C6576656C15
:10097000696E67206661696C65642E20546F6F2014
:100980006D75636820766172696174696F6E206647
:10099000726F6D20656570726F6D206D6573680094
:1009A000426564206C6576656C696E672066616976
:1009B0006C65642E2053656E736F72207472696764
:1009C000676572656420746F6F20736F6F6E0020AF
:1009D00020004D6561737572656420706F696E7477
:1009E000733A005A207365617263682068656967AD
:1009F00068743A20352E3066004E756D20582C599B
:100A00003A20372C37004D65736820626564206C8E
:100A10006576656C696E67206E6F742061637469BA
:100A200076652E0020453A00205A3A0020593A00B7
:100A300020453A00205A3A0020593A00583A0020FE
:100A40002D3E200053706F6F6C4A6F696E3A200024
:100A50002C20006673656E736F722076302E342002
:100A6000696E206661756C742072616E67652034F2
:100A70002E362D3556202D20756E636F6E6E656394
:100A8000746564006673656E736F7220696E2066AC
:100A90006F7262696464656E2072616E6765203191
:100AA0002E352D3356202D20636865636B207365CA
:100AB0006E736F7200496E61637469766974792030
:100AC00053687574646F776E004B494C4C45442EE7
:100AD000005072696E7465722068616C7465642E72
:100AE000206B696C6C28292063616C6C6564210043
:100AF0005A206C6976652061646A757374206F751D
:100B000074206F662072616E67652E205365747461
:100B1000696E6720746F20302E20436C69636B20F0
:100B2000746F20636F6E74696E75652E005A206C49
:100B30006976652061646A757374206F7574206FBF
:100B4000662072616E67652E2053657474696E67E6
:100B500020746F20300020453A3020423A00543A49
:100B6000004731205A252D2E33662046252D2E3361
:100B70006600496E76616C6964205420636F646519
:100B80002E004475706C696361746520542D636F29
:100B900064652069676E6F7265642E0041647661DA
:100BA0006E6365204B3D004B206F7574206F66208F
:100BB000616C6C6F7765642072616E676521004DB2
:100BC0004B3353004D4B33534D4D5533005E762E12
:100BD000012533642F2533640025336400200A2067
:100BE0000A200025534172632053657474696E674F
:100BF000733A20503A4D6178206C656E67746828AE
:100C00006D6D2920533A4D696E206C656E6774686E
:100C100020286D6D29204E3A436F727265637469A6
:100C20006F6E7320523A4D696E207365676D656E05
:100C3000747320463A5365676D656E74732F7365E0
:100C4000632E0A255320204D3231342050252E3278
:100C5000662053252E3266204E25642052256420BE
:100C60004625640A00255346696C616D656E7420E3
:100C700073657474696E67733A2044697361626C5A
:100C800065640A00255346696C616D656E74207356
:100C9000657474696E67733A0A25532020204D32BB
:100CA00030302044252E32660A0025535265747276
:100CB0006163743A20533D4C656E67746820286DFB
:100CC0006D2920463A537065656420286D6D2F6D3F
:100CD00029205A3A205A4C69667420286D6D290AD9
:100CE00025532020204D3230372053252E326620C8
:100CF00046252E3266205A252E32660A2553526525
:100D0000636F7665723A20533D4578747261206C4A
:100D1000656E67746820286D6D2920463A537065AA
:100D2000656420286D6D2F6D290A25532020204DE4
:100D30003230382053252E32662046252E32660A60
:100D400025534175746F2D526574726163743A2036
:100D5000533D3020746F2064697361626C652C2090
:100D60003120746F20696E746572707265742065CD
:100D70007874727564652D6F6E6C79206D6F766511
:100D800073206173207265747261637473206F7273
:100D9000207265636F7665726965730A255320203A
:100DA000204D323039205325640A002553504944E0
:100DB00020686561746265642073657474696E6728
:100DC000733A0A25532020204D3330342050252EED
:100DD00032662049252E32662044252E32660A00CE
:100DE00025535049442073657474696E67733A0AD9
:100DF00025532020204D3330312050252E326620BF
:100E000049252E32662044252E32660A002553538A
:100E1000746570732070657220756E69743A0A2566
:100E20005320204D39322058252E32662059252E48
:100E30003266205A252E32662045252E32660A2536
:100E4000535553746570207265736F6C7574696F58
:100E50006E3A200A2553204D333530205825642022
:100E6000592564205A2564204525640A25534D617F
:100E700078696D756D20666565647261746573204F
:100E80002D206E6F726D616C20286D6D2F73293A65
:100E90000A255320204D3230332058252E3266202B
:100EA00059252E3266205A252E32662045252E32AF
:100EB000660A25534D6178696D756D2066656564B8
:100EC0007261746573202D20737465616C74682081
:100ED000286D6D2F73293A0A255320204D32303367
:100EE0002058252E32662059252E3266205A252E6E
:100EF00032662045252E32660A25534D6178696D8C
:100F0000756D20616363656C65726174696F6E20D5
:100F10002D206E6F726D616C20286D6D2F733229DC
:100F20003A0A255320204D3230312058256C752047
:100F300059256C75205A256C752045256C750A2538
:100F4000534D6178696D756D20616363656C657281
:100F50006174696F6E202D20737465616C746820F4
:100F6000286D6D2F7332293A0A255320204D3230D7
:100F7000312058256C752059256C75205A256C75C3
:100F80002045256C750A2553416363656C65726164
:100F900074696F6E3A20503D7072696E742C2052E5
:100FA0003D726574726163742C20543D7472617675
:100FB000656C0A255320204D3230342050252E32C6
:100FC000662052252E32662054252E32660A25537D
:100FD000416476616E636564207661726961626CFA
:100FE00065733A20533D4D696E2066656564726194
:100FF000746520286D6D2F73292C20543D4D696E2A
:101000002074726176656C206665656472617465D2
:1010100020286D6D2F73292C20423D6D696E696DFE
:10102000756D207365676D656E742074696D6520DC
:10103000287573292C20583D6D6178696D756D2078
:101040005859206A65726B20286D6D2F73292C20EA
:10105000205A3D6D6178696D756D205A206A657200
:101060006B20286D6D2F73292C2020453D6D6178F4
:10107000696D756D2045206A65726B20286D6D2F36
:1010800073290A255320204D3230352053252E3226
:10109000662054252E32662042256C752058252E58
:1010A00032662059252E3266205A252E326620457A
:1010B000252E32660A2553486F6D65206F6666736C
:1010C000657420286D6D293A0A255320204D323051
:1010D000362058252E32662059252E3266205A2574
:1010E0002E32660A00544D3A20525B25755D20650C
:1010F0007374696D61742E00544D3A20255320524B
:101100002025644300544D3A202553204320657325
:10111000742E00544D3A20636F6F6C20646F776EAD
:10112000203C25644300726566696E6500696E69DE
:101130007469616C00544D3A2063616C6962722E6F
:10114000206661696C65642100544D3A2063616CCE
:101150006962726174696F6E207374617274005495
:101160004D3A2043616C2E204E4F542049444C454B
:10117000004361703A25533A25630A005052555393
:10118000415F4D4D553200455854454E4445445FEE
:101190004D3230004155544F5245504F52545F50DC
:1011A0004F534954494F4E004155544F5245504FAB
:1011B00052545F46414E53004155544F5245504F93
:1011C00052545F54454D50000044656C6574696F1E
:1011D0006E206661696C65642C2046696C653A20F6
:1011E0000046696C652064656C657465643A004E00
:1011F0006F74205344207072696E74696E6700507A
:1012000072696E7420736176656400534420707255
:10121000696E7420706175736564002533642F25D1
:101220003364004F4B004241440052414D426F2015
:1012300046414E20006676007468780050524E0099
:1012400043524153485F43414E43454C0043524152
:1012500053485F5245434F5645520043524153480D
:101260005F5245434F5645520022283229002553EC
:101270003A2025530A002C204D393037204520696B
:10128000676E6F726564006E6F2076616C696420B2
:10129000636F6D6D616E64007A65726F72697A65F5
:1012A0006400666163746F727920726573746F7223
:1012B000656400696E6465782C2074656D702C20FF
:1012C00075737465702C20756D0050494E44412033
:1012D00063616C207374617475733A2000503A0036
:1012E0005761697420666F722050494E44412074E2
:1012F00061726765742074656D7065726174757272
:10130000653A00204100205000204200204C00207F
:101310005200205A00204E4F5420494E4954494112
:101320004C495A45440053686565742000205A2092
:1013300056414C5545204F5554204F462052414E62
:10134000474500496E76616C696420736865657411
:101350002049442E20416C6C6F7765643A20302E12
:101360002E004155544F004C414E472053454C20D0
:10137000464F524345440020643A0020693A002019
:10138000703A0020643A0020693A0020703A002543
:101390006925250A00256925250A0022283129000A
:1013A0002F2F0030303030303030302D3030303072
:1013B0002D303030302D303030302D303030303036
:1013C000303030303030300020555549443A00201C
:1013D00045585452554445525F434F554E543A3147
:1013E000005072757361206933204D4B33530020D8
:1013F0004D414348494E455F545950453A00312EBE
:101400003000206261736564206F6E204D61726CE4
:10141000696E204649524D574152455F55524C3AEC
:1014200068747470733A2F2F6769746875622E63DD
:101430006F6D2F707275736133642F5072757361A5
:101440002D4669726D776172652050524F544F433B
:101450004F4C5F56455253494F4E3A004649524D04
:10146000574152455F4E414D453A50727573612D5B
:101470004669726D7761726520004D3131332053BA
:10148000006F6B20006E2F61003F546F73686962BC
:101490006120466C617368416972204765744950E8
:1014A000206661696C65640A00000125311D0C40ED
:1014B00024301C0B45232F1B0A17FF0406222B1A6E
:1014C00003363735382569206D696E2C2025692053
:1014D00073656300496E76616C6964204D20636FAB
:1014E00064653A2025730A0050494E4441207072C9
:1014F0006F62652063616C6962726174696F6E20EE
:101500007374617274004E6F2050494E44412074D0
:101510006865726D6973746F7200736574006E6FC5
:101520007A7A6C65004D424C004652004C7A004C71
:10153000616E6700315F37356D6D5F4D4B33532DF5
:1015400045494E53795F3130612D453344763666D7
:10155000756C6C0052657600332E31332E302D526F
:1015600043312D363835330046697200534E2069B9
:101570006E76616C696400534E00524553455400C9
:101580004D4D555245530075766C6F0046414E00E7
:1015900046414E50494E5453540050525553410009
:1015A0005345545F43484F505F005345545F535475
:1015B00045505F005345545F574156455F00544DB9
:1015C000435F0043524153485F43414E43454C0003
:1015D00043524153485F5245434F56455200435290
:1015E0004153485F444554454354454400435241A8
:1015F00053485F00256C752062797465732077729B
:10160000697474656E20746F2025532061742061A5
:101610006464726573732030782530346C780A0006
:10162000442564202D20526561642F5772697465CA
:101630002025530A0020436F756E7420583A20000D
:1016400045303A25642052504D2050524E313A25B3
:10165000642052504D204530403A25752050524E5E
:1016600031403A25750A00526573656E6400255352
:101670003A20256C640A25530A005072696E74651D
:10168000722073746F707065642064756520746F68
:10169000206572726F72732E205375706572766951
:1016A00073696F6E2072657175697265642E00646E
:1016B000756D7020636C65617265640A006E6F20E1
:1016C00064756D7020617661696C61626C650A0099
:1016D000443231202D207265616420637261736829
:1016E0002064756D700A006E6F2064756D702061E6
:1016F0007661696C61626C650A0064756D70206367
:101700006F6D706C6574656420696E20256C756DF5
:10171000730A0058464C41534800454550524F4DBE
:10172000005352414D00442D31202D20456E646CF4
:10173000657373206C6F6F700A004163746976651E
:101740002045787472756465723A203000496E766F
:10175000616C6964206578747275646572005344C5
:10176000207072696E74696E6720627974652000FA
:10177000257500556E6B6E6F776E20636F6D6D61B2
:101780006E643A2022004D32303020496E76616C12
:10179000696420657874727564657220007A5F6D83
:1017A00061783A20007A5F6D696E3A2000795F6D4A
:1017B00061783A2000795F6D696E3A2000785F6D3C
:1017C00061783A2000545249474745524544006FDA
:1017D00070656E00785F6D696E3A20005265706FBB
:1017E0007274696E6720656E6473746F70207374B1
:1017F000617475730053494C454E54004E4F524D21
:10180000414C002553204D4F44453A2050657263AA
:10181000656E7420646F6E653A20256868643B20AD
:101820007072696E742074696D652072656D61698E
:101830006E696E6720696E206D696E733A2025644B
:101840003B204368616E676520696E206D696E7329
:101850003A2025640A00456E642066696C65206C38
:1018600069737400426567696E2066696C65206CF7
:1018700069737400556E6B6E6F776E2025632063FD
:101880006F64653A2025730A000A50494E4441208E
:1018900074656D70657261747572653A20252E31BC
:1018A00066205A20736869667420286D6D293A2075
:1018B000252E3366000A537465703A2025642F364E
:1018C0000A000A537465703A2025642F3620287365
:1018D0006B6970706564290A50494E4441207465F3
:1018E0006D70657261747572653A202564205A20A6
:1018F000736869667420286D6D293A300A000A5AA7
:1019000045524F3A20252E33660A00737461727473
:101910002074656D70657261747572653A20252E4C
:1019200031660A0025642020252E326600255320CA
:10193000583A20252E356620593A20252E35662026
:101940005A3A20252E35660A00536C6565702E2E96
:101950002E0045303A25642052504D0A50524E30E8
:101960003A25642052504D0A004372617368206426
:10197000657465637465642E00536F6D65207072C5
:101980006F626C656D20656E636F756E74657265F0
:10199000642C205A2D6C6576656C696E6720656EC7
:1019A000666F72636564202E2E2E004D657368206D
:1019B000626564206C6576656C696E672066616936
:1019C0006C65642E20506C656173652072756E20A5
:1019D0005A2063616C6962726174696F6E2E00488F
:1019E000656174696E672064697361626C65642007
:1019F0006279207361666574792074696D65722EF1
:101A00000053544F505045442E00504155534544C7
:101A100020544845524D414C204552524F520047A8
:101A20002D636F646520736C6963656420666F72F3
:101A3000206120646966666572656E74206C6576E7
:101A4000656C2E20506C656173652072652D736C1A
:101A500069636520746865206D6F64656C206167DB
:101A600061696E2E205072696E742063616E6365C9
:101A70006C6C65642E00472D636F646520736C6920
:101A800063656420666F72206120646966666572B2
:101A9000656E74206C6576656C2E20436F6E74697C
:101AA0006E75653F00472D636F646520736C6963D5
:101AB000656420666F722061206E657765722066AE
:101AC00069726D776172652E20506C656173652057
:101AD00075706461746520746865206669726D77DD
:101AE0006172652E205072696E742063616E636549
:101AF0006C6C65642E00472D636F646520736C69A0
:101B000063656420666F722061206E657765722060
:101B10006669726D776172652E20436F6E74696EAF
:101B200075653F00472D636F646520736C6963655D
:101B30006420666F72206120646966666572656EF6
:101B400074207072696E74657220747970652E20CD
:101B5000506C656173652072652D736C69636520D7
:101B6000746865206D6F64656C20616761696E2EB5
:101B7000205072696E742063616E63656C6C65647D
:101B80002E00472D636F646520736C696365642064
:101B9000666F72206120646966666572656E742086
:101BA0007072696E74657220747970652E20436F4F
:101BB0006E74696E75653F0050726573732074684A
:101BC00065206B6E6F6220746F207072656865614E
:101BD00074206E6F7A7A6C6520616E6420636F6E1C
:101BE00074696E75652E00506C6561736520707246
:101BF00065737320746865206B6E6F6220746F204C
:101C0000756E6C6F61642066696C616D656E7400E1
:101C1000616E6420707265737320746865206B6EEA
:101C20006F6200496E736572742066696C616D65E0
:101C30006E7400436F6C6F72206E6F7420636F72EE
:101C4000726563740046696C616D656E74206E6FB9
:101C500074206C6F61646564004368616E676564DD
:101C600020636F72726563746C793F004C6F6164BE
:101C7000696E6720636F6C6F72004368616E6765A1
:101C800020737563636573732100506C65617365C0
:101C9000206F70656E2069646C657220616E6420CF
:101CA00072656D6F76652066696C616D656E742016
:101CB0006D616E75616C6C792E0057617320666979
:101CC0006C616D656E7420756E6C6F6164207375E8
:101CD000636365737366756C3F00506C6561736513
:101CE00020757067726164652E004E6577206669A5
:101CF000726D776172652076657273696F6E2061AF
:101D00007661696C61626C653A0057616974696EED
:101D10006720666F722050494E44412070726F6296
:101D20006520636F6F6C696E6700506C65617365E9
:101D30002077616974004E6F206D6F76652E0057B5
:101D400061697420666F7220757365722E2E2E0085
:101D5000537461626C6520616D6269656E74207494
:101D6000656D70657261747572652032312D323621
:101D700043206973206E6565646564206120726923
:101D8000676964207374616E642069732072657181
:101D900075697265642E00506C656173652072759B
:101DA0006E2058595A2063616C6962726174696F60
:101DB0006E2066697273742E0047312058313020CE
:101DC00059313830204634303030004731205A31D4
:101DD00030204631333030004D3134302053300024
:101DE0004D31303420533000473120452D302E30D6
:101DF00037352046323130300047312046343030DC
:101E000030004D32303420533130303000473120F3
:101E10005A3520463732303000473120452D312E9B
:101E200035204632313030004739300047312058B4
:101E300035204534204631303030004731205A308B
:101E40002E32204631303030004731205835352091
:101E500045323520463134303000473120592D325B
:101E60002046313030300047312058323430204560
:101E7000323520204632323030004731205A302E61
:101E80003320463130303000473120583535204539
:101E90003820463230303000473120583520453226
:101EA000392046313830300047312058353520450B
:101EB000323920463130373300473932204530003F
:101EC000473238004D313039004D31393000100083
:101ED000C90210012C014001220170011801B0015A
:101EE0000E01F00104015002FA00B002F0003003CC
:101EF000E600D003DC009004D2007005C800A00604
:101F0000BE000008B400B009AA00D00BA000600E0B
:101F1000960060118C000015820020197800C01D09
:101F20006E00A0226400B0275A00902C50000031AF
:101F30004600E0343C0010383200903A2800603C03
:101F40001E00A03D1400803E0A00203F000045789E
:101F5000706572696D656E74616C004673656E7351
:101F60006F7220446574656374696F6E00302E383B
:101F70003000302E363000302E343000302E3235E6
:101F80000044697361626C65206661726D206D6FDB
:101F90006465005265736574204D4D55004D4D5577
:101FA000004D3434004739390044697361626C650F
:101FB000206661726D206D6F64653F004D2038347E
:101FC00000852E2E00593A202575202D3E202E2EDC
:101FD0002E00583A202575202D3E202E2E2E00460C
:101FE000696C616D656E742073656E736F722062CB
:101FF0006F617264206368616E67652064657465F3
:10200000637465643A207265766973696F6E2553EF
:102010000A004D656173757265642066696C616D57
:10202000656E742073656E736F72206C6F77206CB1
:102030006576656C3A2025342E3266560A004D6569
:102040006173757265642066696C616D656E74207C
:1020500073656E736F722068696768206C6576655A
:102060006C3A2025342E3266560A002533642F3010
:10207000002533642F3000256320415849532053F5
:1020800047313D25640A00486F74656E64004265FF
:1020900064005A00590058002D2D2D2D2D2D2D2D69
:1020A0002D2D2D2D2D2D2D2D2D2D2D2D00435A5027
:1020B00058496E76616C696453657269616C4E72E1
:1020C000006B27E81DE01DD81DCB1DB91D47312031
:1020D000582564205925642045252D2E3566004756
:1020E00031204631303830004731205A252D2E33EB
:1020F000662046373230300047312058353020597D
:1021000031353500B91E281E9C28191E0D1E021ED1
:10211000F91D4731205825642045252D2E33662092
:10212000463130303000A81E981E881E7A1EB91E17
:10213000671E5A1E491E3B1E2C1E54256400473143
:10214000205A302E3420463130303000473120596B
:102150002D33204631303030006B27C91EC41EC0DD
:102160001EB91E4D3834205859004D313039205396
:102170003238300047312058313235205A32303031
:10218000204631303030004D33313020412046314F
:1021900000473120583132352059313035205A31FD
:1021A00020463830303000496E76616C69642050CA
:1021B00049442063616C2E20726573756C74732EB4
:1021C000204E6F742073746F72656420746F2045A5
:1021D0004550524F4D2E004D3330312050252E3278
:1021E000662049252E32662044252E3266004D3366
:1021F00030332045302053253375004D39313400BC
:102200004D39313500524300444556004245544152
:1022100000414C5048410000002100240027002AC2
:10222000002D003000330001010000040107010A05
:102230000100002200250028002B002E0031003470
:102240000002010000050108010B0100002000232D
:1022500000260029002C002F00320000010000039E
:10226000010601090105050505070508080808021A
:102270000202020A0A08080404040401010101011F
:102280000101010303030303030303040707070C0E
:102290000C0C0C0C0C0C0C020202020606060606C4
:1022A0000606060B0B0B0B0B0B0B0B07070A0A0A98
:1022B0000A0A0A0505050404040808010210202082
:1022C000080810204010204080020102010804028A
:1022D0000101020408102040808040201008040200
:1022E0000180040201804020100804020108040259
:1022F000010102040810204080010204081020405F
:102300008010080408801020400440801020400401
:102310008000000A0B02090C0D0E080703040100DF
:1023200000000000000000000000000000000000AD
:10233000000000000000000000000000001211106A
:10234000000000000000000000000000000000008D
:10235000000000000000000000000000000000007D
:1023600000000000000000332E31332E302D524388
:1023700031000A204F726967696E616C2050727576
:1023800073612069330A20202050727573612052D6
:10239000657365617263680A2532302E32305300EE
:1023A000435A5058003B530053706F6F6C4A6F692B
:1023B0006E20697320006164635F696E6974002038
:1023C0000A200A200A2000416C6C204461746100DC
:1023D0005365727669636520707265700053686931
:1023E0007070696E672070726570005374617469F3
:1023F0007374696373004C616E677561676500454E
:10240000524153494E4720616C6C206461746100F5
:10241000466163746F72792052455345540050529F
:102420005553413344465700494E54340003000D80
:10243000000000210003000200000004004E4F4392
:1024400054554100414C5446414E00286E6F6E6514
:102450002C2064656661756C7420636F6E666967B5
:1024600029004E6F7620313820323032332031301F
:102470003A35303A31330020332E31332E302D525D
:1024800043312D3638353300737461727400534E06
:1024900020757064617465206661696C65640053C1
:1024A0004E207570646174656400435A505800434F
:1024B000524153485F44455445435445445859009C
:1024C00043524153485F44455445435445445900A1
:1024D00043524153485F4445544543544544580092
:1024E0004D323900252D392E39535B0047312058A4
:1024F00025642059252D2E32662045252D2E336644
:1025000000544D20657374696D6174696F6E206449
:102510006964206E6F7420636F6E76657267650004
:10252000544D20697465723A257520763A252E320D
:102530006620653A252E33660A0057726974696E03
:102540006720746F2066696C653A200046696C6587
:1025500020616C7265616479206F70656E656400DE
:1025600033332942000058419A998D413333534007
:10257000200A200A20004D4D55323A004D65617306
:102580007572652063656E74657220200078797AB3
:1025900063616C5F6D6561737572655F656E7465AF
:1025A000720A0078797A63616C5F73706972616C2A
:1025B000382063783D25642063793D2564207A3096
:1025C0003D256420647A3D256420726164697573D9
:1025D0003D25642061643D25640A0078797A636151
:1025E0006C5F7365617263685A206E6F20736967F0
:1025F0006E616C0A20783D256C6420793D256C6401
:10260000207A3D256C640A00204F4E2D5349474ED9
:10261000414C20617420783D256420793D2564205B
:102620007A3D25642061643D25640A0078797A63E7
:10263000616C5F7365617263685A20783D256C64D4
:1026400020793D256C64207A3D256C640A00253094
:10265000327800205B25662025665D206D6D207038
:1026600061747465726E2063656E7465720A002011
:102670005B25662025665D5B25665D206D6D2064AB
:102680006976657267656E63650A000000F000F8A0
:1026900001FC03FE07FE07FE07FE07FC03F801F03E
:1026A00000000000000000F000F801FC03FC03FC47
:1026B00003FC03F801F0000000000078797A636100
:1026C0006C5F6D6561737572655F6C656176650AD7
:1026D00000203C20005741524E494E473A20467256
:1026E0006F6E7420706F696E74206E6F74207265E7
:1026F00061636861626C652E205920636F6F72643C
:10270000696E6174653A0000000040410000C040FD
:1027100000005C430000C04000005C4300004643F2
:10272000000040410000464325642F340049746591
:10273000726174696F6E3A200043616C6962726104
:1027400074696F6E206661696C65642120436865F9
:10275000636B20746865206178657320616E642006
:1027600072756E20616761696E2E004D31303700E1
:1027700053706F6F6C4A6F696E004669726D776156
:1027800072650048426564206F6E206C6F61640062
:10279000466C61736841697200546865726D616C62
:1027A000204D6F64656C2063616C2E004572723A37
:1027B0005052494E542046414E204552524F5200ED
:1027C0004572723A484F54454E442046414E20458A
:1027D00052524F52002F2F20616374696F6E3A720C
:1027E0006573756D6564002F2F20616374696F6E6A
:1027F0003A726573756D65002F2F20616374696F80
:102800006E3A63616E63656C0041786973206C6534
:102810006E67746820646966666572656E63653AA2
:10282000252E33660A004D656173757265642061FB
:10283000786973206C656E6774683A252E33660A72
:10284000004F4B004C4344207374617475732063D4
:1028500068616E676564005344206361726420722E
:10286000656C65617365640046616B6520736572B4
:1028700069616C206E756D62657200452D636F6FC6
:102880006C206D6F646500414C5446414E20646578
:10289000742E004D3834004D373032004D3833003F
:1028A0004732382057004D35303000457874657216
:1028B0006E616C2053504920666C6173680A5846FB
:1028C0004C415348206973206E6F74207265732DDC
:1028D0000A706F6E64696E672E204C616E67756159
:1028E00067650A73776974636820756E61766169DC
:1028F0006C61626C652E0058464C415348206E6FE7
:102900007420726573706F6E64696E672E0046572F
:102910002063726173682064657465637465642103
:1029200020596F752063616E20636F6E74696E75D8
:1029300065207072696E74696E672E2044656275D9
:1029400067206461746120617661696C61626C65A5
:1029500020666F7220616E616C797369732E2043FB
:102960006F6E7461637420737570706F727420740D
:102970006F207375626D69742064657461696C732E
:102980002E002F2F20616374696F6E3A64756D702D
:102990005F617661696C61626C6500437261736846
:1029A00044657465637420454E41424C45442100A2
:1029B000437261736844657465637420444953418C
:1029C000424C454400486F74656E642066616E2019
:1029D000747970653A20002020506C616E6E6572CB
:1029E00042756666657242797465733A20002046C6
:1029F000726565204D656D6F72793A2000207C20EC
:102A0000417574686F723A2000204C6173742055D0
:102A10007064617465643A200020536F6674776156
:102A20007265205265736574002057617463686431
:102A30006F67205265736574002042726F776E2055
:102A40006F757420526573657400204578746572E3
:102A50006E616C20526573657400506F77657255B6
:102A600070006572726F722077726974696E672088
:102A7000746F2066696C6500446F6E6520736176C3
:102A8000696E672066696C652E006F6B004D65612D
:102A9000737572656420736B6577733A20256620C1
:102AA00025660A0046697474696E67206661696C00
:102AB0006564203D3E2063616C6962726174696F78
:102AC0006E206661696C65642E0A0043616C696200
:102AD000726174696F6E20737563636573732E0A18
:102AE00000416C6C20342063616C696272617469AE
:102AF0006F6E20706F696E747320666F756E642ED2
:102B00000A00312F3400312F3400312F3900585949
:102B10005A2063616C6962726174696F6E20616CC6
:102B20006C2072696768742E20536B657720776913
:102B30006C6C20626520636F7272656374656420DB
:102B40006175746F6D61746963616C6C792E005886
:102B5000595A2063616C6962726174696F6E206199
:102B60006C6C2072696768742E20582F5920617828
:102B700065732061726520736C696768746C792075
:102B8000736B657765642E20476F6F64206A6F6290
:102B9000210058595A2063616C6962726174696FCF
:102BA0006E206F6B2E20582F59206178657320613D
:102BB00072652070657270656E646963756C6172B0
:102BC0002E20436F6E67726174756C6174696F6EED
:102BD000732100506175736500436F6E742E00465B
:102BE0005320416374696F6E00462E206175746FC7
:102BF0006C6F616400462E2072756E6F7574004DA7
:102C00004D55204D6F6465004375747465720046C0
:102C1000616E207370656564004265640046616E94
:102C20007320636865636B004D6F64656C0053745B
:102C300072696374005761726E004E6F7A7A6C65C8
:102C400000436865636B73004E6F7A7A6C6520642D
:102C50002E004E6F6E6500416C7068616265740095
:102C600054696D6500536F72740053442063617240
:102C7000640052506920706F7274004C696E2E208F
:102C8000636F7272656374696F6E004E6F7A7A6CEF
:102C900065206368616E67650048572053657475E9
:102CA00070004C6F6164696E6720546573740044F2
:102CB000697361626C65207374657070657273000E
:102CC0004D6F766520617869730054656D7065722B
:102CD00061747572650050494E44412063616C2EE9
:102CE0000052657365742058595A2063616C69629B
:102CF000722E005049442063616C6962726174698C
:102D00006F6E00426564206C6576656C20636F723F
:102D100072656374004D65736820426564204C657C
:102D200076656C696E670043616C69627261746597
:102D3000205A0043616C6962726174652058595A67
:102D40000053656C66746573740042656C7420741E
:102D50006573740057697A617264004C6F61642016
:102D6000416C6C00506C656173652070756C6C20F3
:102D70006F75742066696C616D656E7420696D6D28
:102D80006564696174656C7900526573657400529D
:102D9000656E616D65004669727374206C6179655A
:102DA000722063616C2E0053656C6563740053740C
:102DB00065656C2073686565747300537570706F1A
:102DC0007274004661696C207374617473204D4D98
:102DD00055004661696C20737461747300537461AB
:102DE000746973746963730043616C6962726174BE
:102DF000696F6E004175746F4C6F61642066696C19
:102E0000616D656E74004C6F61642066696C616D04
:102E1000656E7400556E6C6F61642066696C616DDF
:102E2000656E74004C6F616420746F206E6F7A7AE7
:102E30006C65005072656C6F616420746F204D4D3D
:102E400055004E6F205344206361726400507269D4
:102E50006E742066726F6D20534400436C6561721E
:102E600020544D206572726F7200526573756D65E6
:102E7000207072696E74005061757365207072699C
:102E80006E7400507265686561740054756E6500FB
:102E90004C6976652061646A757374205A00496EC6
:102EA000666F2073637265656E004272696768744D
:102EB0006E657373004173736973740053696C6555
:102EC0006E74004F6E6365004C6F756400536F75D0
:102ED0006E640046696C2E2073656E736F720043DA
:102EE00068616E67652066696C616D656E74004629
:102EF0006C6F77005370656564004E2F41004D6123
:102F0000676E65747320636F6D702E005A2D70723A
:102F10006F6265206E722E004D6573680044696DA6
:102F200000427269676874004175746F0054696D7E
:102F3000656F7574004C6576656C2044696D6D65D0
:102F400064004C6576656C20427269676874005352
:102F5000657474696E677300596573004E6F005332
:102F6000746F70207072696E7400436865636B697A
:102F70006E672066696C650046696C6520696E63E2
:102F80006F6D706C6574652E20436F6E74696E751D
:102F90006520616E797761793F008452656672655C
:102FA0007368004D61696E00496E736572742074B8
:102FB00068652066696C616D656E742028646F2099
:102FC0006E6F74206C6F61642069742920696E745F
:102FD0006F2074686520657874727564657220610D
:102FE0006E64207468656E207072657373207468F7
:102FF00065206B6E6F622E0053656E736F72207664
:10300000657269666965642C2072656D6F766520EE
:103010007468652066696C616D656E74206E6F778B
:103020002E00566572696669636174696F6E206609
:1030300061696C65642C2072656D6F7665207468BB
:10304000652066696C616D656E7420616E642074C4
:10305000727920616761696E2E00506C65617365DD
:1030600020636865636B207468652049522073652E
:103070006E736F7220636F6E6E656374696F6E2C12
:1030800020756E6C6F61642066696C616D656E742D
:103090002069662070726573656E742E00506C65D1
:1030A00061736520756E6C6F61642074686520665D
:1030B000696C616D656E742066697273742C20741E
:1030C00068656E207265706561742074686973202C
:1030D000616374696F6E2E0057616974696E672051
:1030E000666F72206E6F7A7A6C6520616E64206202
:1030F000656420636F6F6C696E670053656C662052
:1031000074657374204F4B0053656C66207465734F
:1031100074207374617274005072696E74206661F9
:103120006E3A00486F74656E642066616E3A0043C3
:10313000616C6962726174696E6720686F6D6500A9
:10314000416C6C20636F72726563740043686563E1
:103150006B696E672073656E736F72730043686589
:10316000636B696E6720686F74656E6400436865A1
:10317000636B696E672062656400436865636B69B1
:103180006E67205A206178697300436865636B69D4
:103190006E672059206178697300436865636B69C5
:1031A0006E672058206178697300436865636B69B6
:1031B0006E6720656E6473746F7073004361726430
:1031C0002072656D6F766564004261636B00486FC5
:1031D00074656E64206174203238304321204E6F54
:1031E0007A7A6C65206368616E67656420616E64DD
:1031F000207469676874656E656420746F207370ED
:103200006563733F00466F722061204E6F7A7A6C5F
:1032100065206368616E676520706C656173652009
:10322000726561640A70727573612E696F2F6E6FBB
:103230007A7A6C652D6D6B3373005049442063615D
:103240006C2E2066696E697368656400504944207D
:1032500063616C2E005072696E74207061757365C5
:1032600064005072696E742061626F7274656400EC
:10327000537465616C74680043726173682064659F
:10328000742E004E6F726D616C004D6F6465004E60
:103290006F7A7A6C65206469616D6574657220640B
:1032A0006966666572732066726F6D20746865204A
:1032B000472D636F64652E20506C656173652063D4
:1032C0006865636B207468652076616C756520693C
:1032D0006E2073657474696E67732E205072696E08
:1032E000742063616E63656C6C65642E004E6F7A4A
:1032F0007A6C65206469616D6574657220646966C5
:10330000666572732066726F6D2074686520472D44
:10331000636F64652E20436F6E74696E75653F0040
:103320004D4B3353206669726D7761726520646519
:10333000746563746564206F6E204D4B332070722A
:10334000696E74657200426C61636B6F7574206F97
:10335000636375727265642E205265636F76657261
:10336000207072696E743F00546865726D616C20E4
:103370006D6F64656C206E6F742063616C6962723E
:1033800061746564207965742E00546865726520E7
:103390006973207374696C6C2061206E65656420AC
:1033A000746F206D616B65205A2063616C69627275
:1033B0006174696F6E2E20506C6561736520666F55
:1033C0006C6C6F7720746865206D616E75616C2C14
:1033D000206368617074657220466972737420732B
:1033E000746570732C2073656374696F6E2043611C
:1033F0006C6962726174696F6E20666C6F772E0003
:103400005072696E74657220686173206E6F7420EB
:103410006265656E2063616C6962726174656420C7
:103420007965742E20506C6561736520666F6C6CD5
:103430006F7720746865206D616E75616C2C2063F8
:103440006861707465722046697273742073746564
:1034500070732C2073656374696F6E2043616C69AF
:1034600062726174696F6E20666C6F772E005365AF
:103470006C66746573742077696C6C206265207269
:10348000756E20746F2063616C696272617465206F
:1034900061636375726174652073656E736F726CBE
:1034A000657373207265686F6D696E672E004F6C6F
:1034B000642073657474696E677320666F756E64DB
:1034C0002E2044656661756C74205049442C20455B
:1034D0007374657073206574632E2077696C6C203B
:1034E0006265207365742E005761726E696E673A6B
:1034F00020626F7468207072696E746572207479CE
:10350000706520616E64206D6F74686572626F61B2
:1035100072642074797065206368616E6765642EDB
:10352000005761726E696E673A207072696E7465D9
:10353000722074797065206368616E6765642E001F
:103540005761726E696E673A206D6F74686572625A
:103550006F6172642074797065206368616E67655D
:10356000642E0054657374696E672066696C616DC2
:10357000656E74005368656574004E6F74207370D7
:10358000696E6E696E67005370696E6E696E670072
:1035900046616E20746573740053656C6674657360
:1035A00074206661696C6564002573206C657665BE
:1035B0006C2065787065637465640046616C736542
:1035C0002074726967676572696E670046696C612D
:1035D0006D656E742073656E736F720053776170E2
:1035E0007065640046726F6E742F6C656674206639
:1035F000616E7300417869730041786973206C656E
:103600006E677468004C6F6F73652070756C6C65C5
:1036100079004C65667420686F74656E642066611D
:103620006E3F0046726F6E74207072696E74206611
:10363000616E3F00456E6473746F70206E6F74200E
:1036400068697400456E6473746F70004D6F746FB9
:103650007200456E6473746F707300576972696E9F
:1036600067206572726F72004265642F48656174ED
:103670006572004E6F7420636F6E6E65637465646F
:10368000004865617465722F546865726D69737462
:103690006F7200506C6561736520636865636B3A97
:1036A0000053656C6674657374206572726F722165
:1036B0000046696C616D656E740053656C6563747A
:1036C0002066696C616D656E743A0058595A2063C2
:1036D000616C6962726174696F6E206661696C65A4
:1036E000642E2052696768742066726F6E7420635E
:1036F000616C6962726174696F6E20706F696E745B
:10370000206E6F7420726561636861626C652E0063
:1037100058595A2063616C6962726174696F6E20D6
:103720006661696C65642E2046726F6E74206361F9
:103730006C6962726174696F6E20706F696E747308
:10374000206E6F7420726561636861626C652E0023
:1037500058595A2063616C6962726174696F6E2096
:103760006661696C65642E20506C656173652063C9
:103770006F6E73756C7420746865206D616E756111
:103780006C2E0058595A2063616C696272617469C9
:103790006F6E20636F6D70726F6D697365642E203C
:1037A00052696768742066726F6E742063616C6919
:1037B00062726174696F6E20706F696E74206E6FD3
:1037C0007420726561636861626C652E0058595A95
:1037D0002063616C6962726174696F6E20636F6DE2
:1037E00070726F6D697365642E2046726F6E7420FF
:1037F00063616C6962726174696F6E20706F696E6B
:103800007473206E6F7420726561636861626C65A9
:103810002E0058595A2063616C6962726174696F35
:103820006E206661696C65642E2042656420636168
:103830006C6962726174696F6E20706F696E74205A
:10384000776173206E6F7420666F756E642E005002
:103850006C6561736520706C616365207374656568
:103860006C207368656574206F6E20686561746292
:1038700065642E0044697374616E636520626574CB
:103880007765656E20746970206F662074686520A6
:103890006E6F7A7A6C6520616E6420746865206250
:1038A0006564207375726661636520686173206E5C
:1038B0006F74206265656E20736574207965742E5F
:1038C00020506C6561736520666F6C6C6F77207437
:1038D0006865206D616E75616C2C20636861707421
:1038E00065722046697273742073746570732C203E
:1038F00073656374696F6E204669727374206C61BE
:103900007965722063616C6962726174696F6E2E91
:1039100000506C6163652061207368656574206F79
:103920006620706170657220756E646572207468BF
:1039300065206E6F7A7A6C6520647572696E672097
:103940007468652063616C6962726174696F6E206E
:103950006F66206669727374203420706F696E74AC
:10396000732E20496620746865206E6F7A7A6C65C4
:10397000206361746368657320746865207061708A
:1039800065722C20706F776572206F666620746890
:1039900065207072696E74657220696D6D65646909
:1039A0006174656C792E00506C6561736520726579
:1039B0006D6F766520737465656C207368656574DA
:1039C0002066726F6D20686561746265642E0049BF
:1039D0007320737465656C207368656574206F6E01
:1039E00020686561746265643F0053656172636855
:1039F000696E67206265642063616C6962726174DC
:103A0000696F6E20706F696E74004D6561737572B9
:103A1000696E67207265666572656E6365206865AC
:103A200069676874206F662063616C696272617493
:103A3000696F6E20706F696E7400506C656173659C
:103A400020636C65616E20746865206E6F7A7A6C95
:103A50006520666F722063616C6962726174696F60
:103A60006E2E20436C69636B207768656E20646FEF
:103A70006E652E004175746F20686F6D6500556E20
:103A80006578706563746564206572726F72206F0B
:103A9000636375727265642E004D3630302046695E
:103AA0006C616D656E74204368616E67652E204C95
:103AB0006F61642061206E65772066696C616D6559
:103AC0006E74206F7220656A656374207468652067
:103AD0006F6C64206F6E652E0052656D6F76652089
:103AE00074686520656A65637465642066696C61E5
:103AF0006D656E742066726F6D20746865206672E5
:103B00006F6E74206F6620746865204D4D552E00D1
:103B100046696C616D656E74206465746563746577
:103B20006420756E65787065637465646C792E20A9
:103B3000456E73757265206E6F2066696C616D6588
:103B40006E74206973206C6F616465642E20436815
:103B500065636B207468652073656E736F72732084
:103B6000616E6420776972696E672E00496E7465B4
:103B7000726E616C2072756E74696D65206572720B
:103B80006F722E2054727920726573657474696E39
:103B90006720746865204D4D55206F7220757064E4
:103BA0006174696E6720746865206669726D7761FB
:103BB00072652E004D4D552046572076657273690B
:103BC0006F6E20697320696E636F6D7061746962D6
:103BD0006C652077697468207072696E74657220F4
:103BE00046572E55706461746520746F2076657237
:103BF00073696F6E20332E302E312E004D4D5520BF
:103C00004669726D7761726520696E7465726E6166
:103C10006C206572726F722C20706C656173652008
:103C2000726573657420746865204D4D552E005281
:103C300065717565737465642066696C616D656E28
:103C40007420746F6F6C206973206E6F74206176BE
:103C500061696C61626C65206F6E207468697320A5
:103C600068617264776172652E20436865636B20BA
:103C700074686520472D636F646520666F722074D9
:103C80006F6F6C20696E646578206F7574206F6645
:103C90002072616E6765202854302D5434292E001F
:103CA00043616E6E6F7420706572666F726D207402
:103CB000686520616374696F6E2C2066696C616D44
:103CC000656E7420697320616C7265616479206C23
:103CD0006F616465642E20556E6C6F616420697439
:103CE0002066697273742E004D4D55206E6F7420DE
:103CF000726573706F6E64696E6720636F72726550
:103D000063746C792E20436865636B20746865204A
:103D1000776972696E6720616E6420636F6E6E658D
:103D200063746F72732E004D4D55206E6F74207248
:103D30006573706F6E64696E672E20436865636B90
:103D40002074686520776972696E6720616E6420EF
:103D5000636F6E6E6563746F72732E004D6F726564
:103D60002064657461696C73206F6E6C696E652E7A
:103D7000005468652049646C65722063616E6E6FE3
:103D80007420686F6D652070726F7065726C792E2B
:103D900020436865636B20666F7220616E7974687A
:103DA000696E6720626C6F636B696E6720697473FC
:103DB000206D6F76656D656E742E0043616E27749D
:103DC000206D6F76652053656C6563746F72206F2C
:103DD000722049646C65722E005468652053656CCE
:103DE0006563746F722063616E6E6F7420686F6DAF
:103DF000652070726F7065726C792E204368656300
:103E00006B20666F7220616E797468696E672062DC
:103E10006C6F636B696E6720697473206D6F766574
:103E20006D656E742E004C6F6164696E6720746FEF
:103E3000206578747275646572206661696C65646A
:103E40002E20496E737065637420746865206669FE
:103E50006C616D656E742074697020736861706543
:103E60002E20526566696E65207468652073656EE4
:103E7000736F722063616C6962726174696F6E2C1A
:103E8000206966206E65656465642E0053656C6507
:103E900063746F722063616E2774206D6F76652086
:103EA00064756520746F2046494E444120646574F2
:103EB000656374696E6720612066696C616D656E0B
:103EC000742E204D616B652073757265206E6F20B6
:103ED00066696C616D656E7420697320696E20532C
:103EE000656C6563746F7220616E642046494E4450
:103EF0004120776F726B732070726F7065726C798E
:103F00002E0046696C616D656E742073656E736F0B
:103F1000722074726967676572656420746F6F20C0
:103F20006561726C79207768696C65206C6F61647B
:103F3000696E6720746F2065787472756465722E7F
:103F400020436865636B2074686572652069736ED1
:103F5000277420616E797468696E67207374756365
:103F60006B20696E205054464520747562652E2082
:103F7000436865636B20746861742073656E736F4A
:103F8000722072656164732070726F7065726C79F3
:103F90002E0050756C6C6579206D6F746F72207394
:103FA00074616C6C65642E20456E73757265207447
:103FB00068652070756C6C65792063616E206D6F2B
:103FC000766520616E6420636865636B2074686544
:103FD00020776972696E672E0046696C616D656E47
:103FE000742073656E736F72206469646E27742029
:103FF000737769746368206F6666207768696C659B
:1040000020756E6C6F6164696E672066696C616DA6
:10401000656E742E20456E737572652066696C61DD
:104020006D656E742063616E206D6F766520616EC4
:1040300064207468652073656E736F7220776F7289
:104040006B732E0046696C616D656E742073656ECE
:10405000736F72206469646E277420747269676775
:104060006572207768696C65206C6F6164696E6742
:10407000207468652066696C616D656E742E2045DC
:104080006E73757265207468652073656E736F72E8
:104090002069732063616C69627261746564206178
:1040A0006E64207468652066696C616D656E74204D
:1040B000726561636865642069742E0046494E44E8
:1040C00041206469646E2774207377697463682083
:1040D0006F6666207768696C6520756E6C6F6164C9
:1040E000696E672066696C616D656E742E2054720E
:1040F0007920756E6C6F6164696E67206D616E7595
:10410000616C6C792E20456E737572652066696CE2
:10411000616D656E742063616E206D6F76652061E0
:104120006E642046494E444120776F726B732E00B7
:1041300046494E4441206469646E27742074726954
:1041400067676572207768696C65206C6F61646968
:104150006E67207468652066696C616D656E742E8B
:1041600020456E73757265207468652066696C61A0
:104170006D656E742063616E206D6F766520616E73
:10418000642046494E444120776F726B732E004481
:10419000697361626C650053746F7000456A656392
:1041A00074004C6F616400556E6C6F616400526501
:1041B0007365744D4D550052657472790053656E88
:1041C000736974697669747900446F6E650052652D
:1041D000636F766572696E67207072696E740054E1
:1041E0004845524D414C20414E4F4D414C59005293
:1041F0006573756D696E67207072696E74005049E1
:104200004E44412048656174696E670043616C6982
:1042100062726174696F6E20646F6E650043616CD9
:104220006962726174696E67205A00426564206435
:104230006F6E65004265642048656174696E670051
:1042400048656174696E6720646F6E652E0048650D
:104250006174696E67004D4D5520706F77657220EF
:104260006661696C73004D4D55206C6F616420660A
:1042700061696C73004D4D55206661696C73004D2A
:104280006174657269616C206368616E6765730053
:10429000546F74616C206661696C7572657300435C
:1042A000726173680046696C2E2072756E6F75744A
:1042B0007300506F776572206661696C7572657303
:1042C000004C617374207072696E74206661696C51
:1042D0007572657300546F74616C004C6173742067
:1042E0007072696E7400416D6269656E7400566F1C
:1042F0006C74616765730054656D70657261747587
:104300007265730042656C74207374617475730018
:1043100053656E736F7220696E666F0045787472B4
:104320007564657220696E666F0058595A20636122
:104330006C2E2064657461696C73005072696E74D0
:10434000657220495020416464723A00756E6B6E4C
:104350006F776E004D4D5520636F6E6E65637465AB
:104360006400446174653A00746F20756E6C6F610F
:10437000642066696C616D656E7400746F206C6F8B
:1043800061642066696C616D656E7400507265735E
:104390007320746865206B6E6F620050726568658B
:1043A0006174696E6720746F206375740050726564
:1043B00068656174696E6720746F20656A656374EF
:1043C0000050726568656174696E6720746F20754E
:1043D0006E6C6F61640050726568656174696E67C8
:1043E00020746F206C6F616400436F6F6C646F7733
:1043F0006E0046696C616D656E74206578747275C7
:1044000064696E672026207769746820636F727212
:1044100065637420636F6C6F723F004175746F6CDD
:104420006F6164696E672066696C616D656E74208A
:104430006973206163746976652C206A75737420D2
:10444000707265737320746865206B6E6F62206193
:104450006E6420696E736572742066696C616D6547
:104460006E742E2E2E005072696E742074696D6504
:104470000046696C616D656E7420757365640054E7
:104480006F74616C207072696E742074696D650060
:10449000546F74616C2066696C616D656E74005058
:1044A00072656865617420746865206E6F7A7A6CD5
:1044B0006521004552524F523A00526967687400B4
:1044C0004C65667400592064697374616E6365207D
:1044D00066726F6D206D696E00536576657265203A
:1044E000736B657700536C6967687420736B6577CD
:1044F000004D6561737572656420736B6577005B51
:10450000303B305D20706F696E74206F6666736536
:10451000740041646A757374696E67205A0052654D
:1045200061722073696465205BE46D5D0046726FA3
:104530006E7420736964655BE46D5D005269676841
:104540007420736964655BE46D5D004C656674207E
:1045500073696465205BE46D5D0053657420746568
:104560006D70657261747572653A0050494E4441D0
:104570002063616C6962726174696F6E2066616943
:104580006C65640050494E44412063616C696272FD
:104590006174696F6E2069732066696E69736865FE
:1045A0006420616E64206163746976652E204974AD
:1045B0002063616E2062652064697361626C65646A
:1045C00020696E206D656E752053657474696E6721
:1045D000732D3E50494E44412063616C2E00457856
:1045E000747275646572004D6F7665205A004D6F68
:1045F00076652059004D6F766520580043726173CF
:104600006820646574656374696F6E2063616E0A07
:104610006265207475726E6564206F6E206F6E6CBB
:104620007920696E0A4E6F726D616C206D6F6465E2
:10463000005741524E494E473A0A4372617368200F
:10464000646574656374696F6E0A64697361626C32
:10465000656420696E0A537465616C7468206D6FBF
:104660006465004D6F6465206368616E67652069ED
:104670006E2070726F67726573732E2E2E005368F2
:1046800065657420252E37730A5A206F6666736538
:10469000743A20252B312E33666D6D0A2563436FE6
:1046A0006E74696E75650A25635265736574005092
:1046B0006C65617365206C6F61642066696C616D07
:1046C000656E742066697273742E003E43616E637A
:1046D000656C0052756E6E696E672057697A6172FB
:1046E000642077696C6C2064656C65746520637503
:1046F0007272656E742063616C6962726174696F55
:104700006E20726573756C747320616E64207374AF
:104710006172742066726F6D2074686520626567CF
:10472000696E6E696E672E20436F6E74696E756573
:104730003F0050726568656174696E67206E6F7ABC
:104740007A6C652E20506C656173652077616974A1
:104750002E00506C6561736520696E7365727420FC
:1047600066696C616D656E7420696E746F20746823
:10477000652065787472756465722C207468656E46
:1047800020707265737320746865206B6E6F622091
:10479000746F206C6F61642069742E00506C6561C9
:1047A000736520696E736572742066696C616D65EE
:1047B0006E7420696E746F20746865206669727308
:1047C000742074756265206F6620746865204D4D95
:1047D000552C207468656E20707265737320746840
:1047E00065206B6E6F6220746F206C6F616420694E
:1047F000742E00546865207072696E74657220773B
:10480000696C6C207374617274207072696E746963
:104810006E672061207A69672D7A6167206C696E06
:10482000652E20526F7461746520746865206B6E0C
:104830006F6220756E74696C20796F752072656186
:10484000636820746865206F7074696D616C20689E
:1048500065696768742E20436865636B20746865BA
:1048600020706963747572657320696E2074686561
:104870002068616E64626F6F6B202843616C6962AF
:10488000726174696F6E2063686170746572292E3D
:104890000053656C6563742074656D706572617436
:1048A000757265207768696368206D6174636865F7
:1048B0007320796F7572206D6174657269616C2EF9
:1048C0000053656C65637420612066696C616D6579
:1048D0006E7420666F722074686520466972737406
:1048E000204C617965722043616C69627261746900
:1048F0006F6E20616E642073656C656374206974EB
:1049000020696E20746865206F6E2D736372656513
:104910006E206D656E752E004E6F77204920776989
:104920006C6C2063616C6962726174652064697388
:1049300074616E6365206265747765656E20746965
:1049400070206F6620746865206E6F7A7A6C6520BF
:10495000616E642068656174626564207375726657
:104960006163652E00506C656173652063686563E3
:104970006B206F75722068616E64626F6F6B20616F
:104980006E6420666978207468652070726F626C4E
:10499000656D2E205468656E20726573756D652097
:1049A0007468652057697A61726420627920726543
:1049B000626F6F74696E6720746865207072696ECB
:1049C0007465722E00416C6C20697320646F6E6593
:1049D0002E204861707079207072696E74696E67FC
:1049E0002100596F752063616E20616C7761797366
:1049F00020726573756D65207468652057697A61EA
:104A000072642066726F6D2043616C6962726174BA
:104A1000696F6E202D3E2057697A6172642E0049BD
:104A20006620796F752068617665206164646974B9
:104A3000696F6E616C20737465656C207368656561
:104A400074732C2063616C69627261746520746890
:104A5000656972207072657365747320696E205386
:104A6000657474696E6773202D20485720536574F0
:104A70007570202D20537465656C207368656574AE
:104A8000732E00506C6561736520636C65616E20E8
:104A90006865617462656420616E64207468656E27
:104AA00020707265737320746865206B6E6F622E60
:104AB00000446F20796F752077616E7420746F20C9
:104AC000726570656174206C6173742073746570B5
:104AD00020746F20726561646A75737420646973F1
:104AE00074616E6365206265747765656E206E6FB4
:104AF0007A7A6C6520616E642068656174626564B1
:104B00003F0053656C656374206E6F7A7A6C652024
:104B1000707265686561742074656D70657261742A
:104B2000757265207768696368206D617463686574
:104B30007320796F7572206D6174657269616C2E76
:104B40000049732066696C616D656E74206C6F61DD
:104B50006465643F00546865726D616C206D6F64BC
:104B6000656C2063616C2E2074616B6573206170CD
:104B700070726F782E203132206D696E732E205343
:104B800065650A70727573612E696F2F746D2D6380
:104B9000616C004E6F7720492077696C6C207072D1
:104BA0006568656174206E6F7A7A6C6520666F72D5
:104BB00020504C412E00492077696C6C2072756E34
:104BC000207A2063616C6962726174696F6E206E15
:104BD0006F772E004E6F772072656D6F766520744B
:104BE00068652074657374207072696E74206672D3
:104BF0006F6D20737465656C2073686565742E0035
:104C0000506C656173652072656D6F7665207368A1
:104C1000697070696E672068656C70657273206674
:104C2000697273742E00492077696C6C2072756EFE
:104C30002078797A2063616C6962726174696F6E41
:104C4000206E6F772E2049742077696C6C20746118
:104C50006B6520757020746F203234206D696E731F
:104C60002E0046697273742C20492077696C6C2081
:104C700072756E207468652073656C6674657374F4
:104C800020746F20636865636B206D6F737420639D
:104C90006F6D6D6F6E20617373656D626C792070DE
:104CA000726F626C656D732E0048692C204920611B
:104CB0006D20796F7572204F726967696E616C2023
:104CC0005072757361206933207072696E746572F9
:104CD0002E20576F756C6420796F75206C696B6539
:104CE000206D6520746F20677569646520796F7524
:104CF000207468726F7567682074686520736574C6
:104D000075702070726F636573733F0048692C2063
:104D10004920616D20796F7572204F726967696EE5
:104D2000616C205072757361206933207072696EF6
:104D30007465722E20492077696C6C2067756964F0
:104D40006520796F75207468726F756768206120BF
:104D500073686F72742073657475702070726F63FE
:104D60006573732C20696E207768696368207468A6
:104D700065205A2D617869732077696C6C206265B3
:104D80002063616C696272617465642E2054686589
:104D90006E2C20796F752077696C6C2062652072AB
:104DA0006561647920746F207072696E742E00459D
:104DB0002D636F7272656374005A2D636F72726532
:104DC000637400592D636F727265637400582D63AC
:104DD0006F7272656374004D494E54454D502042C8
:104DE0004544206669786564004D494E54454D50F0
:104DF00020484F54454E44206669786564004D4D07
:104E000055323A0025336400180104190407304173
:104E1000BC404440D93F923F023F8C3E263ED93DA4
:104E2000BB3D713DBB3D5C3D5C3D5C3D5C3D5C3DE7
:104E30005C3D5C3D5C3D5C3D5C3D5C3D5C3D5C3DAA
:104E40005C3D5C3D5C3D5C3D5C3D5C3D5C3D5C3D9A
:104E50005C3D273DE83CA03C2F3CFC3BB43B6C3B1D
:104E6000103BD93A993A7E3A010101010101010250
:104E7000710171013232320303030303030303039D
:104E800003030303030303030303939324380393EC
:104E90000301025603650066006700680069006A46
:104EA000006B006C00730074007D007E00C900D3AD
:104EB00000DD00CA00D400DE002D01370141012EC3
:104EC00001380142012F013901430130013A014407
:104ED0000131013B014501320191019201F501F6D9
:104EE00001F701F801F901FA01FB01FC018403B7A4
:104EF00041C941AE41A741A2419C418B2E97418FB0
:104F000041252E3230530A70727573612E696F2FEE
:104F100030342568750020557067726164696E676A
:104F20002078666C6173680A20446F206E6F74206D
:104F3000646973636F6E6E656374210077323578D0
:104F40003230636C5F63666D0A00773235783230D9
:104F5000636C5F656E7465720A0073746172740AC3
:104F6000007265636F7665725F6D616368696E6517
:104F70005F73746174655F61667465725F706F778B
:104F800065725F70616E69632C20696E6974696116
:104F90006C200050525553412075766C6F00473499
:104FA000205330004D32362053256C75004D313082
:104FB000362053257500473120462564004D383290
:104FC000004739322045252D2E3366004D323034CE
:104FD0002050252D2E31662052252D2E316620544D
:104FE000252D2E3166004731205A252D2E3366009F
:104FF0005052555341204D424C20563100473120EC
:1050000058252D2E33662059252D2E336620463304
:1050100030303000506F736974696F6E2072656153
:10502000642066726F6D20656570726F6D3A002C3A
:1050300020666565646D756C7469706C793A0046BC
:10504000656564726174653A0047312045352046D4
:10505000313230004D31303920532564004D313428
:105060003020532564004D313034205325640047EF
:10507000323820582059004731205A252E336620D7
:10508000463830300024F4D43050C38E20C2A240C1
:1050900017828B7011127A910D816CD90AA861E187
:1050A00008C7586607615143061E4B5D05C145A7F9
:1050B000041A411104093D9803713931034036DB6C
:1050C0000265339102D4305402802E1D02632CEE0F
:1050D00001752AC501B028A001102781018F256420
:1050E000012B244B01E0223401AC211F018D200D46
:1050F00001801FFC00841EED00971DDF00B81CD24C
:1051000000E61BC600201BBC00641AB200B219A83E
:10511000000A19A0006A189900D117910040178B56
:1051200000B516840031167E00B31579003A157368
:1051300000C7146F0058146A00EE136600881363EA
:105140000025135E00C7125B006C12570015125445
:1051500000C111510070114F0021114B00D61049B0
:10516000008D1047004610440002104200C00F405E
:1051700000800F3E00420F3C00060F3B00CB0E3874
:1051800000930E37005C0E3500270E3400F30D320D
:1051900000C10D3100900D3000600D2E00320D2D3C
:1051A00000050D2C00D90C2B00AE0C2900850C2914
:1051B000005C0C2700350C27000E0C2600E80B24A1
:1051C00000C40B2400A00B23007D0B23005A0B21ED
:1051D00000390B2100180B2000F80A1F00D90A1E05
:1051E00000BB0A1E009D0A1D00800A1D00630A1CE8
:1051F00000470A1B002C0A1B00110A1A00F7091AA3
:1052000000DD091900C4091900AB0919009209173A
:10521000007B091800630917004C091600360916AF
:1052200000200916000A091500F5081500E0081409
:1052300000CC081400B8081400A408140090081347
:10524000007D0812006B081300580812004608126F
:105250000034081100230811001208110001081180
:1052600000F0071000E0071000D0071000C0071082
:1052700000B0070F00A107100091070E0083070F71
:105280000074070F0065070E0057070E0049070E50
:10529000003B070D002E070E0020070D0013070D21
:1052A0000006070D00F9060C00ED060D00E0060CE7
:1052B00000D4060C00C8060C00BC060C00B0060C9E
:1052C00000A4060B0099060C008D060B0082060B4D
:1052D0000077060B006C060B0061060A0057060BF0
:1052E000004C060A0042060A0038060A002E060A8A
:1052F0000024060A001A060A001006090007060A1A
:1053000000FD050900F4050900EB050900E20509A7
:1053100000D9050900D0050900C7050900BE050927
:1053200000B5050800AD050800A50509009C0508A5
:1053300000940508008C050800840508007C050819
:1053400000740508006C050700650508005D050789
:1053500000560508004E05070047050700400508F0
:105360000038050700310507002A05070023050757
:10537000001C050600160507000F050700080506B6
:105380000002050700FB040600F5040700EE040612
:1053900000E8040600E2040700DB040600D504066A
:1053A00000CF040600C9040600C3040600BD0406BD
:1053B00000B7040600B1040500AC040600A604060C
:1053C00000A00405009B0406009504050090040657
:1053D000008A04050085040500800406007A04059F
:1053E0000075040500700405006B040500660405E3
:1053F00000610405005C0405005704050052040523
:10540000004D04050048040500430405003E040463
:10541000003A04050035040500300404002C04059E
:105420000027040400230405001E0404001A0404D9
:105430000016040500110404000D0404000904050D
:10544000000404040000040400FC030400F8030446
:1054500000F4030400F0030400EC030400E8030478
:1054600000E4030400E0030400DC030400D80304A8
:1054700000D4030400D0030400CC030400C80303D9
:1054800000C503030024F404D9201BC40C5C0E984F
:1054900004C4095F0265077101F405F900FB04B358
:1054A0000048048700C10369005803550003034501
:1054B00000BE023A008402310053022A002902256C
:1054C0000004022000E4011C00C8011900AF01170C
:1054D0000098011400840113007101100061011093
:1054E0000051010E0043010D0036010B002B010B92
:1054F0000020010B00150109000C0109000301083F
:1055000000FB000800F3000800EB000700E40006C1
:1055100000DE000600D8000600D2000600CC000520
:1055200000C7000500C2000500BD000400B900046A
:1055300000B5000400B1000400AD000400A900049F
:1055400000A5000300A20003009F0004009B0003CD
:1055500000980003009500020093000300900003F0
:10556000008D0002008B000300880002008600020C
:105570000084000300810002007F0002007D000221
:10558000007B000200790002007700010076000233
:10559000007400020072000100710002006F00023E
:1055A000006D0001006C0002006A00010069000249
:1055B0000067000100660001006500010064000250
:1055C000006200010061000100600001005F000254
:1055D000005D0001005C0001005B0001005A000159
:1055E0000059000100580001005700010056000159
:1055F0000055000100540001005300000053000159
:10560000005200010051000100500001004F000154
:10561000004E0000004E0001004D0001004C000152
:10562000004B0000004B0001004A0001004900014E
:10563000004800000048000100470001004600004B
:105640000046000100450000004500010044000143
:10565000004300000043000100420000004200013E
:10566000004100000041000100400001003F000037
:10567000003F0001003E0000003E0001003D000030
:10568000003D0001003C0000003C0000003C000127
:10569000003B0000003B0001003A0000003A00011E
:1056A0000039000000390001003800000038000017
:1056B000003800010037000000370001003600000C
:1056C0000036000000360001003500000035000003
:1056D00000350001003400000034000000340001F7
:1056E00000330000003300000033000100320000EE
:1056F00000320000003200010031000000310000E3
:1057000000310001003000000030000000300001D6
:10571000002F0000002F0000002F0000002F0001CC
:10572000002E0000002E0000002E0001002D0000C1
:10573000002D0000002D0000002D0001002C0000B5
:10574000002C0000002C0000002C0001002B0000A9
:10575000002B0000002B0000002B0001002A00009D
:10576000002A0000002A0000002A00010029000091
:105770000029000000290000002900000029000184
:105780000028000000280000002800000028000079
:10579000002800010027000000270000002700006B
:1057A000002700000027000100260000002600005E
:1057B0000026000000260000002600010025000051
:1057C0000025000000250000002500000025000045
:1057D0000025000100240000002400000024000037
:1057E000002400000024000100230000002300002A
:1057F000002300000023000000230000002300001D
:10580000002300010022000000220000002200000E
:105810000022000000220000002200010021000000
:1058200000210000002100000021000000210000F4
:1058300000210000002100010020000000200000E5
:1058400000200000002000000020000000200000D8
:105850000020000000200001001F0000001F0000C9
:10586000001F0000001F0000001F0000001F0000BC
:10587000001F0001001E0000001E0000001E0000AE
:10588000001E000000504944204175746F74756E0D
:10589000652066696E69736865642120507574209F
:1058A000746865206C617374204B702C204B6920E8
:1058B000616E64204B6420636F6E7374616E7473E9
:1058C0002066726F6D2061626F766520696E746FFD
:1058D00020436F6E66696775726174696F6E2E68BA
:1058E00000504944204175746F74756E652066617F
:1058F000696C6564212074696D656F757400204062
:105900003A00543A00423A00504944204175746FBD
:1059100074756E65206661696C6564212054656DDF
:10592000706572617475726520746F6F2068696745
:105930006800204B643A2000204B693A2000204B3D
:10594000703A200020436C617373696320504944AE
:1059500020002054753A2000204B753A2000206D1D
:1059600061783A2000206D696E3A200020643A2068
:105970000020626961733A200050494420417574E7
:105980006F74756E652073746172740050494420A1
:105990004175746F74756E65206661696C65642EFF
:1059A00020426164206578747275646572206E753A
:1059B0006D6265722E00544D4C20256420256420B4
:1059C000257820256C7820256C780A004D494E54A6
:1059D000454D50004D494E54454D502042454400E0
:1059E0004D494E54454D5020414D42004D41585473
:1059F000454D50004D415854454D502042454400BE
:105A00004D415854454D5020414D4200544D3A208F
:105A10006572726F7220636C656172656400544DCB
:105A20003A206572726F7220747269676765726579
:105A3000642100544D3A206572726F72207C256695
:105A40007C3E25660A0070012C0190012701B001FF
:105A50002201C0011D01F0011801100213013002E2
:105A60000E016002090190020401C002FF00000360
:105A7000FA004003F5008003F000D003EB0020049F
:105A8000E6007004E100E004DC004005D700C0053A
:105A9000D2004006CD00D006C8008007C300300801
:105AA000BE00F008B900C009B400B00AAF00B00BE6
:105AB000AA00D00CA500000EA000500F9B00C01043
:105AC00096005012910000148C00C0158700B0178A
:105AD0008200B0197D00D01B7800001E73004020AA
