:100000000C94983D0C94C93D0C94C93D0C94C93D89
:100010000C94C93D0D9458000C94C93D0D944D8924
:100020000D946A890C94C93D0C94C93D0C94C93D4A
:100030000C944F4A0C94C93D0C94E5D60C947E6008
:100040000C94C93D0C941FDF0C94C93D0C94C93D20
:100050000C94C93D0C94C93D0C94C93D0D949388F2
:100060000C94C93D0C94C4500C94C93D0C94C93DEA
:100070000C94C93D0D94E78E0C94C93D0C94C93D78
:100080000C94C93D0C94C93D0C94C93D0C94C93DD8
:100090000C9480500C94C93D0C94C93D0C94C93DFE
:1000A0000C94C93D0C94C93D0C94475B0C94C93D1C
:1000B0000C94C93D0C94295B0C94C93D0C9437DC1D
:1000C0000C94C93D0C94C93D0C94C93D0C94E95A5B
:1000D0000C94C93D0C94C93D0C94C93D0C94C93D88
:1000E0000C94C93D084AD73B3BCE016E84BCBFFD92
:1000F000C12F3D6C74319ABD56833DDA3D00C77FF8
:1001000011BED9E4BB4C3E916BAAAABE0000008090
:100110003F05A84CCDB2D44EB93836A9020C50B91F
:10012000918688083CA6AAAA2ABE000000803F0744
:10013000634236B79BD8A71A39685618AEBAAB5582
:100140008C1D3CB7CC5763BD6DEDFD753EF6177247
:1001500031BF000000803F08000000BE9224491219
:100160003EABAAAA2ABECDCCCC4C3E00000080BE3D
:10017000ABAAAAAA3E00000000BF000000803F001A
:1001800000000000084178D3BB4387D1133D190E0E
:100190003CC3BD4282AD2B3E68EC8276BED98FE176
:1001A000A93E4C80EFFFBE01C4FF7F3F000000006E
:1001B00000000D94D3200D947D2A0D948E200D9473
:1001C000EF170D946F3F0D9466310D9411290D9426
:1001D000E7200C94C3BF0D9477230D940B440C942B
:1001E00028BE0C941CFD0D9458260D944D1A0D94A8
:1001F000761A0D94BD240D94934E0C9494EA0D94AC
:10020000831A0D94064F0D94D0190D9495810D9479
:10021000A6540D94104F0D94933B0D949B1A0C947F
:1002200072C40D94F7530D9493830D94F2170D94AB
:10023000DB370D94621A0D943C4F0D9452310D949E
:10024000D5530D94841A0D949F240D94553F0D940D
:10025000067B0C949CEB0D94744F0C94613E0D94B2
:100260001F7B0D94F71F0D94DE260D9441230D94F2
:100270006A520C947CEB0D947A1A0C9441C00D9444
:10028000961A0D9448310D945E1A0D9401230C9426
:10029000DEEA0D94AA290D942C810D9469200D9409
:1002A00034310D94F1290C9462CA0D94FD200D9403
:1002B000813F0D94844F0D94124E0D94B2880D948D
:1002C0009A2A0D94F7170D94CC4E0D9417160D9491
:1002D000973F0D94D9300D94A8190C94793E0D9444
:1002E0000E510D945A530D948E810D94CC880C941C
:1002F0003ACA0C9462BD0D9401420D947E1A0D947D
:100300007C7B0C944CEB0D94C7270C94BDFE0D9494
:100310004E210D94D9530D94FD8C0D94B8210D945C
:10032000F01F0D94491A0D94784B0D94FA290C94F2
:10033000B1C90D94DF3B0D94712A0D9407210C94E3
:1003400082BD0D94F4290D94AB200C9454EB0D94C4
:1003500004170D944A200C9403BF0D94D8870D9474
:100360005E4F0C94B8CA0D94032A0D94BF200C94D0
:1003700004CB0D943E310C9474EB0D94D4300D9459
:100380001A360D94431A0D946C1A0D9407310D947E
:1003900011310D947DA60D94D3380D948F2A0C94B1
:1003A00084EB0D94C8340D94D1520D9429350D94DD
:1003B000617B0C9471C10D94E23B0D942C470C941D
:1003C0001C510D94D93B0C945CEB0C9441EB0D94B7
:1003D000E5880C9461C40C94B4FE0D94F73B0D9425
:1003E000404F0D941B310D94B94E0C94ACEB0D9411
:1003F000783B0D94364F0D94D7350D94F3200D9422
:1004000010270D94D5520C94D1EA0D94564E0D94AC
:1004100083200D94EA400C94BFBD0D9451400D947F
:10042000A0550C947EC40D9446290C9449CA0D9491
:10043000D03B0D9416470D9498200C9415C30D9441
:100440007B220D94C2240D94EB3B0D94511A0C9415
:10045000A4EB0D94131B0D94772A0D94CF530D9498
:10046000F7290C945DC40D944C210D94ED300D943E
:100470001B290D94FF300D94B8240D94767B0D94B8
:10048000C6240D94EB290D94DB1F0D94E1530C94BD
:100490008CEB0D94BC3A0C9440C40C9494EB0D94EA
:1004A000EE290D94F82A0D94274F0D94F7300D94F2
:1004B00092280D9450250C94ACEA0D94E5270D94E8
:1004C000551A0D94B52C0D94B3240D9439890D94BF
:1004D000C34E0D94CC300D940E1B0D94EC170D945F
:1004E000E21F0C9458C20D9496370D94DD530D9471
:1004F000D7880D9425310D94BDBB0D9459560D949C
:1005000091810C9481BF0C944ABF0D94FB880D948B
:1005100078200C94ABFE0D94DC3B0D942B560C9480
:10052000DBEA0D94AE240D94881A0D94AB2A0D9439
:1005300027890D94A4240C94D4EA0C94AEBE0C9498
:1005400067C20D94C4470D9472810C948EBD0C94B7
:10055000C4C90D94681A0C9444EB0D94E9230C94CF
:1005600049EB0D943E200D94FA240D94F43B0D9428
:100570000D3A0D94E9170D94581A0D9414510D94D9
:10058000003C0D94701A0D94832A0D94A9240D94A7
:10059000A92A0D941E210C940FEB0C946CEB0D9476
:1005A000BA290D945C310C9466BE0D94E91F0D942C
:1005B000A3810D94E3300C9407CA0D9460210D942F
:1005C0009E810C9474C80D94813B0D94894B0D94BD
:1005D0005D200D9484830D94BF210D9404890D94A6
:1005E0008C1A0D94797B0C9464EB6E616E00696ECD
:1005F000660000407A10F35A00A0724E18090010ED
:10060000A5D4E80000E87648170000E40B54020087
:1006100000CA9A3B000000E1F505000080969800B2
:10062000000040420F000000A086010000001027DB
:1006300000000000E803000000006400000000006B
:100640000A00000000000100000000002C76D8889D
:10065000DC674F0823DFC1DFAE59E1B1B796E5E3B0
:10066000E453C63AE651997696E8E6C28426EB89C9
:100670008C9B62ED407C6FFCEFBC9C9F40F2BAA566
:100680006FA5F490055A2AF75C936B6CF9676DC1FE
:100690001BFCE0E40D47FEF520E6B500D0ED902E02
:1006A0000300943577050080841E080000204E0A60
:1006B000000000C80C333333330F986E128311419E
:1006C000EF8D2114893BE65516CFFEE6DB18D18469
:1006D0004B381BF77C1D901DA4BBE4242032847290
:1006E0005E228100C9F124ECA1E53D2758595A202A
:1006F00063616C6962726174696F6E20616C6C20F9
:1007000072696768742E20536B65772077696C6C0B
:1007100020626520636F7272656374656420617521
:10072000746F6D61746963616C6C792E0058595AED
:100730002063616C6962726174696F6E20616C6CB8
:100740002072696768742E20582F5920617865736C
:100750002061726520736C696768746C7920736BB3
:10076000657765642E20476F6F64206A6F62210091
:1007700058595A2063616C6962726174696F6E20A6
:100780006F6B2E20582F5920617865732061726538
:100790002070657270656E646963756C61722E207D
:1007A000436F6E67726174756C6174696F6E7321EB
:1007B0000043726173682064657465637465642EB8
:1007C00000536F6D652070726F626C656D20656E91
:1007D000636F756E74657265642C205A2D6C657636
:1007E000656C696E6720656E666F72636564202E46
:1007F0002E2E004D65736820626564206C657665F9
:100800006C696E67206661696C65642E20506C654A
:100810006173652072756E205A2063616C69627223
:100820006174696F6E2E0058595A2063616C696259
:10083000726174696F6E206661696C65642E205206
:10084000696768742066726F6E742063616C696298
:10085000726174696F6E20706F696E74206E6F7450
:1008600020726561636861626C652E0058595A2078
:1008700063616C6962726174696F6E206661696C34
:1008800065642E2046726F6E742063616C696272BB
:100890006174696F6E20706F696E7473206E6F740F
:1008A00020726561636861626C652E0058595A2038
:1008B00063616C6962726174696F6E206661696CF4
:1008C00065642E20506C6561736520636F6E73756F
:1008D0006C7420746865206D616E75616C2E0058B3
:1008E000595A2063616C6962726174696F6E20632A
:1008F0006F6D70726F6D697365642E2052696768E1
:10090000742066726F6E742063616C6962726174C8
:10091000696F6E20706F696E74206E6F74207265DF
:1009200061636861626C652E0058595A2063616C7E
:100930006962726174696F6E20636F6D70726F6D42
:10094000697365642E2046726F6E742063616C69F2
:1009500062726174696F6E20706F696E7473206E5D
:100960006F7420726561636861626C652E0058590E
:100970005A2063616C6962726174696F6E2066618E
:10098000696C65642E204265642063616C696272E3
:100990006174696F6E20706F696E74207761732067
:1009A0006E6F7420666F756E642E00506C616365A7
:1009B0002061207368656574206F662070617065C2
:1009C0007220756E64657220746865206E6F7A7A25
:1009D0006C6520647572696E672074686520636158
:1009E0006C6962726174696F6E206F6620666972ED
:1009F0007374203420706F696E74732E20496620E2
:100A0000746865206E6F7A7A6C65206361746368C0
:100A10006573207468652070617065722C20706F3A
:100A2000776572206F666620746865207072696EE3
:100A300074657220696D6D6564696174656C792E89
:100A400000536561726368696E6720626564206344
:100A5000616C6962726174696F6E20706F696E7427
:100A600000506C6561736520636C65616E2074680D
:100A700065206E6F7A7A6C6520666F722063616C98
:100A80006962726174696F6E2E20436C69636B20BA
:100A90007768656E20646F6E652E004865617469C5
:100AA0006E672064697361626C656420627920738B
:100AB00061666574792074696D65722E0053544FB8
:100AC000505045442E00504155534544205448450C
:100AD000524D414C204552524F5200472D636F6496
:100AE0006520736C6963656420666F7220612064A1
:100AF0006966666572656E74206C6576656C2E201D
:100B0000506C656173652072652D736C6963652037
:100B1000746865206D6F64656C20616761696E2E15
:100B2000205072696E742063616E63656C6C6564DD
:100B30002E00472D636F646520736C6963656420C4
:100B4000666F72206120646966666572656E7420E6
:100B50006C6576656C2E20436F6E74696E75653FAB
:100B600000472D636F646520736C6963656420665C
:100B70006F722061206E65776572206669726D778D
:100B80006172652E20506C656173652075706461BB
:100B9000746520746865206669726D776172652E70
:100BA000205072696E742063616E63656C6C65645D
:100BB0002E00472D636F646520736C696365642044
:100BC000666F722061206E65776572206669726D4E
:100BD000776172652E20436F6E74696E75653F0094
:100BE000472D636F646520736C6963656420666F6D
:100BF00072206120646966666572656E7420707229
:100C0000696E74657220747970652E20506C656110
:100C100073652072652D736C696365207468652047
:100C20006D6F64656C20616761696E2E205072691A
:100C30006E742063616E63656C6C65642E00472D75
:100C4000636F646520736C6963656420666F7220EE
:100C50006120646966666572656E74207072696E83
:100C600074657220747970652E20436F6E74696E9E
:100C700075653F00507265737320746865206B6EF4
:100C80006F6220746F2070726568656174206E6F8A
:100C90007A7A6C6520616E6420636F6E74696E751C
:100CA000652E00506C6561736520707265737320EA
:100CB000746865206B6E6F6220746F20756E6C6F48
:100CC00061642066696C616D656E7400616E64209C
:100CD000707265737320746865206B6E6F62004973
:100CE0006E736572742066696C616D656E74004325
:100CF0006F6C6F72206E6F7420636F7272656374B5
:100D00000046696C616D656E74206E6F74206C6F47
:100D100061646564004368616E67656420636F7237
:100D2000726563746C793F004C6F6164696E672013
:100D3000636F6C6F72004368616E676520737563E3
:100D4000636573732100506C65617365206F706516
:100D50006E2069646C657220616E642072656D6FCF
:100D600076652066696C616D656E74206D616E7567
:100D7000616C6C792E005761732066696C616D65DA
:100D80006E7420756E6C6F61642073756363657338
:100D90007366756C3F00506C656173652075706794
:100DA000726164652E004E6577206669726D7761A9
:100DB00072652076657273696F6E20617661696C09
:100DC00061626C653A0057616974696E6720666F8D
:100DD000722050494E44412070726F626520636FEB
:100DE0006F6C696E6700506C65617365207761692F
:100DF00074004E6F206D6F76652E00576169742008
:100E0000666F7220757365722E2E2E00506C6561B0
:100E100073652072656D6F766520737465656C20EF
:100E200073686565742066726F6D206865617462B1
:100E300065642E00537461626C6520616D62696542
:100E40006E742074656D70657261747572652032A0
:100E5000312D323643206973206E656564656420E8
:100E600061207269676964207374616E64206973BC
:100E70002072657175697265642E00506C656173CE
:100E8000652072756E2058595A2063616C696272D0
:100E90006174696F6E2066697273742E00555341D8
:100EA0005254322072782046756C6C2121210053F7
:100EB000657474696E67732053746F72656400544F
:100EC0004D3A2073746F7265642063616C6962725D
:100ED0006174696F6E20696E76616C69642C207232
:100EE0006573657474696E670053746F726564200E
:100EF00073657474696E6773207265747269657660
:100F000065640048617264636F646564204465666B
:100F100061756C742053657474696E6773204C6FCF
:100F20006164656400563200000000C8420000C8D9
:100F3000420000C84300008C4300004843000048C2
:100F400043000040410000F042E8030000E80300D5
:100F500000C80000008813000000409C4400409C32
:100F6000440000000000000000204E0000000020AF
:100F70004100002041CDCCCC3E000090400000005C
:100F8000000000000000000000CDCCCC3E3D0A81F6
:100F900041FF08433EB099AB438F42FC42E65A34CE
:100FA0003F4C62B045000000000040400000344269
:100FB000000000000000000000000041000000E010
:100FC0003F0000C8420000C842000040410000F05D
:100FD00042C0030000C0030000C8000000881300E6
:100FE000001010102000409C440000803F000000D2
:100FF0003F1914000000CDCCCC3D0AD7233C17B7D5
:10100000D13877CC2B329595E6241FB14F0A0000DA
:1010100020410000C84200401C4620BCBE4CCA1BF8
:101020000E5AAEC59D744E414E494E466275737957
:101030003A2070617573656420666F7220696E7006
:10104000757400627573793A2070617573656420F8
:10105000666F72207573657200627573793A2070DD
:10106000726F63657373696E67000000524300001E
:1010700043430000434300000000000080C09A99F1
:10108000193E00000000000080C09A99193E00003F
:10109000A0400000A040000000402533642073748D
:1010A00065703D253264206D73636E743D25346434
:1010B0000A0000005243000047439AD94243FFFF11
:1010C000FF20413A0020503A002042403A002040A0
:1010D0003A00202F002054303A00202F0020423ABE
:1010E00000202F00543A00255345786365737369D7
:1010F000766520626564206C6576656C696E672034
:10110000636F7272656374696F6E3A202569206D32
:101110006963726F6E730A00426564206C65766560
:101120006C696E67206661696C65642E20546F6F10
:10113000206D75636820766172696174696F6E20D5
:1011400066726F6D20656570726F6D206D65736876
:1011500000426564206C6576656C696E6720666127
:10116000696C65642E2053656E736F7220747269AA
:1011700067676572656420746F6F20736F6F6E00B0
:101180002020004D6561737572656420706F696E13
:1011900074733A005A2073656172636820686569E8
:1011A0006768743A20352E3066004E756D20582CD5
:1011B000593A20372C37004D6573682062656420EA
:1011C0006C6576656C696E67206E6F742061637400
:1011D0006976652E00000043616C63756C6174650F
:1011E000206F666673657420616E6420736B65772B
:1011F0002072657475726E696E6720726573756CA6
:10120000743A000000292C206572726F723A200037
:101210002C2000293B207461726765743A202800F5
:101220002C2000293B206D656173757265642D6308
:101230006F727265637465643A2028002C20006D1B
:10124000656173757265643A202800706F696E7409
:10125000202300446966666572656E636520616679
:1012600074657220636F7272656374696F6E3A2081
:1012700000002C200063656E7465722C2061646A26
:1012800075737465643A2000002C2000592076653F
:1012900063746F722C2061646A75737465643A209C
:1012A00000002C20005820766563746F722C20613A
:1012B000646A75737465643A200000636E74725BCF
:1012C000315D3A0000636E74725B305D3A004669CE
:1012D0006E616C20636E74722076616C7565733A12
:1012E0000000000077793A0000636E74725B315D34
:1012F0003A00005765696768745F793A000077784B
:101300003A0000636E74725B305D3A0000576569A5
:101310006768745F783A000056657279206C69746A
:10132000746C6520736B65772064657465637465A0
:10133000642E204F7274686F676F6E616C697A6992
:101340006E672074686520617865732E00004D61BA
:10135000782E206572726F72206575636C6964699E
:10136000616E3A004D61782E206572726F7220595D
:101370003A004D61782E206572726F7220583A00E3
:101380004D61782E206572726F72733A0000002CE6
:10139000206572726F7220593A20002C206572729B
:1013A0006F7220583A20006572726F723A200029DD
:1013B000002C2000293B207461726765743A202854
:1013C000002C2000293B20636F7272656374656492
:1013D0003A2028002C20006D656173757265643AAF
:1013E000202800002C206572726F72203E206D61F3
:1013F000782E206572726F72206575636C696469FE
:10140000616E00506F696E74206E6F74206F6E2075
:10141000666972737420726F77003A00706F696E3C
:10142000742023004572726F7220616674657220A9
:10143000636F7272656374696F6E3A2000002C20CE
:101440000063656E746572206E65772C20696E7618
:1014500065727465643A2000002C2000592076657E
:1014600063746F72206E65772C20696E7665727476
:1014700065643A2000002C20005820766563746F64
:1014800072206E65772C20696E7665727465643A99
:101490002000002C2000636F7272656374696F6EA8
:1014A00020616E676C65733A2000002C2000636F2A
:1014B0007272656374656420616E676C65733A204F
:1014C00000002C2000636F7272656374656420787D
:1014D0002F793A2000002C20002C20002C20003BEB
:1014E00020636F7272656374696F6E2076656374D2
:1014F0006F723A2000697465726174696F6E3A2088
:101500000000292C206572726F723A20002C200096
:10151000293B207461726765743A2028002C2000F2
:10152000206D656173757265643A202800706F697B
:101530006E74202300002C200063656E7465722C8D
:1015400020696E697469616C3A2000002C20005992
:1015500020766563746F722C20696E697469616CA2
:101560003A2000002C20005820766563746F722C9E
:1015700020696E697469616C3A200063616C6375FF
:101580006C617465206D616368696E6520736B655D
:101590007720616E64206F6666736574204C53001B
:1015A0004D6561737572652063656E746572202088
:1015B0000078797A63616C5F6D6561737572655FE0
:1015C000656E7465720A0078797A63616C5F737016
:1015D0006972616C382063783D25642063793D250C
:1015E00064207A303D256420647A3D256420726150
:1015F000646975733D25642061643D25640A007843
:10160000797A63616C5F7365617263685A206E6F8B
:10161000207369676E616C0A20783D256C642079BF
:101620003D256C64207A3D256C640A00204F4E2DC8
:101630005349474E414C20617420783D2564207900
:101640003D2564207A3D25642061643D25640A00BF
:1016500078797A63616C5F7365617263685A207828
:101660003D256C6420793D256C64207A3D256C64B1
:101670000A002530327800205B25662025665D2033
:101680006D6D207061747465726E2063656E746533
:10169000720A00205B25662025665D5B25665D205D
:1016A0006D6D20646976657267656E63650A00001A
:1016B00000F000F801FC03FE07FE07FE07FE07FC32
:1016C00003F801F000000000000000F000F801FC49
:1016D00003FC03FC03FC03F801F0000000000078A9
:1016E000797A63616C5F6D6561737572655F6C6556
:1016F0006176650A00536176696E672062656420D1
:1017000063616C6962726174696F6E20766563747F
:101710006F727320746F20454550524F4D005065D5
:101720007270656E646963756C6172697479005A70
:1017300065726F20706F696E7420636F727265637B
:1017400074696F6E3A005920766563746F72206C0D
:10175000656E6774683A005820766563746F72200E
:101760006C656E6774683A00203C20005741524E09
:10177000494E473A2046726F6E7420706F696E74DE
:10178000206E6F7420726561636861626C652E20E3
:101790005920636F6F7264696E6174653A000070FE
:1017A000745B315D3A0070745B305D3A00004D65EA
:1017B0006173757265643A000063757272656E7468
:1017C0005F706F736974696F6E5B5A5F41584953FC
:1017D0005D3A000063757272656E745F706F736955
:1017E00074696F6E5B595F415849535D3A000063FD
:1017F000757272656E745F706F736974696F6E5B1A
:10180000585F415849535D3A00417420592D3400C6
:1018100041742059300025642F340000636E7472C7
:101820005B315D3A0000636E74725B305D3A0000BC
:101830007665635F795B315D3A00007665635F7959
:101840005B305D3A00007665635F785B315D3A003E
:10185000007665635F785B305D3A00566563746F50
:1018600072733A2000497465726174696F6E3A2030
:101870000043616C6962726174696F6E20666169B0
:101880006C65642120436865636B20746865206122
:1018900078657320616E642072756E20616761697E
:1018A0006E2E0020453A00205A3A0020593A002076
:1018B000453A00205A3A0020593A00583A00202D63
:1018C0003E200053706F6F6C4A6F696E3A20002C97
:1018D00020006673656E736F722076302E34206937
:1018E0006E206661756C742072616E676520342E9F
:1018F000362D3556202D20756E636F6E6E656374C0
:101900006564006673656E736F7220696E20666F22
:101910007262696464656E2072616E676520312E43
:10192000352D3356202D20636865636B2073656EFB
:10193000736F7200496E61637469766974792053BC
:10194000687574646F776E004B494C4C45442E00AB
:101950005072696E7465722068616C7465642E20C3
:101960006B696C6C28292063616C6C656421005A7A
:10197000206C6976652061646A757374206F757474
:10198000206F662072616E67652E205365747469DE
:101990006E6720746F20302E20436C69636B207457
:1019A0006F20636F6E74696E75652E005A206C69C6
:1019B00076652061646A757374206F7574206F6634
:1019C0002072616E67652E2053657474696E67209E
:1019D000746F20300020453A3020423A00543A00DB
:1019E0004731205A252D2E33662046252D2E33666D
:1019F00000496E76616C6964205420636F64652EC3
:101A0000004475706C696361746520542D636F6464
:101A1000652069676E6F7265642E00416476616E41
:101A20006365204B3D004B206F7574206F6620610D
:101A30006C6C6F7765642072616E676521004D4B39
:101A40003353004D4B33534D4D5533005E762E01CD
:101A50002533642F2533640025336400200A200ACF
:101A6000200025534172632053657474696E677357
:101A70003A20503A4D6178206C656E677468286D25
:101A80006D2920533A4D696E206C656E677468202D
:101A9000286D6D29204E3A436F7272656374696FC9
:101AA0006E7320523A4D696E207365676D656E7472
:101AB0007320463A5365676D656E74732F73656363
:101AC0002E0A255320204D3231342050252E3266E7
:101AD0002053252E3266204E256420522564204650
:101AE00025640A00255346696C616D656E74207328
:101AF000657474696E67733A2044697361626C65DA
:101B0000640A00255346696C616D656E74207365C7
:101B10007474696E67733A0A25532020204D323061
:101B2000302044252E32660A0025535265747261B6
:101B300063743A20533D4C656E67746820286D6D60
:101B40002920463A537065656420286D6D2F6D29F4
:101B5000205A3A205A4C69667420286D6D290A254E
:101B6000532020204D3230372053252E3266204618
:101B7000252E3266205A252E32660A255352656379
:101B80006F7665723A20533D4578747261206C65BA
:101B90006E67746820286D6D2920463A537065651C
:101BA0006420286D6D2F6D290A25532020204D3289
:101BB00030382053252E32662046252E32660A25DF
:101BC000534175746F2D526574726163743A20537A
:101BD0003D3020746F2064697361626C652C203124
:101BE00020746F20696E74657270726574206578F8
:101BF00074727564652D6F6E6C79206D6F76657388
:101C0000206173207265747261637473206F722037
:101C10007265636F7665726965730A2553202020AB
:101C20004D323039205325640A0025535049442051
:101C3000686561746265642073657474696E677346
:101C40003A0A25532020204D3330342050252E329F
:101C5000662049252E32662044252E32660A00254C
:101C6000535049442073657474696E67733A0A254A
:101C7000532020204D3330312050252E326620490C
:101C8000252E32662044252E32660A0025535374D1
:101C90006570732070657220756E69743A0A2553F9
:101CA00020204D39322058252E32662059252E32DB
:101CB00066205A252E32662045252E32660A255387
:101CC0005553746570207265736F6C7574696F6EAF
:101CD0003A200A2553204D333530205825642059A9
:101CE0002564205A2564204525640A25534D6178D2
:101CF000696D756D20666565647261746573202D0C
:101D0000206E6F726D616C20286D6D2F73293A0AF9
:101D1000255320204D3230332058252E326620594D
:101D2000252E3266205A252E32662045252E326613
:101D30000A25534D6178696D756D2066656564721D
:101D400061746573202D20737465616C746820283C
:101D50006D6D2F73293A0A255320204D32303320E0
:101D600058252E32662059252E3266205A252E32CD
:101D7000662045252E32660A25534D6178696D75BA
:101D80006D20616363656C65726174696F6E202D8F
:101D9000206E6F726D616C20286D6D2F7332293A41
:101DA0000A255320204D3230312058256C7520599A
:101DB000256C75205A256C752045256C750A2553B0
:101DC0004D6178696D756D20616363656C657261E5
:101DD00074696F6E202D20737465616C746820289F
:101DE0006D6D2F7332293A0A255320204D32303140
:101DF0002058256C752059256C75205A256C752046
:101E000045256C750A2553416363656C6572617481
:101E1000696F6E3A20503D7072696E742C20523D8D
:101E2000726574726163742C20543D7472617665BE
:101E30006C0A255320204D3230342050252E326636
:101E40002052252E32662054252E32660A25534113
:101E50006476616E636564207661726961626C6547
:101E6000733A20533D4D696E2066656564726174F6
:101E70006520286D6D2F73292C20543D4D696E20EF
:101E800074726176656C2066656564726174652044
:101E9000286D6D2F73292C20423D6D696E696D751B
:101EA0006D207365676D656E742074696D6520289B
:101EB0007573292C20583D6D6178696D756D2058BA
:101EC00059206A65726B20286D6D2F73292C202094
:101ED0005A3D6D6178696D756D205A206A65726B27
:101EE00020286D6D2F73292C2020453D6D61786968
:101EF0006D756D2045206A65726B20286D6D2F739E
:101F0000290A255320204D3230352053252E3266A4
:101F10002054252E32662042256C752058252E32FD
:101F2000662059252E3266205A252E3266204525F8
:101F30002E32660A2553486F6D65206F666673659D
:101F40007420286D6D293A0A255320204D323036F1
:101F50002058252E32662059252E3266205A252EED
:101F600032660A00544D3A20525B25755D20657338
:101F700074696D61742E00544D3A2025532052200F
:101F800025644300544D3A20255320432065737443
:101F90002E00544D3A20636F6F6C20646F776E2073
:101FA0003C25644300726566696E6500696E6974FC
:101FB00069616C00544D3A2063616C6962722E2035
:101FC0006661696C65642100544D3A2063616C69F7
:101FD00062726174696F6E20737461727400544D23
:101FE0003A2043616C2E204E4F542049444C45000A
:101FF0004361703A25533A25630A005052555341C4
:102000005F4D4D553200455854454E4445445F4D53
:102010003230004155544F5245504F52545F504F4B
:10202000534954494F4E004155544F5245504F5219
:10203000545F46414E53004155544F5245504F5204
:10204000545F54454D50000044656C6574696F6E73
:10205000206661696C65642C2046696C653A2000D5
:1020600046696C652064656C657465643A004E6F02
:1020700074205344207072696E74696E67005072E8
:10208000696E7420736176656400534420707269D0
:102090006E7420706175736564002533642F253379
:1020A00064004F4B004241440052414D426F204674
:1020B000414E20006676007468780050524E00430E
:1020C000524153485F43414E43454C0043524153B4
:1020D000485F5245434F5645520043524153485F73
:1020E0005245434F56455200222832290025533A83
:1020F0002025530A002C204D3930372045206967B0
:102100006E6F726564006E6F2076616C6964206327
:102110006F6D6D616E64007A65726F72697A656465
:1021200000666163746F727920726573746F726593
:102130006400696E6465782C2074656D702C207560
:10214000737465702C20756D0050494E44412063B6
:10215000616C207374617475733A2000503A0057B3
:1021600061697420666F722050494E444120746149
:10217000726765742074656D7065726174757265DF
:102180003A00204100205000204200204C00205204
:1021900000205A00204E4F5420494E495449414C8A
:1021A000495A45440053686565742000205A2056FA
:1021B000414C5545204F5554204F462052414E47E3
:1021C0004500496E76616C696420736865657420AA
:1021D00049442E20416C6C6F7765643A20302E2E76
:1021E000004155544F004C414E472053454C20462A
:1021F0004F524345440020643A0020693A00207061
:102200003A0020643A0020693A0020703A002569BB
:1022100025250A00256925250A0022283129002FB5
:102220002F0030303030303030302D303030302DE5
:10223000303030302D303030302D303030303030A4
:102240003030303030300020555549443A00204578
:10225000585452554445525F434F554E543A3100FD
:102260005072757361206933204D4B335300204DFC
:10227000414348494E455F545950453A00312E304C
:1022800000206261736564206F6E204D61726C691D
:102290006E204649524D574152455F55524C3A685F
:1022A000747470733A2F2F6769746875622E636F48
:1022B0006D2F707275736133642F50727573612D59
:1022C0004669726D776172652050524F544F434F8B
:1022D0004C5F56455253494F4E3A004649524D576E
:1022E0004152455F4E414D453A50727573612D46DE
:1022F00069726D7761726520004D31313320530072
:102300006F6B20006E2F61003F546F7368696261CC
:1023100020466C617368416972204765744950209A
:102320006661696C65640A00000125311D0C40245A
:10233000301C0B45232F1B0A17FF0406222B1A0300
:10234000363735382569206D696E2C202569207354
:10235000656300496E76616C6964204D20636F642B
:10236000653A2025730A0050494E44412070726F2F
:1023700062652063616C6962726174696F6E20735B
:1023800074617274004E6F2050494E44412074684D
:1023900065726D6973746F7200736574006E6F7A25
:1023A0007A6C65004D424C004652004C7A004C61FC
:1023B0006E6700315F37356D6D5F4D4B33532D4583
:1023C000494E53795F3130612D4533447636667519
:1023D0006C6C0052657600332E31332E302D524313
:1023E000312D363835330046697200534E20696E00
:1023F00076616C696400534E005245534554004D5C
:102400004D555245530075766C6F0046414E00465F
:10241000414E50494E54535400505255534100536D
:1024200045545F43484F505F005345545F535445F4
:10243000505F005345545F574156455F00544D432C
:102440005F0043524153485F43414E43454C004374
:10245000524153485F5245434F5645520043524103
:1024600053485F4445544543544544004352415307
:10247000485F00256C7520627974657320777269F6
:102480007474656E20746F2025532061742061641C
:1024900064726573732030782530346C780A004498
:1024A0002564202D20526561642F57726974652060
:1024B00025530A004D6561737572656420736B6501
:1024C00077733A2025662025660A00466974746988
:1024D0006E67206661696C6564203D3E2063616CB7
:1024E0006962726174696F6E206661696C65642EE1
:1024F0000A0043616C6962726174696F6E20737562
:1025000063636573732E0A00416C6C203420636131
:102510006C6962726174696F6E20706F696E74733A
:1025200020666F756E642E0A00312F3400312F340F
:1025300000312F390020436F756E7420583A200007
:1025400045303A25642052504D2050524E313A25A4
:10255000642052504D204530403A25752050524E4F
:1025600031403A25750A00526573656E6400255343
:102570003A20256C640A25530A005072696E74650E
:10258000722073746F707065642064756520746F59
:10259000206572726F72732E205375706572766942
:1025A00073696F6E2072657175697265642E00645F
:1025B000756D7020636C65617265640A006E6F20D2
:1025C00064756D7020617661696C61626C650A008A
:1025D000443231202D20726561642063726173681A
:1025E0002064756D700A006E6F2064756D702061D7
:1025F0007661696C61626C650A0064756D70206358
:102600006F6D706C6574656420696E20256C756DE6
:10261000730A0058464C41534800454550524F4DAF
:10262000005352414D00442D31202D20456E646CE5
:10263000657373206C6F6F700A004163746976650F
:102640002045787472756465723A203000496E7660
:10265000616C6964206578747275646572005344B6
:10266000207072696E74696E6720627974652000EB
:10267000257500556E6B6E6F776E20636F6D6D61A3
:102680006E643A2022004D32303020496E76616C03
:10269000696420657874727564657220007A5F6D74
:1026A00061783A20007A5F6D696E3A2000795F6D3B
:1026B00061783A2000795F6D696E3A2000785F6D2D
:1026C00061783A2000545249474745524544006FCB
:1026D00070656E00785F6D696E3A20005265706FAC
:1026E0007274696E6720656E6473746F70207374A2
:1026F000617475730053494C454E54004E4F524D12
:10270000414C002553204D4F44453A20506572639B
:10271000656E7420646F6E653A20256868643B209E
:102720007072696E742074696D652072656D61697F
:102730006E696E6720696E206D696E733A2025643C
:102740003B204368616E676520696E206D696E731A
:102750003A2025640A00456E642066696C65206C29
:1027600069737400426567696E2066696C65206CE8
:1027700069737400556E6B6E6F776E2025632063EE
:102780006F64653A2025730A000A50494E4441207F
:1027900074656D70657261747572653A20252E31AD
:1027A00066205A20736869667420286D6D293A2066
:1027B000252E3366000A537465703A2025642F363F
:1027C0000A000A537465703A2025642F3620287356
:1027D0006B6970706564290A50494E4441207465E4
:1027E0006D70657261747572653A202564205A2097
:1027F000736869667420286D6D293A300A000A5A98
:1028000045524F3A20252E33660A00737461727464
:102810002074656D70657261747572653A20252E3D
:1028200031660A0025642020252E326600255320BB
:10283000583A20252E356620593A20252E35662017
:102840005A3A20252E35660A00536C6565702E2E87
:102850002E0045303A25642052504D0A50524E30D9
:102860003A25642052504D0A00556E6578706563B4
:10287000746564206572726F72206F636375727223
:1028800065642E004D3630302046696C616D656E92
:1028900074204368616E67652E204C6F616420610F
:1028A000206E65772066696C616D656E74206F724D
:1028B00020656A65637420746865206F6C64206F9E
:1028C0006E652E0052656D6F7665207468652065B3
:1028D0006A65637465642066696C616D656E7420F9
:1028E00066726F6D207468652066726F6E74206FFB
:1028F0006620746865204D4D552E0046696C616DEB
:10290000656E7420646574656374656420756E65B6
:10291000787065637465646C792E20456E7375728A
:1029200065206E6F2066696C616D656E74206973D9
:10293000206C6F616465642E20436865636B20744E
:1029400068652073656E736F727320616E642077A3
:102950006972696E672E00496E7465726E616C20D3
:1029600072756E74696D65206572726F722E205477
:10297000727920726573657474696E672074686516
:10298000204D4D55206F72207570646174696E67BB
:1029900020746865206669726D776172652E004DDE
:1029A0004D552046572076657273696F6E206973A6
:1029B00020696E636F6D70617469626C6520776900
:1029C0007468207072696E7465722046572E557057
:1029D0006461746520746F2076657273696F6E2010
:1029E000332E302E312E004D4D55204669726D77B5
:1029F00061726520696E7465726E616C20657272B9
:102A00006F722C20706C65617365207265736574DC
:102A100020746865204D4D552E00526571756573A3
:102A20007465642066696C616D656E7420746F6F87
:102A30006C206973206E6F7420617661696C6162CD
:102A40006C65206F6E2074686973206861726477AA
:102A50006172652E20436865636B2074686520474A
:102A60002D636F646520666F7220746F6F6C2069D0
:102A70006E646578206F7574206F662072616E6772
:102A800065202854302D5434292E0043616E6E6F1A
:102A90007420706572666F726D2074686520616362
:102AA00074696F6E2C2066696C616D656E74206947
:102AB0007320616C7265616479206C6F6164656418
:102AC0002E20556E6C6F6164206974206669727384
:102AD000742E004D4D55206E6F7420726573706FAB
:102AE0006E64696E6720636F72726563746C792EB1
:102AF00020436865636B2074686520776972696E2E
:102B00006720616E6420636F6E6E6563746F7273AD
:102B10002E004D4D55206E6F7420726573706F6E70
:102B200064696E672E20436865636B207468652056
:102B3000776972696E6720616E6420636F6E6E657F
:102B400063746F72732E004D6F72652064657461DB
:102B5000696C73206F6E6C696E652E005468652019
:102B600049646C65722063616E6E6F7420686F6D6E
:102B7000652070726F7065726C792E204368656392
:102B80006B20666F7220616E797468696E6720626F
:102B90006C6F636B696E6720697473206D6F766507
:102BA0006D656E742E0043616E2774206D6F7665BF
:102BB0002053656C6563746F72206F722049646C7A
:102BC00065722E005468652053656C6563746F727E
:102BD0002063616E6E6F7420686F6D652070726F18
:102BE0007065726C792E20436865636B20666F7226
:102BF00020616E797468696E6720626C6F636B69BF
:102C00006E6720697473206D6F76656D656E742EC6
:102C1000004C6F6164696E6720746F206578747210
:102C200075646572206661696C65642E20496E73F7
:102C300070656374207468652066696C616D656E8B
:102C400074207469702073686170652E2052656607
:102C5000696E65207468652073656E736F7220639A
:102C6000616C6962726174696F6E2C206966206E96
:102C700065656465642E0053656C6563746F7220CE
:102C800063616E2774206D6F7665206475652074AE
:102C90006F2046494E444120646574656374696ED3
:102CA0006720612066696C616D656E742E204D61D0
:102CB0006B652073757265206E6F2066696C616D3F
:102CC000656E7420697320696E2053656C6563744A
:102CD0006F7220616E642046494E444120776F72C6
:102CE0006B732070726F7065726C792E0046696C20
:102CF000616D656E742073656E736F722074726996
:102D000067676572656420746F6F206561726C79A6
:102D1000207768696C65206C6F6164696E672074E8
:102D20006F2065787472756465722E2043686563E0
:102D30006B2074686572652069736E277420616EFC
:102D4000797468696E6720737475636B20696E208F
:102D50005054464520747562652E20436865636B48
:102D600020746861742073656E736F722072656180
:102D700064732070726F7065726C792E0050756C80
:102D80006C6579206D6F746F72207374616C6C6503
:102D9000642E20456E7375726520746865207075A9
:102DA0006C6C65792063616E206D6F766520616E55
:102DB0006420636865636B20746865207769726955
:102DC0006E672E0046696C616D656E742073656E6A
:102DD000736F72206469646E2774207377697463FB
:102DE00068206F6666207768696C6520756E6C6F09
:102DF0006164696E672066696C616D656E742E2012
:102E0000456E737572652066696C616D656E7420C0
:102E100063616E206D6F766520616E6420746865F5
:102E20002073656E736F7220776F726B732E00461E
:102E3000696C616D656E742073656E736F7220646A
:102E400069646E2774207472696767657220776899
:102E5000696C65206C6F6164696E672074686520B9
:102E600066696C616D656E742E20456E7375726552
:102E7000207468652073656E736F722069732063B8
:102E8000616C6962726174656420616E642074684B
:102E9000652066696C616D656E742072656163683A
:102EA00065642069742E0046494E4441206469647B
:102EB0006E277420737769746368206F6666207765
:102EC00068696C6520756E6C6F6164696E672066F9
:102ED000696C616D656E742E2054727920756E6C0C
:102EE0006F6164696E67206D616E75616C6C792EBF
:102EF00020456E737572652066696C616D656E74D0
:102F00002063616E206D6F766520616E6420464996
:102F10004E444120776F726B732E0046494E4441F8
:102F2000206469646E277420747269676765722013
:102F30007768696C65206C6F6164696E672074687E
:102F4000652066696C616D656E742E20456E7375C3
:102F50007265207468652066696C616D656E7420A9
:102F600063616E206D6F766520616E642046494E08
:102F7000444120776F726B732E0044697361626CF9
:102F8000650053746F7000456A656374004C6F612F
:102F90006400556E6C6F61640052657365744D4DCD
:102FA0005500526574727900426564206C657665DF
:102FB0006C696E67206661696C65642E2053656E6E
:102FC000736F72206469646E277420747269676716
:102FD00065722E20446562726973206F6E206E6F79
:102FE0007A7A6C653F2057616974696E6720666FF5
:102FF000722072657365742E004D65617375726918
:103000006E67207265666572656E636520686569C6
:10301000676874206F662063616C696272617469AD
:103020006F6E20706F696E740053656E736974699A
:103030007669747900446F6E65005265636F7665DA
:1030400072696E67207072696E7400544845524D03
:10305000414C20414E4F4D414C5900526573756DA6
:10306000696E67207072696E740050494E44412049
:1030700048656174696E670043616C69627261746E
:10308000696F6E20646F6E650043616C6962726186
:1030900074696E67205A0042656420646F6E650033
:1030A0004265642048656174696E670048656174B3
:1030B000696E6720646F6E652E0048656174696E85
:1030C00067004D4D5520706F776572206661696CA1
:1030D00073004D4D55206C6F6164206661696C739F
:1030E000004D4D55206661696C73004D61746572C9
:1030F00069616C206368616E67657300546F746109
:103100006C206661696C75726573004372617368E7
:103110000046696C2E2072756E6F75747300506F67
:10312000776572206661696C75726573004C6173B6
:1031300074207072696E74206661696C7572657353
:1031400000546F74616C004C617374207072696E0E
:103150007400416D6269656E7400566F6C746167CE
:1031600065730054656D7065726174757265730086
:1031700042656C74207374617475730053656E736B
:103180006F7220696E666F0045787472756465723F
:1031900020696E666F0058595A2063616C2E206456
:1031A000657461696C73005072696E746572204950
:1031B0005020416464723A00756E6B6E6F776E00DA
:1031C0004D4D5520636F6E6E656374656400446198
:1031D00074653A00746F20756E6C6F616420666967
:1031E0006C616D656E7400746F206C6F6164206635
:1031F000696C616D656E74005072657373207468DC
:1032000065206B6E6F620050726568656174696EEF
:103210006720746F2063757400507265686561740F
:10322000696E6720746F20656A656374005072650B
:1032300068656174696E6720746F20756E6C6F616C
:10324000640050726568656174696E6720746F20F0
:103250006C6F616400436F6F6C646F776E004669DA
:103260006C616D656E7420657874727564696E67E3
:103270002026207769746820636F727265637420FA
:10328000636F6C6F723F004175746F6C6F6164693E
:103290006E672066696C616D656E7420697320616C
:1032A00063746976652C206A757374207072657317
:1032B0007320746865206B6E6F6220616E64206994
:1032C0006E736572742066696C616D656E742E2E06
:1032D0002E005072696E742074696D650046696CC9
:1032E000616D656E74207573656400546F74616CF4
:1032F000207072696E742074696D6500546F74611A
:103300006C2066696C616D656E74005072656865ED
:10331000617420746865206E6F7A7A6C652100454F
:1033200052524F523A005269676874004C65667495
:1033300000592064697374616E63652066726F6DF5
:10334000206D696E0053657665726520736B6577D5
:1033500000536C6967687420736B6577004D656115
:10336000737572656420736B6577005B303B305D0D
:1033700020706F696E74206F6666736574004164B7
:103380006A757374696E67205A004D494E54454DF5
:103390005020424544206669786564004D494E548A
:1033A000454D5020484F54454E4420666978656429
:1033B00000252E3130532000253464004578726595
:1033C0006D65207370616E206F6620746865205A89
:1033D0002076616C756573210025642F39004D4D91
:1033E00055323A00253364001801041904071B2FD5
:1033F000A72E2F2EC42D7D2DED2C772C112CC42B18
:10340000A62B5C2BA62B472B472B472B472B472B59
:10341000472B472B472B472B472B472B472B472B1C
:10342000472B472B472B472B472B472B472B472B0C
:10343000472B122BD32A8B2A1A2AE7299F2957298F
:10344000FB28C42884286928010101010101010227
:1034500071017101323232030303030303030303D7
:103460000303030303030303030393932438039326
:103470000301025603650066006700680069006A80
:10348000006B006C00730074007D007E00C900D3E7
:1034900000DD00CA00D400DE002D01370141012EFD
:1034A00001380142012F013901430130013A014441
:1034B0000131013B014501320191019201F501F613
:1034C00001F701F801F901FA01FB01FC018403A2F3
:1034D0002F3530992F922F8D2F872F8561822F7A4C
:1034E0002F252E3230530A70727573612E696F2F3B
:1034F00030342568750020557067726164696E67A5
:103500002078666C6173680A20446F206E6F7420A7
:10351000646973636F6E6E6563742100773235780A
:103520003230636C5F63666D0A0077323578323013
:10353000636C5F656E7465720A0073746172740AFD
:10354000007265636F7665725F6D616368696E6551
:103550005F73746174655F61667465725F706F77C5
:1035600065725F70616E69632C20696E6974696150
:103570006C200050525553412075766C6F004734D3
:10358000205330004D32362053256C75004D3130BC
:10359000362053257500473120462564004D3832CA
:1035A000004739322045252D2E3366004D32303408
:1035B0002050252D2E31662052252D2E3166205487
:1035C000252D2E3166004731205A252D2E336600D9
:1035D0005052555341204D424C2056310047312026
:1035E00058252D2E33662059252D2E33662046333F
:1035F00030303000506F736974696F6E207265618E
:10360000642066726F6D20656570726F6D3A002C74
:1036100020666565646D756C7469706C793A0046F6
:10362000656564726174653A00473120453520460E
:10363000313230004D31303920532564004D313462
:103640003020532564004D31303420532564004729
:10365000323820582059004731205A252E33662011
:10366000463830300024F4D43050C38E20C2A240FB
:1036700017828B7011127A910D816CD90AA861E1C1
:1036800008C7586607615143061E4B5D05C145A733
:10369000041A411104093D9803713931034036DBA6
:1036A0000265339102D4305402802E1D02632CEE49
:1036B00001752AC501B028A001102781018F25645A
:1036C000012B244B01E0223401AC211F018D200D80
:1036D00001801FFC00841EED00971DDF00B81CD286
:1036E00000E61BC600201BBC00641AB200B219A879
:1036F000000A19A0006A189900D117910040178B91
:1037000000B516840031167E00B31579003A1573A2
:1037100000C7146F0058146A00EE13660088136324
:103720000025135E00C7125B006C1257001512547F
:1037300000C111510070114F0021114B00D61049EA
:10374000008D1047004610440002104200C00F4098
:1037500000800F3E00420F3C00060F3B00CB0E38AE
:1037600000930E37005C0E3500270E3400F30D3247
:1037700000C10D3100900D3000600D2E00320D2D76
:1037800000050D2C00D90C2B00AE0C2900850C294E
:10379000005C0C2700350C27000E0C2600E80B24DB
:1037A00000C40B2400A00B23007D0B23005A0B2127
:1037B00000390B2100180B2000F80A1F00D90A1E3F
:1037C00000BB0A1E009D0A1D00800A1D00630A1C22
:1037D00000470A1B002C0A1B00110A1A00F7091ADD
:1037E00000DD091900C4091900AB09190092091775
:1037F000007B091800630917004C091600360916EA
:1038000000200916000A091500F5081500E0081443
:1038100000CC081400B8081400A408140090081381
:10382000007D0812006B08130058081200460812A9
:1038300000340811002308110012081100010811BA
:1038400000F0071000E0071000D0071000C00710BC
:1038500000B0070F00A107100091070E0083070FAB
:103860000074070F0065070E0057070E0049070E8A
:10387000003B070D002E070E0020070D0013070D5B
:103880000006070D00F9060C00ED060D00E0060C21
:1038900000D4060C00C8060C00BC060C00B0060CD8
:1038A00000A4060B0099060C008D060B0082060B87
:1038B0000077060B006C060B0061060A0057060B2A
:1038C000004C060A0042060A0038060A002E060AC4
:1038D0000024060A001A060A001006090007060A54
:1038E00000FD050900F4050900EB050900E20509E2
:1038F00000D9050900D0050900C7050900BE050962
:1039000000B5050800AD050800A50509009C0508DF
:1039100000940508008C050800840508007C050853
:1039200000740508006C050700650508005D0507C3
:1039300000560508004E050700470507004005082A
:103940000038050700310507002A05070023050791
:10395000001C050600160507000F050700080506F0
:103960000002050700FB040600F5040700EE04064C
:1039700000E8040600E2040700DB040600D50406A4
:1039800000CF040600C9040600C3040600BD0406F7
:1039900000B7040600B1040500AC040600A6040646
:1039A00000A00405009B0406009504050090040691
:1039B000008A04050085040500800406007A0405D9
:1039C0000075040500700405006B0405006604051D
:1039D00000610405005C040500570405005204055D
:1039E000004D04050048040500430405003E04049E
:1039F000003A04050035040500300404002C0405D9
:103A00000027040400230405001E0404001A040413
:103A10000016040500110404000D04040009040547
:103A2000000404040000040400FC030400F8030480
:103A300000F4030400F0030400EC030400E80304B2
:103A400000E4030400E0030400DC030400D80304E2
:103A500000D4030400D0030400CC030400C8030313
:103A600000C503030024F404D9201BC40C5C0E9889
:103A700004C4095F0265077101F405F900FB04B392
:103A80000048048700C1036900580355000303453B
:103A900000BE023A008402310053022A00290225A6
:103AA0000004022000E4011C00C8011900AF011746
:103AB00000980114008401130071011000610110CD
:103AC0000051010E0043010D0036010B002B010BCC
:103AD0000020010B00150109000C01090003010879
:103AE00000FB000800F3000800EB000700E40006FC
:103AF00000DE000600D8000600D2000600CC00055B
:103B000000C7000500C2000500BD000400B90004A4
:103B100000B5000400B1000400AD000400A90004D9
:103B200000A5000300A20003009F0004009B000307
:103B3000009800030095000200930003009000032A
:103B4000008D0002008B0003008800020086000246
:103B50000084000300810002007F0002007D00025B
:103B6000007B00020079000200770001007600026D
:103B7000007400020072000100710002006F000278
:103B8000006D0001006C0002006A00010069000283
:103B9000006700010066000100650001006400028A
:103BA000006200010061000100600001005F00028E
:103BB000005D0001005C0001005B0001005A000193
:103BC0000059000100580001005700010056000193
:103BD0000055000100540001005300000053000193
:103BE000005200010051000100500001004F00018F
:103BF000004E0000004E0001004D0001004C00018D
:103C0000004B0000004B0001004A00010049000188
:103C10000048000000480001004700010046000085
:103C2000004600010045000000450001004400017D
:103C30000043000000430001004200000042000178
:103C4000004100000041000100400001003F000071
:103C5000003F0001003E0000003E0001003D00006A
:103C6000003D0001003C0000003C0000003C000161
:103C7000003B0000003B0001003A0000003A000158
:103C80000039000000390001003800000038000051
:103C90000038000100370000003700010036000046
:103CA000003600000036000100350000003500003D
:103CB0000035000100340000003400000034000131
:103CC0000033000000330000003300010032000028
:103CD000003200000032000100310000003100001D
:103CE0000031000100300000003000000030000111
:103CF000002F0000002F0000002F0000002F000107
:103D0000002E0000002E0000002E0001002D0000FB
:103D1000002D0000002D0000002D0001002C0000EF
:103D2000002C0000002C0000002C0001002B0000E3
:103D3000002B0000002B0000002B0001002A0000D7
:103D4000002A0000002A0000002A000100290000CB
:103D500000290000002900000029000000290001BE
:103D600000280000002800000028000000280000B3
:103D700000280001002700000027000000270000A5
:103D80000027000000270001002600000026000098
:103D9000002600000026000000260001002500008B
:103DA000002500000025000000250000002500007F
:103DB0000025000100240000002400000024000071
:103DC0000024000000240001002300000023000064
:103DD0000023000000230000002300000023000057
:103DE0000023000100220000002200000022000049
:103DF000002200000022000000220001002100003B
:103E0000002100000021000000210000002100002E
:103E1000002100000021000100200000002000001F
:103E20000020000000200000002000000020000012
:103E30000020000000200001001F0000001F000003
:103E4000001F0000001F0000001F0000001F0000F6
:103E5000001F0001001E0000001E0000001E0000E8
:103E6000001E000000504944204175746F74756E47
:103E7000652066696E6973686564212050757420D9
:103E8000746865206C617374204B702C204B692022
:103E9000616E64204B6420636F6E7374616E747323
:103EA0002066726F6D2061626F766520696E746F37
:103EB00020436F6E66696775726174696F6E2E68F4
:103EC00000504944204175746F74756E65206661B9
:103ED000696C6564212074696D656F75740020409C
:103EE0003A00543A00423A00504944204175746FF8
:103EF00074756E65206661696C6564212054656D1A
:103F0000706572617475726520746F6F206869677F
:103F10006800204B643A2000204B693A2000204B77
:103F2000703A200020436C617373696320504944E8
:103F300020002054753A2000204B753A2000206D57
:103F400061783A2000206D696E3A200020643A20A2
:103F50000020626961733A20005049442041757421
:103F60006F74756E652073746172740050494420DB
:103F70004175746F74756E65206661696C65642E39
:103F800020426164206578747275646572206E7574
:103F90006D6265722E00544D4C20256420256420EE
:103FA000257820256C7820256C780A004D494E54E0
:103FB000454D50004D494E54454D5020424544001A
:103FC0004D494E54454D5020414D42004D415854AD
:103FD000454D50004D415854454D502042454400F8
:103FE0004D415854454D5020414D4200544D3A20CA
:103FF0006572726F7220636C656172656400544D06
:104000003A206572726F72207472696767657265B3
:10401000642100544D3A206572726F72207C2566CF
:104020007C3E25660A0070012C0190012701B00139
:104030002201C0011D01F00118011002130130021C
:104040000E016002090190020401C002FF0000039A
:10405000FA004003F5008003F000D003EB002004D9
:10406000E6007004E100E004DC004005D700C00574
:10407000D2004006CD00D006C8008007C30030083B
:10408000BE00F008B900C009B400B00AAF00B00B20
:10409000AA00D00CA500000EA000500F9B00C0107D
:1040A00096005012910000148C00C0158700B017C4
:1040B0008200B0197D00D01B7800001E73004020E4
:1040C0006E0090226900F024640040275F00902970
:1040D0005A00E02B5500102E500020304B001032BB
:1040E0004600E033410090353C001037370070380F
:1040F0003200A0392D00B03A2800A03B2300603CDC
:104100001E00103D1900903D1400103E0F00703E3F
:104110000A00C03E0500003F000090137D00B0156E
:104120007800F0177300601A6E00F01C6900A01F81
:10413000640050225F0020255A00E0275500902A95
:104140005000202D4B00A02F4600F03141001034CC
:104150003C00F0353700A037320020392D00603A9E
:104160002800703B2300603C1E00203D1900C03D2C
:104170001400403E0F00A03E0A00F03E0500403F04
:104180000000703FFBFF903FF6FFB03FF1FFC03FE4
:10419000ECFFD03FE7FFE03FE2FFF03FDDFFF03F05
:1041A000D8FF20484F54454E4420544845524D4175
:1041B0004C2052554E4157415900204845415442E8
:1041C000454420544845524D414C2052554E41578C
:1041D000415900544845524D414C2052554E41578B
:1041E00041590042454420544845524D414C2052CB
:1041F000554E415741590020544845524D414C209D
:1042000052554E4157415920285052454845415436
:1042100020484F54454E44290020544845524D41B2
:104220004C2052554E41574159202850524548453F
:104230004154204845415442454429005052454884
:10424000454154204552524F52004245442050525D
:104250004548454154204552524F520020747269DE
:1042600067676572656421004865617465727320D3
:104270007377697463686564206F66662E20003A00
:1042800020004572723A200000FF0102010002FF87
:10429000FFFE0001FE01FF00506C65617365207236
:1042A00065737461727400544D3A20696E76616C66
:1042B000696420706172616D65746572732C20632E
:1042C000616E6E6F7420656E61626C6500255320AF
:1042D000204D3331302050252E32662055252E3486
:1042E000662056252E32662043252E326620442530
:1042F0002E3466204C2575205325752042257520C7
:1043000045252E32662057252E32662054252E3222
:10431000660A00255320204D333130204925752071
:1043200052252E32660A00546865726D616C204D0C
:104330006F64656C2073657474696E67733A00000E
:1043400000A441333393419A998541333373419AA1
:10435000996141CDCC544133334B419A994141331A
:10436000333B41CDCC344100003041CDCC2C419A7F
:1043700099294166662641333323419A9921414563
:104380002D6D6F746F722063757272656E74207319
:1043900063616C696E6720656E61626C6564007450
:1043A0006D63323133305F686F6D655F656E746564
:1043B0007228617865735F6D61736B3D307825306D
:1043C0003278290A00746D63323133305F686F6D63
:1043D000655F6578697420746D63323133305F7363
:1043E000675F686F6D696E675F617865735F6D6148
:1043F000736B3D3078253032780A00726573756CC6
:10440000742076616C75653A2025640A0020693D48
:1044100025326420636E743D2532642076616C3DE4
:104420002532640A00636C7573746572733A0020F8
:10443000693D25326420737465703D2532640A003D
:10444000736F727465642073616D706C65733A008C
:104450003A2000252D31322E313253252D642F364E
:10446000002533642F252D336400203A20002533A6
:104470005300252D377300252D31352E3135532529
:104480002D35640A252D31352E313553252D3564D2
:104490000A0025530A20252D31362E313653252D7D
:1044A00033640A20252D31362E313653252D3364C1
:1044B0000025530A20252D31362E313653252D3334
:1044C000640A20252D31362E313653252D33640ACA
:1044D00020252D31362E313653252D3364002553BA
:1044E0000A20252D31362E313653252D33640A20EE
:1044F000252D31362E313653252D33640A20252DB6
:10450000372E37535820252D336420205920252D50
:1045100033640020257325336481200A000A204972
:1045200052203A2020202020202025332E3166568C
:1045300000205057523A20202020202025342E31B0
:1045400066560A204245443A202020202020253467
:104550002E3166560025530A20582025640A20591A
:104560002025640025752E25752E25752E257500B0
:1045700020002000466C6173684169722049502018
:10458000416464723A004D4D5520202020202020A7
:10459000204E2F410025642E25642E2564002046E0
:1045A000573A0046696C2E2073656E736F722076E1
:1045B0002E3A004E6F7620313820323032330045AB
:1045C0003344763666756C6C0045494E53795F31DD
:1045D000306100315F37356D6D5F4D4B33530020D7
:1045E000486173683A3000205265706F3A507275B6
:1045F000736133640020332E31332E302D5243311A
:104600002D36383533004669726D776172653A0030
:10461000464C4558202D20203234302F353000466E
:104620004C4558202D20203234300050502020207E
:104630002D20203235342F313030005050202020B2
:104640002D20203235340048495053202D2020326F
:1046500032302F3130300048495053202D20203245
:1046600032300041425320202D20203235352F3169
:1046700030300041425320202D202032353500506B
:10468000412020202D20203237352F393000504155
:104690002020202D20203237350050564220202D5A
:1046A00020203231352F37350050564220202D2022
:1046B000203231350050432020202D202032373544
:1046C0002F3131300050432020202D20203237352B
:1046D0000041534120202D20203236302F313035FB
:1046E0000041534120202D202032363000504554C7
:1046F00020202D20203233302F38350050455420D3
:10470000202D202032333000504C4120202D2020FD
:104710003231352F363000504C4120202D202032B0
:104720003135006E6F7A7A6C65202D20203235305D
:104730002F30006661726D2020202D202032353010
:104740002F383000252D31322E313253252B382E83
:1047500031660045787472756465723A0025632588
:1047600031372E32666D6D00583A00593A005A3A88
:10477000002563252D31332E313353252B352E3330
:104780006600312F3900880020746F6F206C6F6EC7
:104790006720657874727573696F6E2070726576C4
:1047A000656E7465640020636F6C64206578747254
:1047B0007573696F6E2070726576656E74656400DE
:1047C0004D6F76652061626F7274656400504F575B
:1047D00045522050414E4943204445544543544599
:1047E000440055564C4F202D20656E642025640AE8
:1047F0000055564C4F5F54494E59202D20656E642C
:104800002025640A00776F726C6420636F6F726496
:10481000696E617465733A2028252E33662C202535
:104820002E33662C20252E3366290A004D32323075
:104830002053256400446F6E652072656164696E63
:104840006720454550524F4D0A0054656D706572A2
:10485000617475726520526573746F7265640A00C5
:1048600047312045252D2E33662046323730300023
:10487000544D4320445249564552204F56455254B8
:10488000454D5000486F6C642063757272656E749C
:10489000207472756E636174656420746F20527544
:1048A0006E2063757272656E740025632533642F04
:1048B000256481005A25362E32662563005A202051
:1048C000202D2D2D2000862533642525002D2D2D0E
:1048D0002525002533642525002053440020202071
:1048E0000020484F002046524D2000872D2D3A2DA4
:1048F0002D202000872533756820256325630087D8
:10490000253032753A2530327525632563002F2F07
:1049100020616374696F6E3A706175736564002F0E
:104920002F20616374696F6E3A706175736500441E
:10493000756D70206D656D6F72790068656C702E95
:10494000707275736133642E636F6D00666F72757C
:104950006D2E707275736133642E636F6D007072AB
:1049600075736133642E636F6D004D3730310025F0
:10497000533A0A2531382E32666D200A25533A0AF9
:104980002531306C646820253032646D202530324A
:1049900064730025533A0A2531382E32666D200A99
:1049A00025533A0A2531306C64642025303264681E
:1049B00020253032646D0025362E32666D6D00255F
:1049C000530A25530A25533A0A25533A0025332E14
:1049D00032668100252D31342E3134533A0A255365
:1049E0000A252D31342E3134533A25332E32668147
:1049F0000A252D31342E3134533A25332E32668137
:104A00000047312058313020593138302046343079
:104A10003030004731205A313020463133303000B9
:104A20004D313430205330004D313034205330007C
:104A3000473120452D302E30373520463231303049
:104A4000004731204634303030004D32303420536E
:104A500031303030004731205A352046373230303F
:104A600000473120452D312E35204632313030007F
:104A70004739300047312058352045342046313001
:104A80003030004731205A302E322046313030301D
:104A900000473120583535204532352046313430F5
:104AA0003000473120592D32204631303030004718
:104AB00031205832343020453235202046323230D1
:104AC00030004731205A302E33204631303030000C
:104AD00047312058353520453820463230303000B7
:104AE00047312058352045323920463138303000A2
:104AF000473120583535204532392046313037335B
:104B00000047393220453000473238004D313039C6
:104B1000004D313930001000C90210012C01400154
:104B2000220170011801B0010E01F00104015002D0
:104B3000FA00B002F0003003E600D003DC0090047D
:104B4000D2007005C800A006BE000008B400B0097D
:104B5000AA00D00BA000600E960060118C0000151A
:104B6000820020197800C01D6E00A0226400B027CA
:104B70005A00902C500000314600E0343C001038C0
:104B80003200903A2800603C1E00A03D1400803E98
:104B90000A00203F00002533750050494E44412053
:104BA00063616C6962726174696F6E206661696CC1
:104BB00065642E20436F6E74696E75652077697425
:104BC00068207072657373696E6720746865206B06
:104BD0006E6F622E0050494E44412063616C6962E1
:104BE000726174696F6E20646F6E652E20436F6E04
:104BF00074696E7565207769746820707265737367
:104C0000696E6720746865206B6E6F622E0047388E
:104C100030004D3435004D3435205A0047373600CA
:104C20004D3730312050300057697A6172642073FB
:104C3000746174653A2025640A004578706572696C
:104C40006D656E74616C004673656E736F7220449F
:104C50006574656374696F6E00302E383000302ED5
:104C6000363000302E343000302E32350044697337
:104C700061626C65206661726D206D6F64650052C3
:104C800065736574204D4D55004D4D55004D3434C0
:104C9000004739390044697361626C65206661724E
:104CA0006D206D6F64653F004D20383400852E2ED9
:104CB00000593A202575202D3E202E2E2E00583AE0
:104CC000202575202D3E202E2E2E0046696C616D0C
:104CD000656E742073656E736F7220626F617264AB
:104CE000206368616E6765206465746563746564DC
:104CF0003A207265766973696F6E25530A004D65B7
:104D00006173757265642066696C616D656E74208F
:104D100073656E736F72206C6F77206C6576656C4F
:104D20003A2025342E3266560A004D65617375723D
:104D300065642066696C616D656E742073656E7361
:104D40006F722068696768206C6576656C3A20250B
:104D5000342E3266560A002533642F300025336422
:104D60002F3000000040410000C04000005C4300C4
:104D700000C04000005C430000464300004041008A
:104D800000464325632041584953205347313D2570
:104D9000640A00486F74656E6400426564005A00DE
:104DA000590058002D2D2D2D2D2D2D2D2D2D2D2D36
:104DB0002D2D2D2D2D2D2D2D00435A5058496E7619
:104DC000616C696453657269616C4E72008852301F
:104DD0004A284A204A134A014A473120582564206C
:104DE0005925642045252D2E356600473120463152
:104DF000303830004731205A252D2E336620463773
:104E000032303000473120583530205931353500A7
:104E1000014B704AE353614A554A4A4A414A473175
:104E2000205825642045252D2E336620463130300C
:104E30003000F04AE04AD04AC24A014BAF4AA24A87
:104E4000914A834A744A542564004731205A302ECF
:104E50003420463130303000473120592D33204640
:104E600031303030008852114B0C4B084B014B4D08
:104E70003834205859004D31303920533238300001
:104E800047312058313235205A32303020463130C7
:104E90003030004D33313020412046310047312041
:104EA000583132352059313035205A31204638308A
:104EB000303000496E76616C69642050494420634B
:104EC000616C2E20726573756C74732E204E6F7436
:104ED0002073746F72656420746F20454550524F83
:104EE0004D2E004D3330312050252E32662049257D
:104EF0002E32662044252E3266004D333033204555
:104F0000302053253375004D393134004D3931355A
:104F100000524300444556004245544100414C5024
:104F200048410000002100240027002A002D003005
:104F300000330001010000040107010A0100002202
:104F400000250028002B002E003100340002010053
:104F500000050108010B01000020002300260029A4
:104F6000002C002F0032000001000003010601099F
:104F70000105050505070508080808020202020ADE
:104F80000A080804040404010101010101010103EC
:104F900003030303030303040707070C0C0C0C0CA7
:104FA0000C0C0C0202020206060606060606060B9A
:104FB0000B0B0B0B0B0B0B07070A0A0A0A0A0A0555
:104FC0000505040404080801021020200808102028
:104FD0004010204080020102010804020101020485
:104FE0000810204080804020100804020180040244
:104FF000018040201008040201080402010102049B
:10500000081020408001020408102040801008048D
:105010000880102040044080102040048000000AD6
:105020000B02090C0D0E080703040100000000002C
:105030000000000000000000000000000000000070
:10504000000000000000000000121110000000002D
:105050000000000000000000000000000000000050
:105060000000000000000000000000000000000040
:10507000000000332E31332E302D524331000A20F0
:105080004F726967696E616C205072757361206937
:10509000330A202020507275736120526573656158
:1050A0007263680A2532302E32305300435A50580A
:1050B000003B530053706F6F6C4A6F696E206973C9
:1050C00020006164635F696E697400200A200A2011
:1050D0000A2000416C6C2044617461005365727653
:1050E0006963652070726570005368697070696EDD
:1050F00067207072657000537461746973746963BA
:1051000073004C616E677561676500455241534994
:105110004E4720616C6C2064617461004661637469
:105120006F727920524553455400505255534133C4
:1051300044465700494E54340003000D000000213E
:105140000003000200000004004E4F43545541008C
:10515000414C5446414E00286E6F6E652C206465AC
:105160006661756C7420636F6E66696729004E6FA7
:105170007620313820323032332031313A32353AEC
:1051800034370020332E31332E302D5243312D361B
:1051900038353300737461727400534E2075706437
:1051A000617465206661696C656400534E2075709A
:1051B000646174656400435A505800435241534837
:1051C0005F44455445435445445859004352415364
:1051D000485F444554454354454459004352415364
:1051E000485F444554454354454458004D323900C6
:1051F000252D392E39535B0047312058256420591D
:10520000252D2E32662045252D2E336600544D2047
:10521000657374696D6174696F6E20646964206E72
:105220006F7420636F6E766572676500544D2069F8
:105230007465723A257520763A252E326620653AD5
:10524000252E33660A0057726974696E6720746F81
:105250002066696C653A200046696C6520616C7255
:1052600065616479206F70656E656400333329422F
:10527000000058419A998D4133335340200A200A47
:1052800020004D4D55323A004D313037002020304E
:10529000002020310046494E44410050494E4441CF
:1052A0000057697A61726420656E6420737461745A
:1052B000653A2025640A0053706F6F6C4A6F696EFF
:1052C000004669726D776172650048426564206FBF
:1052D0006E206C6F616400466C6173684169720096
:1052E000546865726D616C204D6F64656C206361FC
:1052F0006C2E004572723A5052494E542046414E2F
:10530000204552524F52004572723A484F54454E12
:10531000442046414E204552524F52002F2F2061CB
:105320006374696F6E3A726573756D6564002F2FD3
:1053300020616374696F6E3A726573756D65002FD5
:105340002F20616374696F6E3A63616E63656C00F0
:1053500041786973206C656E67746820646966665D
:105360006572656E63653A252E33660A004D656188
:1053700073757265642061786973206C656E6774FB
:10538000683A252E33660A004F4B004C4344207385
:105390007461747573206368616E6765640053445B
:1053A00020636172642072656C6561736564004698
:1053B000616B652073657269616C206E756D6265E5
:1053C0007200452D636F6F6C206D6F646500414CFA
:1053D0005446414E206465742E004D3834004D37DC
:1053E0003032004D3833004732382057004D3530C9
:1053F000300045787465726E616C205350492066A8
:105400006C6173680A58464C415348206973206E9A
:105410006F74207265732D0A706F6E64696E672EEB
:10542000204C616E67756167650A7377697463689C
:1054300020756E617661696C61626C652E005846FC
:105440004C415348206E6F7420726573706F6E64A8
:10545000696E672E00465720637261736820646529
:105460007465637465642120596F752063616E20D3
:10547000636F6E74696E7565207072696E74696EA3
:10548000672E2044656275672064617461206176CF
:1054900061696C61626C6520666F7220616E616C1F
:1054A000797369732E20436F6E7461637420737512
:1054B00070706F727420746F207375626D697420E0
:1054C00064657461696C732E002F2F2061637469A9
:1054D0006F6E3A64756D705F617661696C61626C64
:1054E0006500437261736844657465637420454E5A
:1054F00041424C45442100437261736844657465C0
:1055000063742044495341424C454400486F7465DC
:105510006E642066616E20747970653A20002020E8
:10552000506C616E6E657242756666657242797422
:1055300065733A20002046726565204D656D6F7277
:10554000793A2000207C20417574686F723A2000FF
:10555000204C61737420557064617465643A200056
:1055600020536F66747761726520526573657400AD
:10557000205761746368646F6720526573657400B7
:105580002042726F776E206F757420526573657458
:10559000002045787465726E616C20526573657485
:1055A00000506F7765725570006572726F72207768
:1055B000726974696E6720746F2066696C65004457
:1055C0006F6E6520736176696E672066696C652E03
:1055D000006F6B00526561722073696465205BE443
:1055E0006D5D0046726F6E7420736964655BE46D77
:1055F0005D00526967687420736964655BE46D5D82
:10560000004C6566742073696465205BE46D5D0021
:105610005365742074656D70657261747572653A56
:105620000050494E44412063616C69627261746943
:105630006F6E206661696C65640050494E4441207C
:1056400063616C6962726174696F6E206973206650
:10565000696E697368656420616E64206163746952
:1056600076652E2049742063616E2062652064692E
:105670007361626C656420696E206D656E75205380
:10568000657474696E67732D3E50494E44412063C2
:10569000616C2E004578747275646572004D6F768A
:1056A00065205A004D6F76652059004D6F76652054
:1056B0005800437261736820646574656374696F30
:1056C0006E2063616E0A6265207475726E65642077
:1056D0006F6E206F6E6C7920696E0A4E6F726D610D
:1056E0006C206D6F6465005741524E494E473A0A2F
:1056F000437261736820646574656374696F6E0AD0
:1057000064697361626C656420696E0A53746561D3
:105710006C7468206D6F6465004D6F64652063680C
:10572000616E676520696E2070726F677265737352
:105730002E2E2E00536865657420252E37730A5A65
:10574000206F66667365743A20252B312E33666DA3
:105750006D0A2563436F6E74696E75650A25635221
:105760006573657400506C65617365206C6F61646E
:105770002066696C616D656E742066697273742E43
:10578000003E43616E63656C0052756E6E696E67B4
:105790002057697A6172642077696C6C2064656C4B
:1057A0006574652063757272656E742063616C69DF
:1057B00062726174696F6E20726573756C747320A8
:1057C000616E642073746172742066726F6D2074F0
:1057D000686520626567696E6E696E672E20436F2B
:1057E0006E74696E75653F005072656865617469B5
:1057F0006E67206E6F7A7A6C652E20506C656173CF
:105800006520776169742E00506C6561736520694D
:105810006E736572742066696C616D656E74206963
:105820006E746F2074686520657874727564657233
:105830002C207468656E20707265737320746865BF
:10584000206B6E6F6220746F206C6F6164206974CE
:105850002E00506C6561736520696E7365727420EB
:1058600066696C616D656E7420696E746F20746812
:10587000652066697273742074756265206F662096
:10588000746865204D4D552C207468656E207072CB
:1058900065737320746865206B6E6F6220746F206F
:1058A0006C6F61642069742E0054686520707269A1
:1058B0006E7465722077696C6C20737461727420E9
:1058C0007072696E74696E672061207A69672D7ADB
:1058D0006167206C696E652E20526F74617465205B
:1058E000746865206B6E6F6220756E74696C2079C8
:1058F0006F7520726561636820746865206F7074CD
:10590000696D616C206865696768742E20436865FD
:10591000636B2074686520706963747572657320A9
:10592000696E207468652068616E64626F6F6B20B9
:105930002843616C6962726174696F6E206368618B
:1059400070746572292E0053656C656374207465EC
:105950006D7065726174757265207768696368201F
:105960006D61746368657320796F7572206D617401
:10597000657269616C2E0053656C656374206120EB
:1059800066696C616D656E7420666F7220746865FF
:10599000204669727374204C617965722043616C92
:1059A0006962726174696F6E20616E642073656CE8
:1059B00065637420697420696E20746865206F6E59
:1059C0002D73637265656E206D656E752E004E6F6A
:1059D0007720492077696C6C2063616C6962726121
:1059E00074652064697374616E63652062657477A1
:1059F00065656E20746970206F6620746865206E1E
:105A00006F7A7A6C6520616E642068656174626586
:105A10006420737572666163652E00506C656173F6
:105A20006520636865636B206F75722068616E64C2
:105A3000626F6F6B20616E642066697820746865A0
:105A40002070726F626C656D2E205468656E2072D6
:105A50006573756D65207468652057697A61726435
:105A6000206279207265626F6F74696E6720746856
:105A700065207072696E7465722E00416C6C2069CD
:105A80007320646F6E652E2048617070792070728B
:105A9000696E74696E672100596F752063616E20AD
:105AA000616C7761797320726573756D65207468B8
:105AB000652057697A6172642066726F6D20436158
:105AC0006C6962726174696F6E202D3E2057697A2D
:105AD0006172642E00496620796F75206861766571
