:100000000C94AD3D0C94DE3D0C94DE3D0C94DE3D35
:100010000C94DE3D0C941FFD0C94DE3D0D94148673
:100020000D9431860C94DE3D0C94DE3D0C94DE3D47
:100030000C94644A0C94DE3D0C94ACD30C94936005
:100040000C94DE3D0C94E6DB0C94DE3D0C94DE3D1E
:100050000C94DE3D0C94DE3D0C94DE3D0D945A85EF
:100060000C94DE3D0C94D9500C94DE3D0C94DE3D96
:100070000C94DE3D0D94AE8B0C94DE3D0C94DE3D75
:100080000C94DE3D0C94DE3D0C94DE3D0C94DE3D84
:100090000C9495500C94DE3D0C94DE3D0C94DE3DAA
:1000A0000C94DE3D0C94DE3D0C945C5B0C94DE3DC8
:1000B0000C94DE3D0C943E5B0C94DE3D0C94FED81B
:1000C0000C94DE3D0C94DE3D0C94DE3D0C94FE5A07
:1000D0000C94DE3D0C94DE3D0C94DE3D0C94DE3D34
:1000E0000C94DE3D084AD73B3BCE016E84BCBFFD7D
:1000F000C12F3D6C74319ABD56833DDA3D00C77FF8
:1001000011BED9E4BB4C3E916BAAAABE0000008090
:100110003F05A84CCDB2D44EB93836A9020C50B91F
:10012000918688083CA6AAAA2ABE000000803F0744
:10013000634236B79BD8A71A39685618AEBAAB5582
:100140008C1D3CB7CC5763BD6DEDFD753EF6177247
:1001500031BF000000803F08000000BE9224491219
:100160003EABAAAA2ABECDCCCC4C3E00000080BE3D
:10017000ABAAAAAA3E00000000BF000000803F001A
:1001800000000000084178D3BB4387D1133D190E0E
:100190003CC3BD4282AD2B3E68EC8276BED98FE176
:1001A000A93E4C80EFFFBE01C4FF7F3F000000006E
:1001B00000000C94CBC70C943BC50D94B0140D9467
:1001C000E22D0D9441170D94B9140D94483C0C94F4
:1001D000CEC60C948ABC0D944A1D0D94B2380D9471
:1001E0009A350D9428780C944BE80C9431510D9469
:1001F000861E0D9445170D94657E0D94AC850D9467
:10020000AC240D94D94A0D94052E0D949C4F0C945A
:100210005BE80D94CD770D94314F0C9448BC0D9450
:10022000804B0D9418170D9437170C947BFB0C948E
:1002300073E80C9449BA0D9489210D94984F0D944C
:10024000721D0D9410170D94D4360D9484210D94C5
:1002500025170D945F1D0C945BE70C94CABB0D949D
:10026000A0500D9466210C949BE70D94A3380D9437
:1002700070210D9483370C942EBF0D94192E0D947C
:10028000111D0D947F210D94DA170C9478C60D94EE
:10029000BF270D945A380D944A270C9411BC0D9425
:1002A000301D0D9479850D945C7E0C9455BA0C9498
:1002B0006BE80D9470270D9496500C94A2E70D9462
:1002C0007A210C9438BE0D94CE1D0C9453E80D94F5
:1002D0001D4B0D94C83E0D94051D0C94DCBF0D9470
:1002E0006B210D94034C0C9498E70C9429C70D9442
:1002F000A0380D943F480D94CD4B0D9453170D9499
:100300008B440D941C3C0D94C81F0D9475210D94C5
:100310005A800D943D170D944A170D943B4C0D9443
:100320005E3C0D943F380D949B2D0D94A5230D94A8
:10033000E2250D94CA260D94D2400C9424C10D944C
:10034000BB260D94B5260D9443780D9497160C9406
:10035000A5E70C9472FB0D94D82D0C940BE80C942B
:100360008BC60D94A4500C9413E80D9461270D9442
:10037000F0310D94C2850D9472270D94BE2D0D940D
:10038000EC2D0D94254C0C94EFBA0C941FBF0D94DA
:10039000C7380D949C500D94EE850D949E850C9459
:1003A000763E0D94A6380D9438270D9456270D945B
:1003B00062170D94131E0D94C62D0D946A7E0D9434
:1003C00067520D940F2E0D94587E0D94183D0D9488
:1003D0009F840D944B4C0C9429BA0D94A21C0D943F
:1003E000BE260C9484FB0D94551D0D9484B80D9479
:1003F000363C0D94A9380D9400860C94D6E70C94E5
:1004000033E80D94CE2D0C9486BA0D94861D0D9470
:1004100097380D94B3140D94074C0D946D510D94B1
:10042000E1320D94B71C0D940D260D944B800D9464
:10043000232E0C94E3F90C9407C10D94C4890D94F8
:100440001F170D9450480D9440780D9448380C9423
:100450008E3E0D94AA2D0D94B8260C942BE80D9485
:10046000C1210D94421F0D9408200D94A91C0D94D8
:10047000DD430D941F230D9481260D94BE500D94E1
:10048000D5170D94BE380D94A8500D94B6140D9444
:1004900093850C943BE80D94BE1C0C9401C70D94FD
:1004A000932D0D94B42D0D94B2260D943E200D94F1
:1004B00017220C9423E80D944B170C9445C10D940E
:1004C000A2340D94241D0D949E320C9475BB0D9492
:1004D00014170C9443E80D9433170D948A4B0D9424
:1004E000BA1D0D94557E0D9444A30D94E6770D949A
:1004F0003E270D94A02D0D944F170D94FD4B0D9498
:1005000059250D94C1260C941BE80C9473E70D94A7
:10051000AE1D0D9421500D94D74B0C9428C10D9411
:10052000B01C0C9410E80D94EE4B0D94BB380D9458
:10053000D54D0D94934B0D94E51D0D948F310D9475
:10054000BE140D94F2520D9471260D9444270D940F
:10055000DE120D94D7230C9408E80D94151E0D940B
:10056000D8250D94F3430D94F37D0D943D780D94AF
:10057000CB130D948E240D949A1D0D94B0200D94E0
:100580005D340D94271E0D94397E0D9429170D941A
:100590008D210D945D170D94FB2D0D943F1D0D9431
:1005A000B13D0C9410C70D94DB4D0D942F170D9495
:1005B0000A170D941C170D9420530D94CB850D94A0
:1005C0006F160D947C290C947FC70D945A4B0D9493
:1005D000C41D0C942DBB0C9408BD0C9463E80C94C2
:1005E00039C10D947F1E0D942D2E6E616E00696EC3
:1005F000660000407A10F35A00A0724E18090010ED
:10060000A5D4E80000E87648170000E40B54020087
:1006100000CA9A3B000000E1F505000080969800B2
:10062000000040420F000000A086010000001027DB
:1006300000000000E803000000006400000000006B
:100640000A00000000000100000000002C76D8889D
:10065000DC674F0823DFC1DFAE59E1B1B796E5E3B0
:10066000E453C63AE651997696E8E6C28426EB89C9
:100670008C9B62ED407C6FFCEFBC9C9F40F2BAA566
:100680006FA5F490055A2AF75C936B6CF9676DC1FE
:100690001BFCE0E40D47FEF520E6B500D0ED902E02
:1006A0000300943577050080841E080000204E0A60
:1006B000000000C80C333333330F986E128311419E
:1006C000EF8D2114893BE65516CFFEE6DB18D18469
:1006D0004B381BF77C1D901DA4BBE4242032847290
:1006E0005E228100C9F124ECA1E53D2758595A202A
:1006F00063616C6962726174696F6E20616C6C20F9
:1007000072696768742E20536B65772077696C6C0B
:1007100020626520636F7272656374656420617521
:10072000746F6D61746963616C6C792E0058595AED
:100730002063616C6962726174696F6E20616C6CB8
:100740002072696768742E20582F5920617865736C
:100750002061726520736C696768746C7920736BB3
:10076000657765642E20476F6F64206A6F62210091
:1007700058595A2063616C6962726174696F6E20A6
:100780006F6B2E20582F5920617865732061726538
:100790002070657270656E646963756C61722E207D
:1007A000436F6E67726174756C6174696F6E7321EB
:1007B0000043726173682064657465637465642EB8
:1007C00000536F6D652070726F626C656D20656E91
:1007D000636F756E74657265642C205A2D6C657636
:1007E000656C696E6720656E666F72636564202E46
:1007F0002E2E004D65736820626564206C657665F9
:100800006C696E67206661696C65642E20506C654A
:100810006173652072756E205A2063616C69627223
:100820006174696F6E2E0058595A2063616C696259
:10083000726174696F6E206661696C65642E205206
:10084000696768742066726F6E742063616C696298
:10085000726174696F6E20706F696E74206E6F7450
:1008600020726561636861626C652E0058595A2078
:1008700063616C6962726174696F6E206661696C34
:1008800065642E2046726F6E742063616C696272BB
:100890006174696F6E20706F696E7473206E6F740F
:1008A00020726561636861626C652E0058595A2038
:1008B00063616C6962726174696F6E206661696CF4
:1008C00065642E20506C6561736520636F6E73756F
:1008D0006C7420746865206D616E75616C2E0058B3
:1008E000595A2063616C6962726174696F6E20632A
:1008F0006F6D70726F6D697365642E2052696768E1
:10090000742066726F6E742063616C6962726174C8
:10091000696F6E20706F696E74206E6F74207265DF
:1009200061636861626C652E0058595A2063616C7E
:100930006962726174696F6E20636F6D70726F6D42
:10094000697365642E2046726F6E742063616C69F2
:1009500062726174696F6E20706F696E7473206E5D
:100960006F7420726561636861626C652E0058590E
:100970005A2063616C6962726174696F6E2066618E
:10098000696C65642E204265642063616C696272E3
:100990006174696F6E20706F696E74207761732067
:1009A0006E6F7420666F756E642E00506C616365A7
:1009B0002061207368656574206F662070617065C2
:1009C0007220756E64657220746865206E6F7A7A25
:1009D0006C6520647572696E672074686520636158
:1009E0006C6962726174696F6E206F6620666972ED
:1009F0007374203420706F696E74732E20496620E2
:100A0000746865206E6F7A7A6C65206361746368C0
:100A10006573207468652070617065722C20706F3A
:100A2000776572206F666620746865207072696EE3
:100A300074657220696D6D6564696174656C792E89
:100A400000536561726368696E6720626564206344
:100A5000616C6962726174696F6E20706F696E7427
:100A600000506C6561736520636C65616E2074680D
:100A700065206E6F7A7A6C6520666F722063616C98
:100A80006962726174696F6E2E20436C69636B20BA
:100A90007768656E20646F6E652E004865617469C5
:100AA0006E672064697361626C656420627920738B
:100AB00061666574792074696D65722E0053544FB8
:100AC000505045442E00504155534544205448450C
:100AD000524D414C204552524F5200472D636F6496
:100AE0006520736C6963656420666F7220612064A1
:100AF0006966666572656E74206C6576656C2E201D
:100B0000506C656173652072652D736C6963652037
:100B1000746865206D6F64656C20616761696E2E15
:100B2000205072696E742063616E63656C6C6564DD
:100B30002E00472D636F646520736C6963656420C4
:100B4000666F72206120646966666572656E7420E6
:100B50006C6576656C2E20436F6E74696E75653FAB
:100B600000472D636F646520736C6963656420665C
:100B70006F722061206E65776572206669726D778D
:100B80006172652E20506C656173652075706461BB
:100B9000746520746865206669726D776172652E70
:100BA000205072696E742063616E63656C6C65645D
:100BB0002E00472D636F646520736C696365642044
:100BC000666F722061206E65776572206669726D4E
:100BD000776172652E20436F6E74696E75653F0094
:100BE000472D636F646520736C6963656420666F6D
:100BF00072206120646966666572656E7420707229
:100C0000696E74657220747970652E20506C656110
:100C100073652072652D736C696365207468652047
:100C20006D6F64656C20616761696E2E205072691A
:100C30006E742063616E63656C6C65642E00472D75
:100C4000636F646520736C6963656420666F7220EE
:100C50006120646966666572656E74207072696E83
:100C600074657220747970652E20436F6E74696E9E
:100C700075653F00507265737320746865206B6EF4
:100C80006F6220746F2070726568656174206E6F8A
:100C90007A7A6C6520616E6420636F6E74696E751C
:100CA000652E00506C6561736520707265737320EA
:100CB000746865206B6E6F6220746F20756E6C6F48
:100CC00061642066696C616D656E7400616E64209C
:100CD000707265737320746865206B6E6F62004973
:100CE0006E736572742066696C616D656E74004325
:100CF0006F6C6F72206E6F7420636F7272656374B5
:100D00000046696C616D656E74206E6F74206C6F47
:100D100061646564004368616E67656420636F7237
:100D2000726563746C793F004C6F6164696E672013
:100D3000636F6C6F72004368616E676520737563E3
:100D4000636573732100506C65617365206F706516
:100D50006E2069646C657220616E642072656D6FCF
:100D600076652066696C616D656E74206D616E7567
:100D7000616C6C792E005761732066696C616D65DA
:100D80006E7420756E6C6F61642073756363657338
:100D90007366756C3F00506C656173652075706794
:100DA000726164652E004E6577206669726D7761A9
:100DB00072652076657273696F6E20617661696C09
:100DC00061626C653A0057616974696E6720666F8D
:100DD000722050494E44412070726F626520636FEB
:100DE0006F6C696E6700506C65617365207761692F
:100DF00074004E6F206D6F76652E00576169742008
:100E0000666F7220757365722E2E2E00506C6561B0
:100E100073652072656D6F766520737465656C20EF
:100E200073686565742066726F6D206865617462B1
:100E300065642E00537461626C6520616D62696542
:100E40006E742074656D70657261747572652032A0
:100E5000312D323643206973206E656564656420E8
:100E600061207269676964207374616E64206973BC
:100E70002072657175697265642E00506C656173CE
:100E8000652072756E2058595A2063616C696272D0
:100E90006174696F6E2066697273742E00555341D8
:100EA0005254322072782046756C6C2121210053F7
:100EB000657474696E67732053746F72656400544F
:100EC0004D3A2073746F7265642063616C6962725D
:100ED0006174696F6E20696E76616C69642C207232
:100EE0006573657474696E670053746F726564200E
:100EF00073657474696E6773207265747269657660
:100F000065640048617264636F646564204465666B
:100F100061756C742053657474696E6773204C6FCF
:100F20006164656400563200000000C8420000C8D9
:100F3000420000C84300008C4300004843000048C2
:100F400043000040410000F042E8030000E80300D5
:100F500000C80000008813000000409C4400409C32
:100F6000440000000000000000204E0000000020AF
:100F70004100002041CDCCCC3E000090400000005C
:100F8000000000000000000000CDCCCC3E3D0A81F6
:100F900041FF08433EB099AB438F42FC42E65A34CE
:100FA0003F4C62B045000000000040400000344269
:100FB000000000000000000000000041000000E010
:100FC0003F0000C8420000C842000040410000F05D
:100FD00042C0030000C0030000C8000000881300E6
:100FE000001010102000409C440000803F000000D2
:100FF0003F1914000000CDCCCC3D0AD7233C17B7D5
:10100000D13877CC2B329595E6241FB14F0A0000DA
:1010100020410000C84200401C4620BCBE4CCA1BF8
:101020000E5AAEC59D744E414E494E466275737957
:101030003A2070617573656420666F7220696E7006
:10104000757400627573793A2070617573656420F8
:10105000666F72207573657200627573793A2070DD
:10106000726F63657373696E67000000524300001E
:1010700043430000434300000000000080C09A99F1
:10108000193E00000000000080C09A99193E00003F
:10109000A0400000A040000000402533642073748D
:1010A00065703D253264206D73636E743D25346434
:1010B0000A0000005243000047439AD94243FFFF11
:1010C000FF20413A0020503A002042403A002040A0
:1010D0003A00202F002054303A00202F0020423ABE
:1010E00000202F00543A00255345786365737369D7
:1010F000766520626564206C6576656C696E672034
:10110000636F7272656374696F6E3A202569206D32
:101110006963726F6E730A00426564206C65766560
:101120006C696E67206661696C65642E20546F6F10
:10113000206D75636820766172696174696F6E20D5
:1011400066726F6D20656570726F6D206D65736876
:1011500000426564206C6576656C696E6720666127
:10116000696C65642E2053656E736F7220747269AA
:1011700067676572656420746F6F20736F6F6E00B0
:101180002020004D6561737572656420706F696E13
:1011900074733A005A2073656172636820686569E8
:1011A0006768743A20352E3066004E756D20582CD5
:1011B000593A20372C37004D6573682062656420EA
:1011C0006C6576656C696E67206E6F742061637400
:1011D0006976652E0000292C206572726F723A20A4
:1011E000002C2000293B207461726765743A202826
:1011F000002C2000293B206D656173757265642D9C
:10120000636F727265637465643A2028002C200055
:101210006D656173757265643A202800706F696E40
:1012200074202300446966666572656E636520619B
:101230006674657220636F7272656374696F6E3A6B
:101240002000002C200063656E7465722C206164A0
:101250006A75737465643A2000002C20005920766A
:101260006563746F722C2061646A75737465643A87
:101270002000002C20005820766563746F722C20AB
:1012800061646A75737465643A20005665727920EA
:101290006C6974746C6520736B6577206465746524
:1012A000637465642E204F7274686F676F6E616C33
:1012B000697A696E672074686520617865732E00AD
:1012C00000002C206572726F7220593A20002C2089
:1012D0006572726F7220583A20006572726F723AAE
:1012E000200029002C2000293B207461726765745E
:1012F0003A2028002C2000293B20636F727265631E
:101300007465643A2028002C20006D656173757245
:1013100065643A202800003A00706F696E742023DB
:10132000004572726F7220616674657220636F721D
:1013300072656374696F6E3A2000002C200063654B
:101340006E746572206E65772C20696E7665727496
:1013500065643A2000002C20005920766563746F84
:1013600072206E65772C20696E7665727465643ABA
:101370002000002C20005820766563746F72206E68
:1013800065772C20696E7665727465643A2000007A
:101390002C2000636F7272656374696F6E20616EDA
:1013A000676C65733A200000292C206572726F7299
:1013B0003A20002C2000293B207461726765743A42
:1013C0002028002C2000206D656173757265643AD9
:1013D000202800706F696E74202300002C200063A9
:1013E000656E7465722C20696E697469616C3A204F
:1013F00000002C20005920766563746F722C2069E0
:101400006E697469616C3A2000002C2000582076C7
:101410006563746F722C20696E697469616C3A201F
:101420000063616C63756C617465206D61636869EC
:101430006E6520736B657720616E64206F666673DE
:101440006574204C53004D6561737572652063654A
:101450006E74657220200078797A63616C5F6D65C7
:1014600061737572655F656E7465720A0078797A6A
:1014700063616C5F73706972616C382063783D25BD
:10148000642063793D2564207A303D256420647AA8
:101490003D2564207261646975733D256420616433
:1014A0003D25640A0078797A63616C5F73656172C7
:1014B00063685A206E6F207369676E616C0A2078CA
:1014C0003D256C6420793D256C64207A3D256C6453
:1014D0000A00204F4E2D5349474E414C2061742045
:1014E000783D256420793D2564207A3D256420617E
:1014F000643D25640A0078797A63616C5F73656185
:101500007263685A20783D256C6420793D256C64AF
:10151000207A3D256C640A002530327800205B2556
:10152000662025665D206D6D207061747465726E35
:101530002063656E7465720A00205B25662025664F
:101540005D5B25665D206D6D2064697665726765FB
:101550006E63650A000000F000F801FC03FE07FE60
:1015600007FE07FE07FC03F801F000000000000082
:1015700000F000F801FC03FC03FC03FC03F801F09D
:10158000000000000078797A63616C5F6D656173BB
:101590007572655F6C656176650A00536176696E88
:1015A00067206265642063616C6962726174696F4F
:1015B0006E20766563746F727320746F204545509A
:1015C000524F4D0050657270656E646963756C6151
:1015D00072697479005A65726F20706F696E742039
:1015E000636F7272656374696F6E3A005920766535
:1015F00063746F72206C656E6774683A0058207669
:101600006563746F72206C656E6774683A00203C85
:1016100020005741524E494E473A2046726F6E7431
:1016200020706F696E74206E6F74207265616368DC
:1016300061626C652E205920636F6F7264696E6100
:1016400074653A000025642F340049746572617432
:10165000696F6E3A200043616C6962726174696FF0
:101660006E206661696C65642120436865636B2048
:10167000746865206178657320616E642072756E90
:1016800020616761696E2E003F4A5241202D204142
:10169000667465722074657374206F66205A5F41AA
:1016A00058495320706F736974696F6E2028706198
:1016B000737365643F2920282333323232292E0A7E
:1016C0000020203F4A5241202D20484F4D455F5A6F
:1016D0005F5345415243485F5448524553484F4C2D
:1016E000442069733A202564200A0020203F4A5292
:1016F00041202D204D4553485F484F4D455F5A5F6F
:101700005345415243482069733A202564200A001A
:1017100020203F4A5241202D205A5F4158495320F2
:10172000706F736974696F6E2069733A2025642045
:101730000A003F4A5241202D2069662073745F677A
:1017400065745F706F736974696F6E5F6D6D282E5D
:101750002E2E2920282333323137292E0A003F4AE2
:101760005241202D20746D63323133305F686F6DCC
:10177000655F65786974282920282333323132293E
:101780002E0A003F4A5241202D20746D63323133BE
:10179000305F686F6D655F656E746572285A5F4172
:1017A0005849535F4D41534B29202823333230345D
:1017B000292E0A003F4A5241202D206D6F76652068
:1017C0007072696E74206865616420636C6F736504
:1017D00020746F2062656420282333313939292E23
:1017E0000A003F4A5241202D2042656C6F772070DD
:1017F00061706572206D657373616765202823339E
:10180000313839292E0A003F4A5241202D205A20D2
:101810007374617274696E6720646F776E20282319
:1018200033313538292E0A003F4A5241202D205AA3
:1018300020617420746F7020282333313538292EAD
:101840000A003F4A5241202D20656570726F6D5F1E
:1018500061646A7573745F6265645F7265736574F1
:10186000282920282333313231292E0A003F4A52B9
:1018700041202D20736574546172676574486F74DC
:10188000656E64282333313139292E0A003F4A52CC
:1018900041202D20736574546172676574426564DC
:1018A00028302920282333313136292E0A003F4A97
:1018B0005241202D2041742067636F64655F4D3471
:1018C0003520282333313033292E0A0020453A00B1
:1018D000205A3A0020593A0020453A00205A3A004E
:1018E00020593A00583A00202D3E200053706F6F67
:1018F0006C4A6F696E3A20002C20006673656E7327
:101900006F722076302E3420696E206661756C749B
:101910002072616E676520342E362D3556202D20BD
:10192000756E636F6E6E6563746564006673656E75
:10193000736F7220696E20666F7262696464656E8F
:101940002072616E676520312E352D3356202D2093
:10195000636865636B2073656E736F7200496E61B7
:10196000637469766974792053687574646F776EEF
:10197000004B494C4C45442E005072696E746572A0
:101980002068616C7465642E206B696C6C2829205A
:1019900063616C6C656421005A206C697665206116
:1019A000646A757374206F7574206F662072616E3F
:1019B00067652E2053657474696E6720746F2030DC
:1019C0002E20436C69636B20746F20636F6E7469A3
:1019D0006E75652E005A206C6976652061646A75A3
:1019E0007374206F7574206F662072616E67652E48
:1019F0002053657474696E6720746F203000204531
:101A00003A3020423A00543A004731205A252D2ED0
:101A100033662046252D2E336600496E76616C694B
:101A200064205420636F64652E004475706C696394
:101A300061746520542D636F64652069676E6F72F1
:101A400065642E00416476616E6365204B3D004BFA
:101A5000206F7574206F6620616C6C6F77656420F1
:101A600072616E676521004D4B3353004D4B33530C
:101A70004D4D5533005E762E012533642F2533649A
:101A80000025336400200A200A2000255341726398
:101A90002053657474696E67733A20503A4D6178CB
:101AA000206C656E677468286D6D2920533A4D6906
:101AB0006E206C656E67746820286D6D29204E3A23
:101AC000436F7272656374696F6E7320523A4D6929
:101AD0006E207365676D656E747320463A53656753
:101AE0006D656E74732F7365632E0A255320204D28
:101AF0003231342050252E32662053252E32662076
:101B00004E256420522564204625640A002553464C
:101B1000696C616D656E742073657474696E67734A
:101B20003A2044697361626C65640A002553466912
:101B30006C616D656E742073657474696E67733A59
:101B40000A25532020204D3230302044252E326685
:101B50000A002553526574726163743A20533D4CF8
:101B6000656E67746820286D6D2920463A5370654C
:101B7000656420286D6D2F6D29205A3A205A4C69D2
:101B8000667420286D6D290A25532020204D32309F
:101B9000372053252E32662046252E3266205A25C0
:101BA0002E32660A25535265636F7665723A20536A
:101BB0003D4578747261206C656E67746820286D8D
:101BC0006D2920463A537065656420286D6D2F6D30
:101BD000290A25532020204D3230382053252E321B
:101BE000662046252E32660A25534175746F2D52A4
:101BF0006574726163743A20533D3020746F2064C1
:101C0000697361626C652C203120746F20696E7479
:101C100065727072657420657874727564652D6F75
:101C20006E6C79206D6F76657320617320726574B8
:101C30007261637473206F72207265636F76657270
:101C40006965730A25532020204D323039205325F1
:101C5000640A0025535049442068656174626564D4
:101C60002073657474696E67733A0A2553202020C7
:101C70004D3330342050252E32662049252E3266D1
:101C80002044252E32660A002553504944207365AE
:101C90007474696E67733A0A25532020204D3330DF
:101CA000312050252E32662049252E3266204425CB
:101CB0002E32660A00255353746570732070657266
:101CC00020756E69743A0A255320204D3932205808
:101CD000252E32662059252E3266205A252E326650
:101CE0002045252E32660A2553555374657020729F
:101CF00065736F6C7574696F6E3A200A2553204DB9
:101D00003335302058256420592564205A25642015
:101D10004525640A25534D6178696D756D206665AA
:101D200065647261746573202D206E6F726D616CD5
:101D300020286D6D2F73293A0A255320204D32300B
:101D4000332058252E32662059252E3266205A25FA
:101D50002E32662045252E32660A25534D6178695C
:101D60006D756D20666565647261746573202D20E4
:101D7000737465616C746820286D6D2F73293A0A3D
:101D8000255320204D3230332058252E32662059DD
:101D9000252E3266205A252E32662045252E3266A3
:101DA0000A25534D6178696D756D20616363656CBB
:101DB00065726174696F6E202D206E6F726D616C3B
:101DC00020286D6D2F7332293A0A255320204D3279
:101DD00030312058256C752059256C75205A256C9A
:101DE000752045256C750A25534D6178696D756DB3
:101DF00020616363656C65726174696F6E202D206C
:101E0000737465616C746820286D6D2F7332293A84
:101E10000A255320204D3230312058256C75205929
:101E2000256C75205A256C752045256C750A25533F
:101E3000416363656C65726174696F6E3A20503DF1
:101E40007072696E742C20523D7265747261637495
:101E50002C20543D74726176656C0A255320204D08
:101E60003230342050252E32662052252E32662004
:101E700054252E32660A2553416476616E6365648B
:101E8000207661726961626C65733A20533D4D69D9
:101E90006E20666565647261746520286D6D2F73B0
:101EA000292C20543D4D696E2074726176656C203A
:101EB000666565647261746520286D6D2F73292CC9
:101EC00020423D6D696E696D756D207365676D6546
:101ED0006E742074696D6520287573292C20583D17
:101EE0006D6178696D756D205859206A65726B2037
:101EF000286D6D2F73292C20205A3D6D6178696DF6
:101F0000756D205A206A65726B20286D6D2F7329BC
:101F10002C2020453D6D6178696D756D2045206AE6
:101F200065726B20286D6D2F73290A255320204D73
:101F30003230352053252E32662054252E3266202D
:101F400042256C752058252E32662059252E326682
:101F5000205A252E32662045252E32660A25534802
:101F60006F6D65206F666673657420286D6D293A04
:101F70000A255320204D3230362058252E32662037
:101F800059252E3266205A252E32660A00544D3AC3
:101F900020525B25755D20657374696D61742E0038
:101FA000544D3A20255320522025644300544D3A85
:101FB0002025532043206573742E00544D3A20632E
:101FC0006F6F6C20646F776E203C256443007265F0
:101FD00066696E6500696E697469616C00544D3A9A
:101FE0002063616C6962722E206661696C65642190
:101FF00000544D3A2063616C6962726174696F6E5E
:1020000020737461727400544D3A2043616C2E2029
:102010004E4F542049444C45004361703A25533A91
:1020200025630A0050525553415F4D4D55320045CE
:102030005854454E4445445F4D3230004155544F4D
:102040005245504F52545F504F534954494F4E00E0
:102050004155544F5245504F52545F46414E5300E4
:102060004155544F5245504F52545F54454D5000C6
:102070000044656C6574696F6E206661696C6564A7
:102080002C2046696C653A200046696C65206465C1
:102090006C657465643A004E6F742053442070720E
:1020A000696E74696E67005072696E742073617630
:1020B0006564005344207072696E7420706175739A
:1020C0006564002533642F253364004F4B00424183
:1020D000440052414D426F2046414E20006676003A
:1020E0007468780050524E0043524153485F434158
:1020F0004E43454C0043524153485F5245434F566F
:1021000045520043524153485F5245434F56455252
:1021100000222832290025533A2025530A002C207A
:102120004D39303720452069676E6F726564006EE7
:102130006F2076616C696420636F6D6D616E640001
:102140007A65726F72697A656400666163746F7232
:102150007920726573746F72656400696E64657866
:102160002C2074656D702C2075737465702C20752F
:102170006D0050494E44412063616C20737461745A
:1021800075733A2000503A005761697420666F7287
:102190002050494E44412074617267657420746513
:1021A0006D70657261747572653A0020410020504F
:1021B00000204200204C00205200205A00204E4FA8
:1021C0005420494E495449414C495A4544005368AA
:1021D0006565742000205A2056414C5545204F55C6
:1021E00054204F462052414E474500496E76616C5F
:1021F00069642073686565742049442E20416C6CC5
:102200006F7765643A20302E2E004155544F004CB4
:10221000414E472053454C20464F524345440020F1
:10222000643A0020693A0020703A0020643A0020A5
:10223000693A0020703A00256925250A002569259C
:10224000250A0022283129002F2F0030303030306D
:102250003030302D303030302D303030302D303087
:1022600030302D30303030303030303030303000A1
:1022700020555549443A002045585452554445523A
:102280005F434F554E543A31005072757361206967
:1022900033204D4B335300204D414348494E455F59
:1022A000545950453A00312E300020626173656404
:1022B000206F6E204D61726C696E204649524D57F9
:1022C0004152455F55524C3A68747470733A2F2FDF
:1022D0006769746875622E636F6D2F7072757361B4
:1022E00033642F50727573612D4669726D77617218
:1022F000652050524F544F434F4C5F5645525349FF
:102300004F4E3A004649524D574152455F4E414D5E
:10231000453A50727573612D4669726D77617265C9
:1023200020004D3131332053006F6B20006E2F6140
:10233000003F546F736869626120466C6173684145
:102340006972204765744950206661696C65640A4A
:1023500000000125311D0C4024301C0B45232F1B90
:102360000A17FF0406222B1A033637353825692051
:102370006D696E2C2025692073656300496E766156
:102380006C6964204D20636F64653A2025730A00F0
:1023900050494E44412070726F62652063616C69E0
:1023A00062726174696F6E207374617274004E6F33
:1023B0002050494E444120746865726D6973746F92
:1023C0007200736574006E6F7A7A6C65004D424CD2
:1023D000004652004C7A004C616E6700315F373521
:1023E0006D6D5F4D4B33532D45494E53795F313001
:1023F000612D453344763666756C6C005265760007
:10240000332E31332E302D5243312D3638353300B3
:1024100046697200534E20696E76616C69640053A0
:102420004E005245534554004D4D5552455300758D
:10243000766C6F0046414E0046414E50494E545313
:1024400054005052555341005345545F43484F5038
:102450005F005345545F535445505F005345545FEC
:10246000574156455F00544D435F00435241534826
:102470005F43414E43454C0043524153485F5245F0
:10248000434F5645520043524153485F44455445DB
:10249000435445440043524153485F00256C752026
:1024A0006279746573207772697474656E20746FD5
:1024B0002025532061742061646472657373203039
:1024C000782530346C780A00442564202D2052652C
:1024D00061642F57726974652025530A004D656148
:1024E000737572656420736B6577733A2025662077
:1024F00025660A0046697474696E67206661696CB6
:102500006564203D3E2063616C6962726174696F2D
:102510006E206661696C65642E0A0043616C6962B5
:10252000726174696F6E20737563636573732E0ACD
:1025300000416C6C20342063616C69627261746963
:102540006F6E20706F696E747320666F756E642E87
:102550000A00312F3400312F3400312F390020434D
:102560006F756E7420583A200045303A2564205229
:10257000504D2050524E313A25642052504D204546
:1025800030403A25752050524E31403A25750A00A8
:10259000526573656E640025533A20256C640A25E4
:1025A000530A005072696E7465722073746F707094
:1025B00065642064756520746F206572726F727334
:1025C0002E205375706572766973696F6E2072651F
:1025D0007175697265642E0064756D7020636C6539
:1025E000617265640A006E6F2064756D702061769B
:1025F00061696C61626C650A00443231202D207281
:102600006561642063726173682064756D700A008F
:102610006E6F2064756D7020617661696C61626CAB
:10262000650A0064756D7020636F6D706C6574650C
:102630006420696E20256C756D730A0058464C4104
:10264000534800454550524F4D005352414D0044B0
:102650002D31202D20456E646C657373206C6F6F77
:10266000700A0041637469766520457874727564F8
:1026700065723A203000496E76616C696420657835
:10268000747275646572005344207072696E746967
:102690006E6720627974652000257500556E6B6E3B
:1026A0006F776E20636F6D6D616E643A2022004D0E
:1026B00032303020496E76616C69642065787472BE
:1026C0007564657220007A5F6D61783A20007A5FE8
:1026D0006D696E3A2000795F6D61783A2000795F0C
:1026E0006D696E3A2000785F6D61783A200054522F
:1026F00049474745524544006F70656E00785F6DED
:10270000696E3A20005265706F7274696E67206559
:102710006E6473746F7020737461747573005349C1
:102720004C454E54004E4F524D414C002553204DC8
:102730004F44453A2050657263656E7420646F6E35
:10274000653A20256868643B207072696E74207455
:10275000696D652072656D61696E696E6720696E6D
:10276000206D696E733A2025643B204368616E6773
:102770006520696E206D696E733A2025640A0045F4
:102780006E642066696C65206C69737400426567CD
:10279000696E2066696C65206C69737400556E6B98
:1027A0006E6F776E20256320636F64653A20257312
:1027B0000A000A50494E44412074656D706572618B
:1027C000747572653A20252E3166205A2073686927
:1027D000667420286D6D293A20252E3366000A5331
:1027E0007465703A2025642F360A000A53746570A8
:1027F0003A2025642F362028736B69707065642930
:102800000A50494E44412074656D7065726174755B
:1028100072653A202564205A2073686966742028FE
:102820006D6D293A300A000A5A45524F3A20252E3A
:1028300033660A0073746172742074656D7065721A
:1028400061747572653A20252E31660A0025642070
:1028500020252E326600255320583A20252E356635
:1028600020593A20252E3566205A3A20252E3566E5
:102870000A00536C6565702E2E2E0045303A256493
:102880002052504D0A50524E303A25642052504D3D
:102890000A00556E657870656374656420657272B0
:1028A0006F72206F636375727265642E004D3630EF
:1028B000302046696C616D656E74204368616E6797
:1028C000652E204C6F61642061206E6577206669FB
:1028D0006C616D656E74206F7220656A656374202B
:1028E000746865206F6C64206F6E652E0052656D94
:1028F0006F76652074686520656A65637465642019
:1029000066696C616D656E742066726F6D207468A7
:10291000652066726F6E74206F6620746865204D46
:102920004D552E0046696C616D656E74206465744A
:10293000656374656420756E65787065637465643D
:102940006C792E20456E73757265206E6F206669F6
:102950006C616D656E74206973206C6F6164656471
:102960002E20436865636B207468652073656E7301
:102970006F727320616E6420776972696E672E00D2
:10298000496E7465726E616C2072756E74696D65E6
:10299000206572726F722E20547279207265736591
:1029A0007474696E6720746865204D4D55206F7290
:1029B000207570646174696E67207468652066694B
:1029C000726D776172652E004D4D55204657207609
:1029D000657273696F6E20697320696E636F6D70C5
:1029E000617469626C652077697468207072696EC1
:1029F0007465722046572E55706461746520746F3B
:102A00002076657273696F6E20332E302E312E0062
:102A10004D4D55204669726D7761726520696E74FF
:102A200065726E616C206572726F722C20706C65BD
:102A300061736520726573657420746865204D4DFF
:102A4000552E005265717565737465642066696CF6
:102A5000616D656E7420746F6F6C206973206E6F8A
:102A60007420617661696C61626C65206F6E2074A0
:102A70006869732068617264776172652E204368AB
:102A800065636B2074686520472D636F64652066FD
:102A90006F7220746F6F6C20696E646578206F753B
:102AA00074206F662072616E6765202854302D5443
:102AB00034292E0043616E6E6F7420706572666FEC
:102AC000726D2074686520616374696F6E2C206676
:102AD000696C616D656E7420697320616C726561EB
:102AE0006479206C6F616465642E20556E6C6F6133
:102AF000642069742066697273742E004D4D5520F0
:102B00006E6F7420726573706F6E64696E67206398
:102B10006F72726563746C792E20436865636B20F5
:102B200074686520776972696E6720616E642063DE
:102B30006F6E6E6563746F72732E004D4D55206E0F
:102B40006F7420726573706F6E64696E672E2043B8
:102B50006865636B2074686520776972696E6720A9
:102B6000616E6420636F6E6E6563746F72732E00A6
:102B70004D6F72652064657461696C73206F6E6C53
:102B8000696E652E005468652049646C6572206327
:102B9000616E6E6F7420686F6D652070726F706506
:102BA000726C792E20436865636B20666F722061BA
:102BB0006E797468696E6720626C6F636B696E67AB
:102BC00020697473206D6F76656D656E742E004399
:102BD000616E2774206D6F76652053656C65637434
:102BE0006F72206F722049646C65722E00546865A4
:102BF0002053656C6563746F722063616E6E6F74D1
:102C000020686F6D652070726F7065726C792E2010
:102C1000436865636B20666F7220616E79746869C2
:102C20006E6720626C6F636B696E672069747320D6
:102C30006D6F76656D656E742E004C6F6164696EA4
:102C40006720746F206578747275646572206661A0
:102C5000696C65642E20496E7370656374207468B6
:102C6000652066696C616D656E742074697020738F
:102C7000686170652E20526566696E6520746865AE
:102C80002073656E736F722063616C696272617428
:102C9000696F6E2C206966206E65656465642E0020
:102CA00053656C6563746F722063616E2774206D69
:102CB0006F76652064756520746F2046494E4441E7
:102CC00020646574656374696E6720612066696C51
:102CD000616D656E742E204D616B65207375726534
:102CE000206E6F2066696C616D656E74206973205B
:102CF000696E2053656C6563746F7220616E642029
:102D000046494E444120776F726B732070726F702A
:102D100065726C792E0046696C616D656E74207306
:102D2000656E736F7220747269676765726564207F
:102D3000746F6F206561726C79207768696C6520AB
:102D40006C6F6164696E6720746F2065787472754A
:102D50006465722E20436865636B207468657265D4
:102D60002069736E277420616E797468696E6720BC
:102D7000737475636B20696E2050544645207475DA
:102D800062652E20436865636B20746861742073EC
:102D9000656E736F722072656164732070726F70FC
:102DA00065726C792E0050756C6C6579206D6F744E
:102DB0006F72207374616C6C65642E20456E737540
:102DC0007265207468652070756C6C65792063612C
:102DD0006E206D6F766520616E6420636865636B3D
:102DE0002074686520776972696E672E0046696C89
:102DF000616D656E742073656E736F7220646964B3
:102E00006E277420737769746368206F6666207715
:102E100068696C6520756E6C6F6164696E672066A9
:102E2000696C616D656E742E20456E7375726520D8
:102E300066696C616D656E742063616E206D6F767E
:102E40006520616E64207468652073656E736F72AF
:102E500020776F726B732E0046696C616D656E74BE
:102E60002073656E736F72206469646E27742074BA
:102E7000726967676572207768696C65206C6F613D
:102E800064696E67207468652066696C616D656E43
:102E9000742E20456E7375726520746865207365A5
:102EA0006E736F722069732063616C696272617402
:102EB000656420616E64207468652066696C616D6C
:102EC000656E7420726561636865642069742E00A4
:102ED00046494E4441206469646E277420737769C3
:102EE000746368206F6666207768696C6520756E0C
:102EF0006C6F6164696E672066696C616D656E7484
:102F00002E2054727920756E6C6F6164696E672033
:102F10006D616E75616C6C792E20456E737572658E
:102F20002066696C616D656E742063616E206D6FE3
:102F3000766520616E642046494E444120776F7269
:102F40006B732E0046494E4441206469646E2774B9
:102F50002074726967676572207768696C65206C98
:102F60006F6164696E67207468652066696C616D65
:102F7000656E742E20456E737572652074686520C9
:102F800066696C616D656E742063616E206D6F762D
:102F90006520616E642046494E444120776F726B14
:102FA000732E0044697361626C650053746F700026
:102FB000456A656374004C6F616400556E6C6F61A7
:102FC000640052657365744D4D5500526574727995
:102FD00000426564206C6576656C696E6720666189
:102FE000696C65642E2053656E736F72206469642A
:102FF0006E277420747269676765722E204465625B
:10300000726973206F6E206E6F7A7A6C653F2057FD
:10301000616974696E6720666F722072657365748A
:103020002E004D6561737572696E67207265666505
:1030300072656E636520686569676874206F6620D5
:1030400063616C6962726174696F6E20706F696E22
:10305000740053656E736974697669747900446F9E
:103060006E65005265636F766572696E6720707277
:10307000696E7400544845524D414C20414E4F4DAD
:10308000414C5900526573756D696E6720707269A5
:103090006E740050494E44412048656174696E6702
:1030A0000043616C6962726174696F6E20646F6E57
:1030B000650043616C6962726174696E67205A00D1
:1030C00042656420646F6E650042656420486561F6
:1030D00074696E670048656174696E6720646F6E1D
:1030E000652E0048656174696E67004D4D5520700E
:1030F0006F776572206661696C73004D4D55206C69
:103100006F6164206661696C73004D4D5520666186
:10311000696C73004D6174657269616C20636861EC
:103120006E67657300546F74616C206661696C75BD
:103130007265730043726173680046696C2E207279
:10314000756E6F75747300506F7765722066616974
:103150006C75726573004C617374207072696E7463
:10316000206661696C7572657300546F74616C00E0
:103170004C617374207072696E7400416D62696590
:103180006E7400566F6C74616765730054656D7082
:1031900065726174757265730042656C7420737436
:1031A000617475730053656E736F7220696E666F1C
:1031B00000457874727564657220696E666F005898
:1031C000595A2063616C2E2064657461696C7300C8
:1031D0005072696E74657220495020416464723A7D
:1031E00000756E6B6E6F776E004D4D5520636F6E80
:1031F0006E656374656400446174653A00746F20A1
:10320000756E6C6F61642066696C616D656E7400CB
:10321000746F206C6F61642066696C616D656E749B
:1032200000507265737320746865206B6E6F620066
:1032300050726568656174696E6720746F2063758C
:10324000740050726568656174696E6720746F20E0
:10325000656A6563740050726568656174696E675C
:1032600020746F20756E6C6F6164005072656865C4
:103270006174696E6720746F206C6F616400436FC6
:103280006F6C646F776E0046696C616D656E74205B
:10329000657874727564696E672026207769746832
:1032A00020636F727265637420636F6C6F723F008E
:1032B0004175746F6C6F6164696E672066696C61DB
:1032C0006D656E74206973206163746976652C2066
:1032D0006A75737420707265737320746865206BEF
:1032E0006E6F6220616E6420696E73657274206611
:1032F000696C616D656E742E2E2E005072696E744D
:103300002074696D650046696C616D656E74207529
:1033100073656400546F74616C207072696E742000
:1033200074696D6500546F74616C2066696C616DC1
:10333000656E7400507265686561742074686520FC
:103340006E6F7A7A6C6521004552524F523A0052A4
:1033500069676874004C6566740059206469737409
:10336000616E63652066726F6D206D696E005365D6
:103370007665726520736B657700536C6967687456
:1033800020736B6577004D6561737572656420739A
:103390006B6577005B303B305D20706F696E742029
:1033A0006F66667365740041646A757374696E67ED
:1033B000205A004D494E54454D5020424544206608
:1033C00069786564004D494E54454D5020484F542E
:1033D000454E4420666978656400252E31305320BF
:1033E0000025346400457872656D65207370616EE8
:1033F000206F6620746865205A2076616C7565734D
:10340000210025642F39004D4D55323A0025336493
:1034100000180104190407442FD02E582EED2DA6B4
:103420002D162DA02C3A2CED2BCF2B852BCF2B70CE
:103430002B702B702B702B702B702B702B702B70B4
:103440002B702B702B702B702B702B702B702B70A4
:103450002B702B702B702B702B702B3B2BFC2AB4FA
:103460002A432A102AC82980292429ED28AD289228
:1034700028010101010101010271017101323232A1
:10348000030303030303030303030303030303030C
:103490000303039393243803930301025603650047
:1034A00066006700680069006A006B006C007300CA
:1034B00074007D007E00C900D300DD00CA00D40086
:1034C000DE002D01370141012E01380142012F019B
:1034D0003901430130013A01440131013B01450109
:1034E000320191019201F501F601F701F801F901AC
:1034F000FA01FB01FC018403CB2F5E30C22FBB2FEE
:10350000B62FB02FAE61AB2FA32F252E3230530A2A
:1035100070727573612E696F2F30342568750020C5
:10352000557067726164696E672078666C61736854
:103530000A20446F206E6F7420646973636F6E6E2F
:103540006563742100773235783230636C5F63666F
:103550006D0A00773235783230636C5F656E746562
:10356000720A0073746172740A007265636F766523
:10357000725F6D616368696E655F73746174655FC6
:1035800061667465725F706F7765725F70616E6996
:10359000632C20696E697469616C20005052555328
:1035A000412075766C6F004734205330004D323621
:1035B0002053256C75004D3130362053257500475A
:1035C0003120462564004D383200473932204525E8
:1035D0002D2E3366004D3230342050252D2E31668D
:1035E0002052252D2E31662054252D2E3166004780
:1035F00031205A252D2E3366005052555341204D0F
:10360000424C2056310047312058252D2E3366205C
:1036100059252D2E336620463330303000506F73DD
:103620006974696F6E20726561642066726F6D20C7
:10363000656570726F6D3A002C20666565646D7506
:103640006C7469706C793A00466565647261746582
:103650003A0047312045352046313230004D313077
:103660003920532564004D31343020532564004DFA
:103670003130342053256400473238205820590017
:103680004731205A252E336620463830300024F446
:10369000D43050C38E20C2A24017828B7011127A90
:1036A000910D816CD90AA861E108C758660761517C
:1036B00043061E4B5D05C145A7041A411104093D8F
:1036C0009803713931034036DB0265339102D430FF
:1036D0005402802E1D02632CEE01752AC501B0280C
:1036E000A001102781018F2564012B244B01E022CA
:1036F0003401AC211F018D200D01801FFC00841EB0
:10370000ED00971DDF00B81CD200E61BC600201B91
:10371000BC00641AB200B219A8000A19A0006A1805
:103720009900D117910040178B00B516840031160F
:103730007E00B31579003A157300C7146F00581452
:103740006A00EE1366008813630025135E00C7123B
:103750005B006C12570015125400C111510070111A
:103760004F0021114B00D61049008D104700461024
:10377000440002104200C00F4000800F3E00420F84
:103780003C00060F3B00CB0E3800930E37005C0E5A
:103790003500270E3400F30D3200C10D3100900DBD
:1037A0003000600D2E00320D2D00050D2C00D90CBF
:1037B0002B00AE0C2900850C29005C0C2700350C71
:1037C00027000E0C2600E80B2400C40B2400A00BDD
:1037D00023007D0B23005A0B2100390B2100180B0D
:1037E0002000F80A1F00D90A1E00BB0A1E009D0A0D
:1037F0001D00800A1D00630A1C00470A1B002C0ADA
:103800001B00110A1A00F7091A00DD091900C40982
:103810001900AB091900920917007B091800630908
:1038200017004C09160036091600200916000A096F
:103830001500F5081500E0081400CC081400B808BD
:103840001400A4081400900813007D0812006B08EF
:10385000130058081200460812003408110023080B
:1038600011001208110001081100F0071000E00714
:103870001000D0071000C0071000B0070F00A1070C
:10388000100091070E0083070F0074070F006507F3
:103890000E0057070E0049070E003B070D002E07CC
:1038A0000E0020070D0013070D0006070D00F90696
:1038B0000C00ED060D00E0060C00D4060C00C80656
:1038C0000C00BC060C00B0060C00A4060B00990608
:1038D0000C008D060B0082060B0077060B006C06B1
:1038E0000B0061060A0057060B004C060A00420650
:1038F0000A0038060A002E060A0024060A001A06E4
:103900000A001006090007060A00FD050900F40573
:103910000900EB050900E2050900D9050900D005F9
:103920000900C7050900BE050900B5050800AD0579
:103930000800A50509009C050800940508008C05F1
:103940000800840508007C050800740508006C0563
:103950000700650508005D050700560508004E05CF
:103960000700470507004005080038050700310536
:1039700007002A050700230507001C050600160599
:1039800007000F0507000805060002050700FB04F5
:103990000600F5040700EE040600E8040600E20451
:1039A0000700DB040600D5040600CF040600C904A6
:1039B0000600C3040600BD040600B7040600B104F7
:1039C0000500AC040600A6040600A00405009B0444
:1039D000060095040500900406008A04050085048D
:1039E0000500800406007A040500750405007004D3
:1039F00005006B04050066040500610405005C0415
:103A0000050057040500520405004D040500480454
:103A10000500430405003E0404003A040500350493
:103A20000500300404002C040500270404002304CE
:103A300005001E0404001A04040016040500110405
:103A400004000D040400090405000404040000043B
:103A50000400FC030400F8030400F4030400F00372
:103A60000400EC030400E8030400E4030400E003A2
:103A70000400DC030400D8030400D4030400D003D2
:103A80000400CC030400C8030300C503030024F4AE
:103A900004D9201BC40C5C0E9804C4095F0265079E
:103AA0007101F405F900FB04B30048048700C10369
:103AB00069005803550003034500BE023A00840222
:103AC000310053022A002902250004022000E401EB
:103AD0001C00C8011900AF011700980114008401EF
:103AE0001300710110006101100051010E0043012B
:103AF0000D0036010B002B010B0020010B001501FE
:103B000009000C01090003010800FB000800F30094
:103B10000800EB000700E4000600DE000600D80005
:103B20000600D2000600CC000500C7000500C20058
:103B30000500BD000400B9000400B5000400B10098
:103B40000400AD000400A9000400A5000300A200C9
:103B500003009F0004009B000300980003009500F1
:103B6000020093000300900003008D0002008B0010
:103B70000300880002008600020084000300810028
:103B800002007F0002007D0002007B00020079003D
:103B9000020077000100760002007400020072004B
:103BA0000100710002006F0002006D0001006C0056
:103BB00002006A000100690002006700010066005F
:103BC0000100650001006400020062000100610064
:103BD0000100600001005F0002005D0001005C0068
:103BE00001005B0001005A0001005900010058006B
:103BF000010057000100560001005500010054006B
:103C00000100530000005300010052000100510068
:103C10000100500001004F0001004E0000004E0066
:103C200001004D0001004C0001004B0000004B0062
:103C300001004A000100490001004800000048005E
:103C40000100470001004600000046000100450059
:103C50000000450001004400010043000000430053
:103C6000010042000000420001004100000041004C
:103C70000100400001003F0000003F0001003E0045
:103C800000003E0001003D0000003D0001003C003E
:103C900000003C0000003C0001003B0000003B0035
:103CA00001003A0000003A0001003900000039002C
:103CB0000100380000003800000038000100370023
:103CC000000037000100360000003600000036001A
:103CD000010035000000350000003500010034000F
:103CE0000000340000003400010033000000330005
:103CF00000003300010032000000320000003200FA
:103D000001003100000031000000310001003000EE
:103D1000000030000000300001002F0000002F00E4
:103D200000002F0000002F0001002E0000002E00D8
:103D300000002E0001002D0000002D0000002D00CD
:103D400000002D0001002C0000002C0000002C00C1
:103D500000002C0001002B0000002B0000002B00B5
:103D600000002B0001002A0000002A0000002A00A9
:103D700000002A000100290000002900000029009D
:103D80000000290000002900010028000000280090
:103D90000000280000002800000028000100270083
:103DA0000000270000002700000027000000270077
:103DB000010026000000260000002600000026006A
:103DC000000026000100250000002500000025005D
:103DD000000025000000250000002500010024004F
:103DE0000000240000002400000024000000240043
:103DF0000100230000002300000023000000230036
:103E00000000230000002300000023000100220026
:103E1000000022000000220000002200000022001A
:103E2000000022000100210000002100000021000C
:103E300000002100000021000000210000002100FE
:103E400001002000000020000000200000002000F1
:103E500000002000000020000000200000002000E2
:103E600001001F0000001F0000001F0000001F00D5
:103E700000001F0000001F0000001F0001001E00C6
:103E800000001E0000001E0000001E00000050493F
:103E900044204175746F74756E652066696E697330
:103EA000686564212050757420746865206C6173A6
:103EB00074204B702C204B6920616E64204B642071
:103EC000636F6E7374616E74732066726F6D2061C0
:103ED000626F766520696E746F20436F6E666967E6
:103EE00075726174696F6E2E680050494420417587
:103EF000746F74756E65206661696C6564212074E9
:103F0000696D656F75740020403A00543A00423A7A
:103F100000504944204175746F74756E6520666168
:103F2000696C6564212054656D7065726174757289
:103F30006520746F6F206869676800204B643A20C1
:103F400000204B693A2000204B703A200020436C3F
:103F500061737369632050494420002054753A20EE
:103F600000204B753A2000206D61783A2000206DCA
:103F7000696E3A200020643A200020626961733A39
:103F80002000504944204175746F74756E6520732C
:103F90007461727400504944204175746F74756E79
:103FA00065206661696C65642E20426164206578D5
:103FB000747275646572206E756D6265722E005440
:103FC0004D4C20256420256420257820256C782000
:103FD000256C780A004D494E54454D50004D494ED0
:103FE00054454D5020424544004D494E54454D5096
:103FF00020414D42004D415854454D50004D4158CF
:1040000054454D5020424544004D415854454D5073
:1040100020414D4200544D3A206572726F72206308
:104020006C656172656400544D3A206572726F72FE
:10403000207472696767657265642100544D3A2087
:104040006572726F72207C25667C3E25660A007060
:10405000012C0190012701B0012201C0011D01F0D6
:104060000118011002130130020E016002090190D3
:10407000020401C002FF000003FA004003F50080C3
:1040800003F000D003EB002004E6007004E100E040
:1040900004DC004005D700C005D2004006CD00D0AA
:1040A00006C8008007C3003008BE00F008B900C091
:1040B00009B400B00AAF00B00BAA00D00CA50000F4
:1040C0000EA000500F9B00C01096005012910000EF
:1040D000148C00C0158700B0178200B0197D00D085
:1040E0001B7800001E730040206E0090226900F0D3
:1040F00024640040275F0090295A00E02B550010EF
:104100002E500020304B0010324600E0334100902A
:10411000353C001037370070383200A0392D00B020
:104120003A2800A03B2300603C1E00103D1900907F
:104130003D1400103E0F00703E0A00C03E05000016
:104140003F000090137D00B0157800F017730060F9
:104150001A6E00F01C6900A01F640050225F00204E
:10416000255A00E0275500902A5000202D4B00A032
:104170002F4600F031410010343C00F0353700A0EC
:1041800037320020392D00603A2800703B23006050
:104190003C1E00203D1900C03D1400403E0F00A011
:1041A0003E0A00F03E0500403F0000703FFBFF90DC
:1041B0003FF6FFB03FF1FFC03FECFFD03FE7FFE02D
:1041C0003FE2FFF03FDDFFF03FD8FF20484F54456E
:1041D0004E4420544845524D414C2052554E415773
:1041E00041590020484541544245442054484552D5
:1041F0004D414C2052554E4157415900544845526B
:104200004D414C2052554E415741590042454420A2
:10421000544845524D414C2052554E41574159004A
:1042200020544845524D414C2052554E415741591A
:1042300020285052454845415420484F54454E444B
:10424000290020544845524D414C2052554E41576B
:104250004159202850524548454154204845415431
:104260004245442900505245484541542045525248
:104270004F52004245442050524548454154204544
:1042800052524F52002074726967676572656421EB
:10429000004865617465727320737769746368653B
:1042A00064206F66662E20003A20004572723A2024
:1042B0000000FF0102010002FFFFFE0001FE01FFFE
:1042C00000506C656173652072657374617274006F
:1042D000544D3A20696E76616C6964207061726138
:1042E0006D65746572732C2063616E6E6F742065EA
:1042F0006E61626C6500255320204D3331302050B3
:10430000252E32662055252E34662056252E3266FF
:104310002043252E32662044252E3466204C2575F8
:1043200020532575204225752045252E32662057BD
:10433000252E32662054252E32660A002553202071
:104340004D333130204925752052252E32660A0022
:10435000546865726D616C204D6F64656C20736587
:104360007474696E67733A000000A441333393415B
:104370009A998541333373419A996141CDCC544127
:1043800033334B419A99414133333B41CDCC344196
:1043900000003041CDCC2C419A99294166662641D6
:1043A000333323419A992141452D6D6F746F7220EB
:1043B00063757272656E74207363616C696E6720D9
:1043C000656E61626C656400746D63323133305FB9
:1043D000686F6D655F656E74657228617865735F7F
:1043E0006D61736B3D307825303278290A00746D29
:1043F00063323133305F686F6D655F657869742053
:10440000746D63323133305F73675F686F6D696EEF
:10441000675F617865735F6D61736B3D30782530E0
:1044200032780A00726573756C742076616C7565FC
:104430003A2025640A0020693D25326420636E74A9
:104440003D2532642076616C3D2532640A00636C40
:104450007573746572733A0020693D253264207368
:104460007465703D2532640A00736F727465642050
:1044700073616D706C65733A003A2000252D3132FE
:104480002E313253252D642F36002533642F252DF0
:10449000336400203A200025335300252D37730064
:1044A000252D31352E313553252D35640A252D31F5
:1044B000352E313553252D35640A0025530A202524
:1044C0002D31362E313653252D33640A20252D31DA
:1044D000362E313653252D33640025530A20252DE1
:1044E00031362E313653252D33640A20252D3136B1
:1044F0002E313653252D33640A20252D31362E31A9
:104500003653252D33640025530A20252D31362EB0
:10451000313653252D33640A20252D31362E313680
:1045200053252D33640A20252D372E375358202547
:104530002D336420205920252D3364002025732538
:10454000336481200A000A204952203A202020208A
:1045500020202025332E31665600205057523A2015
:10456000202020202025342E3166560A2042454442
:104570003A20202020202025342E31665600255355
:104580000A20582025640A20592025640025752E0C
:1045900025752E25752E25750020002000466C619E
:1045A000736841697220495020416464723A004D39
:1045B0004D5520202020202020204E2F4100256412
:1045C0002E25642E2564002046573A0046696C2E3D
:1045D0002073656E736F7220762E3A004E6F7620D0
:1045E0003138203230323300453344763666756CCC
:1045F0006C0045494E53795F31306100315F37358A
:104600006D6D5F4D4B33530020486173683A300045
:10461000205265706F3A50727573613364002033B5
:104620002E31332E302D5243312D3638353300465E
:1046300069726D776172653A00464C4558202D20AD
:10464000203234302F353000464C4558202D202064
:104650003234300050502020202D20203235342F8D
:104660003130300050502020202D202032353400B1
:1046700048495053202D20203232302F3130300025
:1046800048495053202D20203232300041425320DF
:10469000202D20203235352F31303000414253203B
:1046A000202D20203235350050412020202D202083
:1046B0003237352F39300050412020202D20203234
:1046C00037350050564220202D20203231352F37EB
:1046D000350050564220202D2020323135005043E5
:1046E0002020202D20203237352F3131300050430B
:1046F0002020202D20203237350041534120202D0D
:1047000020203236302F3130350041534120202DCA
:1047100020203236300050455420202D20203233C6
:10472000302F38350050455420202D202032333092
:1047300000504C4120202D20203231352F363000C2
:10474000504C4120202D2020323135006E6F7A7A76
:104750006C65202D20203235302F30006661726D5F
:104760002020202D20203235302F383000252D31CB
:10477000322E313253252B382E3166004578747233
:10478000756465723A0025632531372E32666D6D8A
:1047900000583A00593A005A3A002563252D313322
:1047A0002E313353252B352E336600312F390088B7
:1047B0000020746F6F206C6F6E672065787472755F
:1047C00073696F6E2070726576656E746564002023
:1047D000636F6C6420657874727573696F6E207096
:1047E000726576656E746564004D6F7665206162F2
:1047F0006F7274656400504F5745522050414E49C6
:10480000432044455445435445440055564C4F209D
:104810002D20656E642025640A0055564C4F5F5468
:10482000494E59202D20656E642025640A00776F5B
:10483000726C6420636F6F7264696E617465733A41
:104840002028252E33662C20252E33662C20252E5D
:104850003366290A004D3232302053256400446FFC
:104860006E652072656164696E6720454550524FE0
:104870004D0A0054656D70657261747572652052E1
:104880006573746F7265640A0047312045252D2ECB
:10489000336620463237303000544D43204452496D
:1048A000564552204F56455254454D5000486F6C66
:1048B000642063757272656E74207472756E6361C4
:1048C00074656420746F2052756E20637572726512
:1048D0006E740025632533642F256481005A2536C4
:1048E0002E32662563005A2020202D2D2D20008693
:1048F0002533642525002D2D2D2525002533642500
:104900002500205344002020200020484F0020464E
:10491000524D2000872D2D3A2D2D20200087253344
:10492000756820256325630087253032753A253068
:10493000327525632563002F2F20616374696F6EC4
:104940003A706175736564002F2F20616374696F1D
:104950006E3A70617573650044756D70206D656D9C
:104960006F72790068656C702E7072757361336454
:104970002E636F6D00666F72756D2E707275736148
:1049800033642E636F6D00707275736133642E63D0
:104990006F6D004D3730310025533A0A2531382EDE
:1049A00032666D200A25533A0A2531306C6468203E
:1049B000253032646D2025303264730025533A0A65
:1049C0002531382E32666D200A25533A0A253130BA
:1049D0006C646420253032646820253032646D00B8
:1049E00025362E32666D6D0025530A25530A255350
:1049F0003A0A25533A0025332E32668100252D319F
:104A0000342E3134533A0A25530A252D31342E31B0
:104A100034533A25332E3266810A252D31342E3116
:104A200034533A25332E32668100473120583130D5
:104A30002059313830204634303030004731205A48
:104A40003130204631333030004D31343020533056
:104A5000004D31303420533000473120452D302E69
:104A6000303735204632313030004731204634303F
:104A70003030004D32303420533130303000473147
:104A8000205A3520463732303000473120452D310D
:104A90002E35204632313030004739300047312042
:104AA0005835204534204631303030004731205AC7
:104AB000302E3220463130303000473120583535E5
:104AC0002045323520463134303000473120592DD1
:104AD00032204631303030004731205832343020D7
:104AE00045323520204632323030004731205A30AE
:104AF0002E332046313030300047312058353520B4
:104B00004538204632303030004731205835204576
:104B10003239204631383030004731205835352081
:104B2000453239204631303733004739322045305D
:104B300000473238004D313039004D3139300010E6
:104B400000C90210012C014001220170011801B0BE
:104B5000010E01F00104015002FA00B002F0003031
:104B600003E600D003DC009004D2007005C800A06A
:104B700006BE000008B400B009AA00D00BA0006077
:104B80000E960060118C000015820020197800C07C
:104B90001D6E00A0226400B0275A00902C50000027
:104BA000314600E0343C0010383200903A28006072
:104BB0003C1E00A03D1400803E0A00203F0000255E
:104BC00033750050494E44412063616C69627261E3
:104BD00074696F6E206661696C65642E20436F6E28
:104BE00074696E7565207769746820707265737377
:104BF000696E6720746865206B6E6F622E00504985
:104C00004E44412063616C6962726174696F6E2009
:104C1000646F6E652E20436F6E74696E75652077C4
:104C2000697468207072657373696E672074686553
:104C3000206B6E6F622E00473830004D3435004DCA
:104C40003435205A00473736004D37303120503048
:104C50000057697A6172642073746174653A202523
:104C6000640A004578706572696D656E74616C00E8
:104C70004673656E736F7220446574656374696F03
:104C80006E00302E383000302E363000302E34306A
:104C900000302E32350044697361626C65206661B4
:104CA000726D206D6F6465005265736574204D4DA3
:104CB00055004D4D55004D34340047393900446995
:104CC0007361626C65206661726D206D6F64653F13
:104CD000004D20383400852E2E00593A20257520AD
:104CE0002D3E202E2E2E00583A202575202D3E20B8
:104CF0002E2E2E0046696C616D656E742073656E94
:104D0000736F7220626F617264206368616E6765A1
:104D10002064657465637465643A207265766973AE
:104D2000696F6E25530A004D656173757265642065
:104D300066696C616D656E742073656E736F722049
:104D40006C6F77206C6576656C3A2025342E326660
:104D5000560A004D656173757265642066696C6101
:104D60006D656E742073656E736F72206869676815
:104D7000206C6576656C3A2025342E3266560A0022
:104D80002533642F30002533642F3000000040416C
:104D90000000C04000005C430000C04000005C43D5
:104DA0000000464300004041000046432563204187
:104DB000584953205347313D25640A00486F7465B4
:104DC0006E6400426564005A00590058002D2D2D74
:104DD0002D2D2D2D2D2D2D2D2D2D2D2D2D2D2D2D03
:104DE0002D00435A5058496E76616C696453657260
:104DF00069616C4E7200B152594A514A494A3C4A63
:104E00002A4A473120582564205925642045252DFC
:104E10002E3566004731204631303830004731208A
:104E20005A252D2E33662046373230300047312048
:104E30005835302059313535002A4B994A0C548A5F
:104E40004A7E4A734A6A4A473120582564204525DC
:104E50002D2E336620463130303000194B094BF986
:104E60004AEB4A2A4BD84ACB4ABA4AAC4A9D4A54E2
:104E70002564004731205A302E34204631303030FE
:104E800000473120592D3320463130303000B152A7
:104E90003A4B354B314B2A4B4D3834205859004D45
:104EA00031303920533238300047312058313235D3
:104EB000205A323030204631303030004D333130DE
:104EC00020412046310047312058313235205931B8
:104ED0003035205A3120463830303000496E766106
:104EE0006C6964205049442063616C2E20726573A4
:104EF000756C74732E204E6F742073746F726564BA
:104F000020746F20454550524F4D2E004D333031A7
:104F10002050252E32662049252E32662044252E2B
:104F20003266004D33303320453020532533750031
:104F30004D393134004D3931350052430044455626
:104F4000004245544100414C5048410000002100BE
:104F5000240027002A002D0030003300010100004A
:104F6000040107010A0100002200250028002B008F
:104F70002E003100340002010000050108010B0180
:104F8000000020002300260029002C002F00320002
:104F900000010000030106010901050505050705DB
:104FA00008080808020202020A0A080804040404A5
:104FB00001010101010101010303030303030303D1
:104FC000040707070C0C0C0C0C0C0C0C0202020260
:104FD00006060606060606060B0B0B0B0B0B0B0B49
:104FE00007070A0A0A0A0A0A05050504040408084C
:104FF00001021020200808102040102040800201EB
:1050000002010804020101020408102040808040CF
:1050100020100804020180040201804020100804CE
:10502000020108040201010204081020408001026C
:10503000040810204080100804088010204004401C
:1050400080102040048000000A0B02090C0D0E089D
:105050000703040100000000000000000000000041
:105060000000000000000000000000000000000040
:1050700000001211100000000000000000000000FD
:105080000000000000000000000000000000000020
:10509000000000000000000000000000332E31334B
:1050A0002E302D524331000A204F726967696E61BC
:1050B0006C2050727573612069330A202020507271
:1050C0007573612052657365617263680A253230B9
:1050D0002E32305300435A5058003B530053706FE8
:1050E0006F6C4A6F696E20697320006164635F6949
:1050F0006E697400200A200A200A2000416C6C208E
:1051000044617461005365727669636520707265ED
:1051100070005368697070696E6720707265700006
:1051200053746174697374696373004C616E67755D
:105130006167650045524153494E4720616C6C20C0
:105140006461746100466163746F727920524553E3
:1051500045540050525553413344465700494E542C
:10516000340003000D0000002100030002000000D5
:1051700004004E4F4354554100414C5446414E00AB
:10518000286E6F6E652C2064656661756C74206393
:105190006F6E66696729004E6F7620313820323095
:1051A00032332031333A32303A35390020332E3120
:1051B000332E302D5243312D363835330073746120
:1051C000727400534E207570646174652066616965
:1051D0006C656400534E20757064617465640043AF
:1051E0005A50580043524153485F44455445435434
:1051F000454458590043524153485F444554454340
:10520000544544590043524153485F444554454333
:1052100054454458004D323900252D392E39535B01
:10522000004731205825642059252D2E326620450F
:10523000252D2E336600544D20657374696D61749D
:10524000696F6E20646964206E6F7420636F6E7680
:105250006572676500544D20697465723A25752042
:10526000763A252E326620653A252E33660A005797
:10527000726974696E6720746F2066696C653A2084
:105280000046696C6520616C7265616479206F709D
:10529000656E65640033332942000058419A998D48
:1052A0004133335340200A200A20004D4D55323AF5
:1052B000004D313037002020300020203100464999
:1052C0004E44410050494E44410057697A6172642E
:1052D00020656E642073746174653A2025640A0049
:1052E00053706F6F6C4A6F696E004669726D7761BB
:1052F00072650048426564206F6E206C6F616400C7
:10530000466C61736841697200546865726D616CC6
:10531000204D6F64656C2063616C2E004572723A9B
:105320005052494E542046414E204552524F520051
:105330004572723A484F54454E442046414E2045EE
:1053400052524F52002F2F20616374696F6E3A7270
:105350006573756D6564002F2F20616374696F6ECE
:105360003A726573756D65002F2F20616374696FE4
:105370006E3A63616E63656C0041786973206C6599
:105380006E67746820646966666572656E63653A07
:10539000252E33660A004D65617375726564206160
:1053A000786973206C656E6774683A252E33660AD7
:1053B000004F4B004C434420737461747573206339
:1053C00068616E6765640053442063617264207293
:1053D000656C65617365640046616B652073657219
:1053E00069616C206E756D62657200452D636F6F2B
:1053F0006C206D6F646500414C5446414E206465DD
:10540000742E004D3834004D373032004D383300A3
:105410004732382057004D3530300045787465727A
:105420006E616C2053504920666C6173680A58465F
:105430004C415348206973206E6F74207265732D40
:105440000A706F6E64696E672E204C616E677561BD
:1054500067650A73776974636820756E6176616940
:105460006C61626C652E0058464C415348206E6F4B
:105470007420726573706F6E64696E672E00465794
:105480002063726173682064657465637465642168
:1054900020596F752063616E20636F6E74696E753D
:1054A00065207072696E74696E672E20446562753E
:1054B00067206461746120617661696C61626C650A
:1054C00020666F7220616E616C797369732E204360
:1054D0006F6E7461637420737570706F7274207472
:1054E0006F207375626D69742064657461696C7393
:1054F0002E002F2F20616374696F6E3A64756D7092
:105500005F617661696C61626C65004372617368AA
:1055100044657465637420454E41424C4544210006
:1055200043726173684465746563742044495341F0
:10553000424C454400486F74656E642066616E207D
:10554000747970653A20002020506C616E6E65722F
:1055500042756666657242797465733A200020462A
:10556000726565204D656D6F72793A2000207C2050
:10557000417574686F723A2000204C617374205535
:105580007064617465643A200020536F66747761BB
:105590007265205265736574002057617463686496
:1055A0006F67205265736574002042726F776E20BA
:1055B0006F75742052657365740020457874657248
:1055C0006E616C20526573657400506F776572551B
:1055D00070006572726F722077726974696E6720ED
:1055E000746F2066696C6500446F6E652073617628
:1055F000696E672066696C652E006F6B005265618D
:10560000722073696465205BE46D5D0046726F6EA5
:105610007420736964655BE46D5D0052696768744A
:1056200020736964655BE46D5D004C65667420738E
:10563000696465205BE46D5D005365742074656D7D
:1056400070657261747572653A0050494E4441202C
:1056500063616C6962726174696F6E206661696C06
:1056600065640050494E44412063616C6962726117
:1056700074696F6E2069732066696E69736865640A
:1056800020616E64206163746976652E2049742000
:1056900063616E2062652064697361626C65642079
:1056A000696E206D656E752053657474696E6773DD
:1056B0002D3E50494E44412063616C2E0045787464
:1056C0007275646572004D6F7665205A004D6F7675
:1056D000652059004D6F76652058004372617368EC
:1056E00020646574656374696F6E2063616E0A621D
:1056F00065207475726E6564206F6E206F6E6C79B4
:1057000020696E0A4E6F726D616C206D6F6465006A
:105710005741524E494E473A0A43726173682064BA
:105720006574656374696F6E0A64697361626C6540
:105730006420696E0A537465616C7468206D6F64CF
:1057400065004D6F6465206368616E676520696EF2
:105750002070726F67726573732E2E2E005368650A
:10576000657420252E37730A5A206F666673657438
:105770003A20252B312E33666D6D0A2563436F6EFB
:1057800074696E75650A2563526573657400506CA3
:1057900065617365206C6F61642066696C616D651D
:1057A0006E742066697273742E003E43616E636589
:1057B0006C0052756E6E696E672057697A6172640B
:1057C0002077696C6C2064656C6574652063757204
:1057D00072656E742063616C6962726174696F6E68
:1057E00020726573756C747320616E6420737461CC
:1057F00072742066726F6D207468652062656769D7
:105800006E6E696E672E20436F6E74696E75653FAC
:105810000050726568656174696E67206E6F7A7A90
:105820006C652E20506C6561736520776169742EFC
:1058300000506C6561736520696E736572742066D3
:10584000696C616D656E7420696E746F2074686533
:105850002065787472756465722C207468656E209A
:10586000707265737320746865206B6E6F6220744C
:105870006F206C6F61642069742E00506C656173D9
:105880006520696E736572742066696C616D656E02
:105890007420696E746F2074686520666972737411
:1058A0002074756265206F6620746865204D4D55C3
:1058B0002C207468656E207072657373207468653F
:1058C000206B6E6F6220746F206C6F61642069744E
:1058D0002E00546865207072696E74657220776955
:1058E0006C6C207374617274207072696E74696E6E
:1058F000672061207A69672D7A6167206C696E651F
:105900002E20526F7461746520746865206B6E6F11
:105910006220756E74696C20796F752072656163A1
:105920006820746865206F7074696D616C206865AB
:10593000696768742E20436865636B20746865200E
:10594000706963747572657320696E207468652070
:1059500068616E64626F6F6B202843616C6962726C
:105960006174696F6E2063686170746572292E00BE
:1059700053656C6563742074656D706572617475D0
:105980007265207768696368206D61746368657308
:1059900020796F7572206D6174657269616C2E007B
:1059A00053656C65637420612066696C616D656E1A
:1059B0007420666F72207468652046697273742063
:1059C0004C617965722043616C6962726174696FC0
:1059D0006E20616E642073656C6563742069742049
:1059E000696E20746865206F6E2D73637265656ED5
:1059F000206D656E752E004E6F7720492077696C9B
:105A00006C2063616C69627261746520646973748F
:105A1000616E6365206265747765656E2074697078
:105A2000206F6620746865206E6F7A7A6C652061DD
:105A30006E64206865617462656420737572666166
:105A400063652E00506C6561736520636865636BE8
:105A5000206F75722068616E64626F6F6B20616E7B
:105A60006420666978207468652070726F626C6566
:105A70006D2E205468656E20726573756D65207497
:105A800068652057697A6172642062792072656264
:105A90006F6F74696E6720746865207072696E74C8
:105AA00065722E00416C6C20697320646F6E652EE8
:105AB000204861707079207072696E74696E672118
:105AC00000596F752063616E20616C776179732076
:105AD000726573756D65207468652057697A6172A7
