:100000000C94713E0C94A23E0C94A23E0C94A23E21
:100010000C94A23E0C947BFA0C94A23E0C94CF4B11
:100020000C94EC4B0C94A23E0C94A23E0C94A23E79
:100030000C94A3520C94A23E0C94A5D40C942E7F45
:100040000C94A23E0C94DFDC0C94A23E0C94A23ED5
:100050000C94A23E0C94A23E0C94A23E0C94224B13
:100060000C94A23E0C9468570C94A23E0C94A23EB1
:100070000C94A23E0C94384E0C94A23E0C94A23EDA
:100080000C94A23E0C94A23E0C94A23E0C94A23E70
:100090000C9424570C94A23E0C94A23E0C94A23EC5
:1000A0000C94A23E0C94A23E0C947E610C94A23E51
:1000B0000C94A23E0C9460610C94A23E0C94F7D96F
:1000C0000C94A23E0C94A23E0C94A23E0C9420618F
:1000D0000C94A23E0C94A23E0C94A23E0C94A23E20
:1000E0000C94A23E084AD73B3BCE016E84BCBFFDB8
:1000F000C12F3D6C74319ABD56833DDA3D00C77FF8
:1001000011BED9E4BB4C3E916BAAAABE0000008090
:100110003F05A84CCDB2D44EB93836A9020C50B91F
:10012000918688083CA6AAAA2ABE000000803F0744
:10013000634236B79BD8A71A39685618AEBAAB5582
:100140008C1D3CB7CC5763BD6DEDFD753EF6177247
:1001500031BF000000803F08000000BE9224491219
:100160003EABAAAA2ABECDCCCC4C3E00000080BE3D
:10017000ABAAAAAA3E00000000BF000000803F001A
:1001800000000000084178D3BB4387D1133D190E0E
:100190003CC3BD4282AD2B3E68EC8276BED98FE176
:1001A000A93E4C80EFFFBE01C4FF7F3F000000006E
:1001B00000000D9423460D945B1D0D9474350D9431
:1001C0004B5A0D943D2D0D94E59E0D9426530D94A0
:1001D00060350D9419350D94A51E0D94FD570D94A1
:1001E000EF570D9477430D948B240D9492980D94B2
:1001F000D7300D9429250D9434550D94132E0D945C
:100200006C240D9415250D94E6130D94301F0D9458
:10021000D4980D9447350D94BE130D9472290D9406
:10022000D5280D94932E0D94DE130D94162E0D9457
:10023000E1250D944B390D94A51B0D940B240D94C1
:10024000FE130D949F9E0D9448170D94DA280D947B
:100250007A2A0C9479C50C942DCB0D94B83B0D944F
:10026000AE1E0D9433350D948A560C94EBCA0D9442
:10027000332D0D9431140D9447530D94F6130D94B2
:10028000E64B0D941C290D94D6130C94993F0C94B5
:10029000E4400D9409250D942D480D94EC980C9490
:1002A00095400C94934B0D94D0280D941A2F0D94D7
:1002B000F1560D949F1B0D949C1B0D94682D0D946D
:1002C0009A240C945CC50D94B5520D9435180D9478
:1002D000C6580D94351F0D947A570D94F5570D940B
:1002E0000D1A0D94E4280D942F3E0D94102E0D94AC
:1002F0007A1E0D94A4530C9495CA0D9460530D94DA
:100300004E4B0D94EE340D948E1E0D94AE130D9441
:10031000EA380D9401580D94E1240D94072C0D94A6
:1003200016400D940F350D9491430D94921E0D942B
:100330009E150D942D170D949C1E0C946D4D0D94CF
:1003400005350D9488350D94B42C0D946A350D94B3
:10035000FD3B0D942B130C9416C30D9438130C9481
:10036000B13F0D94192E0D941C2E0D94EE120D9488
:100370000B280D9463270D94F53C0D9453190D949F
:10038000049F0D943D350D94F23F0C945B4B0D94FE
:1003900029350C94A8CA0D94CC2D0D9404400D94CD
:1003A000992E0D94AA1B0D94C6280D94A21B0D9492
:1003B0000D2E0D94CD2E0D94DA250D949D260D94C1
:1003C000FE3F0D94DC2D0C94C84B0D94BA240D9473
:1003D00021350C94414B0D94B71A0D94CD240D94F6
:1003E000C9BA0D94AA1E0D9494530D94B9430D945B
:1003F000F0190D9478520C9436C30D948A1E0D9406
:10040000B81E0D94FD230D948D180D94002B0D94A2
:10041000DF280D94E9980D940C450D94252E0C942D
:100420006DC50D94E8280D9412240D942E550C944E
:1004300058C50D9422400D949B130D94169F0D9456
:1004400019240D94F9390D94089F0D94A3130D945C
:1004500089A50D94C1280D94EF980D945C530D94CB
:10046000731E0D94F5240D94CB2E0C94664B0D94B5
:100470007E350C9458C90D943C3A0D9440250D944A
:1004800035130D94A6130D94831D0D9419400D94EE
:10049000CE130C948A4B0D943F170D9434520D9447
:1004A000A52E0D94B53F0D94C6130D9466180D94AA
:1004B00060240D949E130D943D120D94A3430C944F
:1004C0001D4B0D94119F0D94651E0D946F1E0C9481
:1004D00002C40D94ED520D94541A0D9479980D9414
:1004E00036170D94F9570C941ECB0D94384B0D9480
:1004F000DB520D94771E0D942F180D9423270D9425
:10050000A01E0C94F2E70D94FB340D949B190D94EE
:1005100073440D9406130D945C150D94801E0D9478
:10052000BC2E0C94C0570D94019F0D9417580D9438
:100530001A0E0D947F240C94B64B0D9469130D94F0
:10054000CB180D946B1E0D9401400D9499270D94BA
:10055000A5240D94C0590C9446CB0D9456350D949A
:1005600070250D942E130D94B11D0D94B0240D948F
:10057000B6130D94F5560D94CB280D94BD1E0D9415
:10058000E92B0D94F6340D94A61E0D949A3F0D940C
:10059000AB4F0D94841E0D949F2E0D94981E0D94B8
:1005A000FB3F0D94E5520D9404240D94322B0D94D1
:1005B0007E530D9430530D94B12E0D94795A0D94B1
:1005C0009A4F0D9456530D941F250D9482250D942A
:1005D0000D400C9484C30D94DE3E0D94A33F0C9407
:1005E000744B0D94EE130D946E256E616E00696E62
:1005F000660000407A10F35A00A0724E18090010ED
:10060000A5D4E80000E87648170000E40B54020087
:1006100000CA9A3B000000E1F505000080969800B2
:10062000000040420F000000A086010000001027DB
:1006300000000000E803000000006400000000006B
:100640000A00000000000100000000002C76D8889D
:10065000DC674F0823DFC1DFAE59E1B1B796E5E3B0
:10066000E453C63AE651997696E8E6C28426EB89C9
:100670008C9B62ED407C6FFCEFBC9C9F40F2BAA566
:100680006FA5F490055A2AF75C936B6CF9676DC1FE
:100690001BFCE0E40D47FEF520E6B500D0ED902E02
:1006A0000300943577050080841E080000204E0A60
:1006B000000000C80C333333330F986E128311419E
:1006C000EF8D2114893BE65516CFFEE6DB18D18469
:1006D0004B381BF77C1D901DA4BBE4242032847290
:1006E0005E228100C9F124ECA1E53D27555341521A
:1006F00054322072782046756C6C2121210053659C
:100700007474696E67732053746F72656400544D1E
:100710003A2073746F7265642063616C6962726100
:1007200074696F6E20696E76616C69642C207265E5
:1007300073657474696E670053746F7265642073B7
:10074000657474696E677320726574726965766525
:10075000640048617264636F646564204465666127
:10076000756C742053657474696E6773204C6F6187
:1007700064656400563200000000C8420000C842B0
:100780000000C84300008C43000048430000484379
:10079000000040410000F042E8030000E8030000D0
:1007A000C80000008813000000409C4400409C44A6
:1007B0000000000000000000204E0000000020416A
:1007C00000002041CDCCCC3E000090400000000055
:1007D0000000000000000000CDCCCC3E3D0A81416D
:1007E000FF08433EB099AB438F42FC42E65A343F88
:1007F0004C62B04500000000004040000034420060
:100800000000000000000000000041000000E03F88
:100810000000C8420000C842000040410000F04211
:10082000C0030000C0030000C800000088130000DF
:100830001010102000409C440000803F0000003F4A
:100840001914000000CDCCCC3D0AD7233C17B7D1FA
:100850003877CC2B329595E6241FB14F0A00002043
:10086000410000C84200401C4620BCBE4CCA1B0EC2
:100870005AAEC59D744E414E494E46627573793AE3
:100880002070617573656420666F7220696E707583
:100890007400627573793A207061757365642066BF
:1008A0006F72207573657200627573793A20707289
:1008B0006F63657373696E670000005C4300004DF1
:1008C000430000434300000000000080C09A9919D3
:1008D0003E00000000000080C09A99193E0000A070
:1008E000400000A040000000402533642073746580
:1008F000703D253264206D73636E743D2534640A47
:100900000000005C43000051439AD94243FFFFFFBF
:1009100020413A0020503A002042403A0020403A1C
:1009200000202F002054303A00202F0020423A00AF
:10093000202F00543A002553457863657373697618
:100940006520626564206C6576656C696E672063FE
:100950006F7272656374696F6E3A202569206D69E4
:1009600063726F6E730A00426564206C6576656C15
:10097000696E67206661696C65642E20546F6F2014
:100980006D75636820766172696174696F6E206647
:10099000726F6D20656570726F6D206D6573680094
:1009A000426564206C6576656C696E672066616976
:1009B0006C65642E2053656E736F72207472696764
:1009C000676572656420746F6F20736F6F6E0020AF
:1009D00020004D6561737572656420706F696E7477
:1009E000733A005A207365617263682068656967AD
:1009F00068743A20352E3066004E756D20582C599B
:100A00003A20372C37004D65736820626564206C8E
:100A10006576656C696E67206E6F742061637469BA
:100A200076652E0020453A00205A3A0020593A00B7
:100A300020453A00205A3A0020593A00583A0020FE
:100A40002D3E200053706F6F6C4A6F696E3A200024
:100A50002C20006673656E736F722076302E342002
:100A6000696E206661756C742072616E67652034F2
:100A70002E362D3556202D20756E636F6E6E656394
:100A8000746564006673656E736F7220696E2066AC
:100A90006F7262696464656E2072616E6765203191
:100AA0002E352D3356202D20636865636B207365CA
:100AB0006E736F7200496E61637469766974792030
:100AC00053687574646F776E004B494C4C45442EE7
:100AD000005072696E7465722068616C7465642E72
:100AE000206B696C6C28292063616C6C6564210043
:100AF0005A206C6976652061646A757374206F751D
:100B000074206F662072616E67652E205365747461
:100B1000696E6720746F20302E20436C69636B20F0
:100B2000746F20636F6E74696E75652E005A206C49
:100B30006976652061646A757374206F7574206FBF
:100B4000662072616E67652E2053657474696E67E6
:100B500020746F20300020453A3020423A00543A49
:100B6000004731205A252D2E33662046252D2E3361
:100B70006600496E76616C6964205420636F646519
:100B80002E004475706C696361746520542D636F29
:100B900064652069676E6F7265642E0041647661DA
:100BA0006E6365204B3D004B206F7574206F66208F
:100BB000616C6C6F7765642072616E676521004DB2
:100BC0004B3353004D4B33534D4D5533005E762E12
:100BD000012533642F2533640025336400200A2067
:100BE0000A200025534172632053657474696E674F
:100BF000733A20503A4D6178206C656E67746828AE
:100C00006D6D2920533A4D696E206C656E6774686E
:100C100020286D6D29204E3A436F727265637469A6
:100C20006F6E7320523A4D696E207365676D656E05
:100C3000747320463A5365676D656E74732F7365E0
:100C4000632E0A255320204D3231342050252E3278
:100C5000662053252E3266204E25642052256420BE
:100C60004625640A00255346696C616D656E7420E3
:100C700073657474696E67733A2044697361626C5A
:100C800065640A00255346696C616D656E74207356
:100C9000657474696E67733A0A25532020204D32BB
:100CA00030302044252E32660A0025535265747276
:100CB0006163743A20533D4C656E67746820286DFB
:100CC0006D2920463A537065656420286D6D2F6D3F
:100CD00029205A3A205A4C69667420286D6D290AD9
:100CE00025532020204D3230372053252E326620C8
:100CF00046252E3266205A252E32660A2553526525
:100D0000636F7665723A20533D4578747261206C4A
:100D1000656E67746820286D6D2920463A537065AA
:100D2000656420286D6D2F6D290A25532020204DE4
:100D30003230382053252E32662046252E32660A60
:100D400025534175746F2D526574726163743A2036
:100D5000533D3020746F2064697361626C652C2090
:100D60003120746F20696E746572707265742065CD
:100D70007874727564652D6F6E6C79206D6F766511
:100D800073206173207265747261637473206F7273
:100D9000207265636F7665726965730A255320203A
:100DA000204D323039205325640A002553504944E0
:100DB00020686561746265642073657474696E6728
:100DC000733A0A25532020204D3330342050252EED
:100DD00032662049252E32662044252E32660A00CE
:100DE00025535049442073657474696E67733A0AD9
:100DF00025532020204D3330312050252E326620BF
:100E000049252E32662044252E32660A002553538A
:100E1000746570732070657220756E69743A0A2566
:100E20005320204D39322058252E32662059252E48
:100E30003266205A252E32662045252E32660A2536
:100E4000535553746570207265736F6C7574696F58
:100E50006E3A200A2553204D333530205825642022
:100E6000592564205A2564204525640A25534D617F
:100E700078696D756D20666565647261746573204F
:100E80002D206E6F726D616C20286D6D2F73293A65
:100E90000A255320204D3230332058252E3266202B
:100EA00059252E3266205A252E32662045252E32AF
:100EB000660A25534D6178696D756D2066656564B8
:100EC0007261746573202D20737465616C74682081
:100ED000286D6D2F73293A0A255320204D32303367
:100EE0002058252E32662059252E3266205A252E6E
:100EF00032662045252E32660A25534D6178696D8C
:100F0000756D20616363656C65726174696F6E20D5
:100F10002D206E6F726D616C20286D6D2F733229DC
:100F20003A0A255320204D3230312058256C752047
:100F300059256C75205A256C752045256C750A2538
:100F4000534D6178696D756D20616363656C657281
:100F50006174696F6E202D20737465616C746820F4
:100F6000286D6D2F7332293A0A255320204D3230D7
:100F7000312058256C752059256C75205A256C75C3
:100F80002045256C750A2553416363656C65726164
:100F900074696F6E3A20503D7072696E742C2052E5
:100FA0003D726574726163742C20543D7472617675
:100FB000656C0A255320204D3230342050252E32C6
:100FC000662052252E32662054252E32660A25537D
:100FD000416476616E636564207661726961626CFA
:100FE00065733A20533D4D696E2066656564726194
:100FF000746520286D6D2F73292C20543D4D696E2A
:101000002074726176656C206665656472617465D2
:1010100020286D6D2F73292C20423D6D696E696DFE
:10102000756D207365676D656E742074696D6520DC
:10103000287573292C20583D6D6178696D756D2078
:101040005859206A65726B20286D6D2F73292C20EA
:10105000205A3D6D6178696D756D205A206A657200
:101060006B20286D6D2F73292C2020453D6D6178F4
:10107000696D756D2045206A65726B20286D6D2F36
:1010800073290A255320204D3230352053252E3226
:10109000662054252E32662042256C752058252E58
:1010A00032662059252E3266205A252E326620457A
:1010B000252E32660A2553486F6D65206F6666736C
:1010C000657420286D6D293A0A255320204D323051
:1010D000362058252E32662059252E3266205A2574
:1010E0002E32660A00544D3A20525B25755D20650C
:1010F0007374696D61742E00544D3A20255320524B
:101100002025644300544D3A202553204320657325
:10111000742E00544D3A20636F6F6C20646F776EAD
:10112000203C25644300726566696E6500696E69DE
:101130007469616C00544D3A2063616C6962722E6F
:10114000206661696C65642100544D3A2063616CCE
:101150006962726174696F6E207374617274005495
:101160004D3A2043616C2E204E4F542049444C454B
:10117000004361703A25533A25630A005052555393
:10118000415F4D4D553200455854454E4445445FEE
:101190004D3230004155544F5245504F52545F50DC
:1011A0004F534954494F4E004155544F5245504FAB
:1011B00052545F46414E53004155544F5245504F93
:1011C00052545F54454D50000044656C6574696F1E
:1011D0006E206661696C65642C2046696C653A20F6
:1011E0000046696C652064656C657465643A004E00
:1011F0006F74205344207072696E74696E6700507A
:1012000072696E7420736176656400534420707255
:10121000696E7420706175736564002533642F25D1
:101220003364004F4B004241440052414D426F2015
:1012300046414E20006676007468780050524E0099
:1012400043524153485F43414E43454C0043524152
:1012500053485F5245434F5645520043524153480D
:101260005F5245434F5645520022283229002553EC
:101270003A2025530A002C204D393037204520696B
:10128000676E6F726564006E6F2076616C696420B2
:10129000636F6D6D616E64007A65726F72697A65F5
:1012A0006400666163746F727920726573746F7223
:1012B000656400696E6465782C2074656D702C20FF
:1012C00075737465702C20756D0050494E44412033
:1012D00063616C207374617475733A2000503A0036
:1012E0005761697420666F722050494E44412074E2
:1012F00061726765742074656D7065726174757272
:10130000653A00204100205000204200204C00207F
:101310005200205A00204E4F5420494E4954494112
:101320004C495A45440053686565742000205A2092
:1013300056414C5545204F5554204F462052414E62
:10134000474500496E76616C696420736865657411
:101350002049442E20416C6C6F7765643A20302E12
:101360002E004155544F004C414E472053454C20D0
:10137000464F524345440020643A0020693A002019
:10138000703A0020643A0020693A0020703A002543
:101390006925250A00256925250A0022283129000A
:1013A0002F2F0030303030303030302D3030303072
:1013B0002D303030302D303030302D303030303036
:1013C000303030303030300020555549443A00201C
:1013D00045585452554445525F434F554E543A3147
:1013E000005072757361206933204D4B33530020D8
:1013F0004D414348494E455F545950453A00312EBE
:101400003000206261736564206F6E204D61726CE4
:10141000696E204649524D574152455F55524C3AEC
:1014200068747470733A2F2F6769746875622E63DD
:101430006F6D2F707275736133642F5072757361A5
:101440002D4669726D776172652050524F544F433B
:101450004F4C5F56455253494F4E3A004649524D04
:10146000574152455F4E414D453A50727573612D5B
:101470004669726D7761726520004D3131332053BA
:10148000006F6B20006E2F61003F546F73686962BC
:101490006120466C617368416972204765744950E8
:1014A000206661696C65640A00000125311D0C40ED
:1014B00024301C0B45232F1B0A17FF0406222B1A6E
:1014C00003363735382569206D696E2C2025692053
:1014D00073656300496E76616C6964204D20636FAB
:1014E00064653A2025730A0050494E4441207072C9
:1014F0006F62652063616C6962726174696F6E20EE
:101500007374617274004E6F2050494E44412074D0
:101510006865726D6973746F7200736574006E6FC5
:101520007A7A6C65004D424C004652004C7A004C71
:10153000616E6700315F37356D6D5F4D4B33532DF5
:1015400045494E53795F3130612D453344763666D7
:10155000756C6C0052657600332E31332E302D526F
:1015600043312D363835330046697200534E2069B9
:101570006E76616C696400534E00524553455400C9
:101580004D4D555245530075766C6F0046414E00E7
:1015900046414E50494E5453540050525553410009
:1015A0005345545F43484F505F005345545F535475
:1015B00045505F005345545F574156455F00544DB9
:1015C000435F0043524153485F43414E43454C0003
:1015D00043524153485F5245434F56455200435290
:1015E0004153485F444554454354454400435241A8
:1015F00053485F007B5B4552523A00332E31332E05
:10160000302D524331005D5B4657523A005D5B54CA
:10161000494D3A005D5B464E4D3A005D5B46454D97
:101620003A005D5B5043443A005B5446553A005BD8
:1016300050524E3A005B50464E3A305D005B444992
:10164000413A005D5B4154423A005D5B4154303A9F
:10165000005D5B5354423A005B5354303A007B5B6D
:1016600050524E3A355D007B5B50524E3A305D0031
:101670007B5B50524E3A395D007B5B50524E3A389C
:101680005D007B5B5245533A305D5B46494C3A0006
:101690007B5B5245533A315D5B46494C3A00000052
:1016A0002110422063308440A550C660E770088155
:1016B00029914AA16BB18CC1ADD1CEE1EFF13112CC
:1016C000100273325222B5529442F772D6623993A5
:1016D00018837BB35AA3BDD39CC3FFF3DEE362241C
:1016E000433420040114E664C774A44485546AA5F5
:1016F0004BB528850995EEE5CFF5ACC58DD55336AC
:10170000722611163006D776F6669556B4465BB744
:101710007AA719973887DFF7FEE79DD7BCC7C4487B
:10172000E5588668A7784008611802282338CCC994
:10173000EDD98EE9AFF9488969990AA92BB9F55A0B
:10174000D44AB77A966A711A500A333A122AFDDBE4
:10175000DCCBBFFB9EEB799B588B3BBB1AABA66CDB
:10176000877CE44CC55C222C033C600C411CAEED34
:101770008FFDECCDCDDD2AAD0BBD688D499D977EEB
:10178000B66ED55EF44E133E322E511E700E9FFF84
:10179000BEEFDDDFFCCF1BBF3AAF599F788F88913A
:1017A000A981CAB1EBA10CD12DC14EF16FE180101E
:1017B000A100C230E3200450254046706760B98321
:1017C0009893FBA3DAB33DC31CD37FE35EF3B1026E
:1017D0009012F322D2323542145277625672EAB531
:1017E000CBA5A89589856EF54FE52CD50DC5E234BE
:1017F000C324A01481046674476424540544DBA701
:10180000FAB79987B8975FE77EF71DC73CD7D3260D
:10181000F2369106B01657667676154634564CD990
:101820006DC90EF92FE9C899E9898AB9ABA944585D
:10183000654806782768C018E1088238A3287DCB60
:101840005CDB3FEB1EFBF98BD89BBBAB9ABB754AAD
:10185000545A376A167AF10AD01AB32A923A2EFDF0
:101860000FED6CDD4DCDAABD8BADE89DC98D267CFD
:10187000076C645C454CA23C832CE01CC10C1FEF40
:101880003EFF5DCF7CDF9BAFBABFD98FF89F176E4D
:10189000367E554E745E932EB23ED10EF01E7C3CC9
:1018A0003E3F2F2A225C002200002045535000209A
:1018B0004E535000204F464600204F4E00505630A9
:1018C0003100205B4D505D2000256920686F7572E6
:1018D00073202569206D696E7574657300525820F8
:1018E00074696D656F7574004D333130004D313161
:1018F00032004D3131300046756C6C205258204218
:10190000756666657200437573746F6D004E796C11
:101910006F6E504100536174696E202000546578E9
:1019200074757200536D6F6F746800486F74656EE4
:10193000642066616E207370656564206973206C35
:101940006F776572207468616E2065787065637466
:101950006564005072696E742066616E20737065F4
:101960006564206973206C6F776572207468616E9E
:1019700020657870656374656400312E3000312E07
:101980003500554E4B4E4F574E004C413130433A87
:10199000204C696E65617220416476616E636520DA
:1019A0006D6F64653A20004C413130433A20416408
:1019B0006A757374656420452D4A65726B3A200020
:1019C0003E0FA8AF00480069960000DF602555581B
:1019D00087680427F2E0005E3403CC1960F33C0E04
:1019E000F88F00DB08029492003E1C079A8700E5FE
:1019F00024008528527E06001BE4007E7812707851
:101A00007061F812788F884178427078706178251B
:101A100070787061F850788F88D1F025270787613A
:101A2000F025278F88412C0D27AA50D1BC070787A6
:101A30001161BE788F881141785270787061F852C8
:101A4000788F88412012788870632052788870637C
:101A5000485278888743031117997064181278F8F0
:101A600070654412F8F8F045184278F8706518254A
:101A700078F87065185278F87065185078F87065C5
:101A80000C078F872365A20F8F8F11450012062246
:101A90007069001207222749002506227069002577
:101AA0000722274900120622276C026236A2706CB8
:101AB00040456C44704C03622222706C43888888D5
:101AC000F04C7812BC88806E7852BC88806E3812D8
:101AD0007888706F78127888874F38427888706F6E
:101AE00038257888706F3A0079AC786F3D079AACEA
:101AF000786F7850788887EF39497888706F085206
:101B0000BC8880729852F88F985220127870F073C7
:101B100048127863875320527870F0734852786384
:101B200087531007870F24731278638724536069E3
:101B30009A988BE22304E4443074104E4443247496
:101B40007C12888960753C50888870557825288972
:101B500060757949088960753C12887070790C123B
:101B6000885222594412F124F07A4452F124F07A36
:101B70008C52F0368F5A4420F124F07A00401454ED
:101B8000256C752062797465732077726974746549
:101B90006E20746F20255320617420616464726527
:101BA00073732030782530346C780A004425642023
:101BB0002D20526561642F57726974652025530A80
:101BC0000020436F756E7420583A200045303A2546
:101BD000642052504D2050524E313A2564205250CC
:101BE0004D204530403A25752050524E31403A251F
:101BF000750A00526573656E640025533A20256CA2
:101C0000640A25530A005072696E746572207374F9
:101C10006F707065642064756520746F20657272E2
:101C20006F72732E205375706572766973696F6E6B
:101C30002072657175697265642E0064756D70201F
:101C4000636C65617265640A006E6F2064756D7007
:101C500020617661696C61626C650A0044323120F2
:101C60002D20726561642063726173682064756DF4
:101C7000700A006E6F2064756D7020617661696C0A
:101C800061626C650A0064756D7020636F6D706CC5
:101C90006574656420696E20256C756D730A005843
:101CA000464C41534800454550524F4D0053524118
:101CB0004D00442D31202D20456E646C65737320DA
:101CC0006C6F6F700A0041637469766520457874A3
:101CD00072756465723A203000496E76616C696491
:101CE00020657874727564657200746D6332313387
:101CF000305F7072696E745F63757272656E747353
:101D000028290A094809520A580925640925640A3C
:101D1000590925640925640A5A0925640925640AB4
:101D2000450925640925640A005344207072696ED0
:101D300074696E6720627974652000257500746D82
:101D400063323133305F73675F7468725B25635D44
:101D50003D25640A00556E6B6E6F776E20636F6D64
:101D60006D616E643A2022004D32303020496E762B
:101D7000616C696420657874727564657220007A9C
:101D80005F6D61783A20007A5F6D696E3A20007964
:101D90005F6D61783A2000795F6D696E3A20007856
:101DA0005F6D61783A200054524947474552454497
:101DB000006F70656E00785F6D696E3A2000526545
:101DC000706F7274696E6720656E6473746F7020D3
:101DD0007374617475730053494C454E54004E4FF3
:101DE000524D414C002553204D4F44453A205065FB
:101DF0007263656E7420646F6E653A20256868644E
:101E00003B207072696E742074696D652072656D17
:101E100061696E696E6720696E206D696E733A2024
:101E200025643B204368616E676520696E206D699B
:101E30006E733A2025640A00456E642066696C65FD
:101E4000206C69737400426567696E2066696C6511
:101E5000206C69737400556E6B6E6F776E2025630E
:101E600020636F64653A2025730A000A50494E4486
:101E7000412074656D70657261747572653A2025D4
:101E80002E3166205A20736869667420286D6D298A
:101E90003A20252E3366000A537465703A20256473
:101EA0002F360A000A537465703A2025642F3620B5
:101EB00028736B6970706564290A50494E4441204B
:101EC00074656D70657261747572653A2025642061
:101ED0005A20736869667420286D6D293A300A00AB
:101EE0000A5A45524F3A20252E33660A0073746110
:101EF00072742074656D70657261747572653A20D4
:101F0000252E31660A0025642020252E3266002504
:101F10005320583A20252E356620593A20252E3553
:101F200066205A3A20252E35660A00536C65657086
:101F30002E2E2E0045303A25642052504D0A505224
:101F40004E303A25642052504D0A00656E71756519
:101F5000696E67202200446F6E65207072696E742E
:101F6000696E672066696C65004D313132206361AE
:101F70006C6C65642E20456D657267656E637920B3
:101F800053746F702E004E6F204C696E65204E7535
:101F90006D626572207769746820636865636B732E
:101FA000756D2C204C617374204C696E653A20006D
:101FB0004E6F20436865636B73756D207769746835
:101FC000206C696E65206E756D6265722C204C61A7
:101FD0007374204C696E653A2000636865636B73A7
:101FE000756D206D69736D617463682C204C61732D
:101FF00074204C696E653A20004C696E65204E7500
:102000006D626572206973206E6F74204C61737409
:10201000204C696E65204E756D6265722B312C20E7
:102020004C617374204C696E653A20004372617391
:10203000682064657465637465642E00536F6D6514
:102040002070726F626C656D20656E636F756E7463
:10205000657265642C205A2D6C6576656C696E67B7
:1020600020656E666F72636564202E2E2E004D65AE
:10207000736820626564206C6576656C696E6720A4
:102080006661696C65642E20506C656173652072B1
:10209000756E205A2063616C6962726174696F6E3B
:1020A0002E0048656174696E672064697361626CB3
:1020B0006564206279207361666574792074696D46
:1020C00065722E0053544F505045442E00504155D8
:1020D00053454420544845524D414C204552524F9F
:1020E0005200472D636F646520736C6963656420DB
:1020F000666F72206120646966666572656E742021
:102100006C6576656C2E20506C6561736520726518
:102110002D736C69636520746865206D6F64656CF0
:1021200020616761696E2E205072696E7420636150
:102130006E63656C6C65642E00472D636F6465206B
:10214000736C6963656420666F72206120646966E0
:10215000666572656E74206C6576656C2E20436FC3
:102160006E74696E75653F00472D636F64652073FB
:102170006C6963656420666F722061206E657765A7
:1021800072206669726D776172652E20506C656190
:102190007365207570646174652074686520666974
:1021A000726D776172652E205072696E7420636162
:1021B0006E63656C6C65642E00472D636F646520EB
:1021C000736C6963656420666F722061206E657749
:1021D0006572206669726D776172652E20436F6E3D
:1021E00074696E75653F00472D636F646520736C7D
:1021F0006963656420666F72206120646966666544
:1022000072656E74207072696E7465722074797074
:10221000652E20506C656173652072652D736C6945
:10222000636520746865206D6F64656C206167610B
:10223000696E2E205072696E742063616E63656CE6
:102240006C65642E00472D636F646520736C696351
:10225000656420666F7220612064696666657265D8
:102260006E74207072696E74657220747970652E58
:1022700020436F6E74696E75653F005072657373AD
:1022800020746865206B6E6F6220746F20707265B9
:1022900068656174206E6F7A7A6C6520616E642067
:1022A000636F6E74696E75652E00506C6561736541
:1022B00020707265737320746865206B6E6F622086
:1022C000746F20756E6C6F61642066696C616D65FA
:1022D0006E7400616E64207072657373207468653B
:1022E000206B6E6F6200496E736572742066696C54
:1022F000616D656E7400436F6C6F72206E6F742039
:10230000636F72726563740046696C616D656E74AB
:10231000206E6F74206C6F61646564004368616E49
:1023200067656420636F72726563746C793F004CFB
:102330006F6164696E6720636F6C6F7200436861E0
:102340006E676520737563636573732100506C65F8
:10235000617365206F70656E2069646C65722061C1
:102360006E642072656D6F76652066696C616D655F
:102370006E74206D616E75616C6C792E005761739F
:102380002066696C616D656E7420756E6C6F61643A
:10239000207375636365737366756C3F00506C657D
:1023A00061736520757067726164652E004E657794
:1023B000206669726D776172652076657273696FE8
:1023C0006E20617661696C61626C653A0057616983
:1023D00074696E6720666F722050494E44412070C8
:1023E000726F626520636F6F6C696E6700506C6519
:1023F0006173652077616974004E6F206D6F76653B
:102400002E005761697420666F7220757365722E95
:102410002E2E00537461626C6520616D6269656E79
:10242000742074656D7065726174757265203231E7
:102430002D323643206973206E65656465642061C2
:10244000207269676964207374616E642069732007
:1024500072657175697265642E00506C6561736593
:102460002072756E2058595A2063616C69627261DE
:1024700074696F6E2066697273742E00556E65788C
:10248000706563746564206572726F72206F636338
:1024900075727265642E004D3630302046696C616D
:1024A0006D656E74204368616E67652E204C6F61A8
:1024B000642061206E65772066696C616D656E745D
:1024C000206F7220656A65637420746865206F6C84
:1024D00064206F6E652E0052656D6F76652074689E
:1024E0006520656A65637465642066696C616D6505
:1024F0006E742066726F6D207468652066726F6EF0
:1025000074206F6620746865204D4D552E00466915
:102510006C616D656E7420646574656374656420B8
:10252000756E65787065637465646C792E20456E90
:1025300073757265206E6F2066696C616D656E746F
:10254000206973206C6F616465642E204368656345
:102550006B207468652073656E736F727320616E93
:102560006420776972696E672E00496E7465726EB9
:10257000616C2072756E74696D65206572726F7220
:102580002E2054727920726573657474696E6720A9
:10259000746865204D4D55206F72207570646174AC
:1025A000696E6720746865206669726D776172650F
:1025B0002E004D4D552046572076657273696F6E1B
:1025C00020697320696E636F6D70617469626C65F8
:1025D0002077697468207072696E7465722046573E
:1025E0002E55706461746520746F2076657273690E
:1025F0006F6E20332E302E312E004D4D5520466902
:10260000726D7761726520696E7465726E616C209F
:102610006572726F722C20706C65617365207265D3
:1026200073657420746865204D4D552E0052657198
:102630007565737465642066696C616D656E742080
:10264000746F6F6C206973206E6F7420617661699E
:102650006C61626C65206F6E2074686973206861BC
:102660007264776172652E20436865636B207468BD
:102670006520472D636F646520666F7220746F6FED
:102680006C20696E646578206F7574206F662072A7
:10269000616E6765202854302D5434292E00436123
:1026A0006E6E6F7420706572666F726D20746865EF
:1026B00020616374696F6E2C2066696C616D656E54
:1026C0007420697320616C7265616479206C6F613C
:1026D0006465642E20556E6C6F6164206974206699
:1026E000697273742E004D4D55206E6F74207265A3
:1026F00073706F6E64696E6720636F727265637466
:102700006C792E20436865636B2074686520776957
:1027100072696E6720616E6420636F6E6E656374AC
:102720006F72732E004D4D55206E6F74207265735D
:10273000706F6E64696E672E20436865636B2074EA
:10274000686520776972696E6720616E6420636FC7
:102750006E6E6563746F72732E004D6F72652064C8
:10276000657461696C73206F6E6C696E652E0054C0
:1027700068652049646C65722063616E6E6F7420B9
:10278000686F6D652070726F7065726C792E204372
:102790006865636B20666F7220616E797468696E1C
:1027A0006720626C6F636B696E6720697473206D5C
:1027B0006F76656D656E742E0043616E2774206DB3
:1027C0006F76652053656C6563746F72206F72203D
:1027D00049646C65722E005468652053656C6563AE
:1027E000746F722063616E6E6F7420686F6D652008
:1027F00070726F7065726C792E20436865636B2010
:10280000666F7220616E797468696E6720626C6FA2
:10281000636B696E6720697473206D6F76656D6593
:102820006E742E004C6F6164696E6720746F206552
:1028300078747275646572206661696C65642E20B7
:10284000496E7370656374207468652066696C6195
:102850006D656E74207469702073686170652E20D8
:10286000526566696E65207468652073656E736F66
:10287000722063616C6962726174696F6E2C206989
:1028800066206E65656465642E0053656C656374CF
:102890006F722063616E2774206D6F76652064759A
:1028A0006520746F2046494E444120646574656319
:1028B00074696E6720612066696C616D656E742E47
:1028C000204D616B652073757265206E6F2066699F
:1028D0006C616D656E7420697320696E2053656C40
:1028E0006563746F7220616E642046494E444120D6
:1028F000776F726B732070726F7065726C792E00D7
:1029000046696C616D656E742073656E736F7220BD
:1029100074726967676572656420746F6F206561A2
:10292000726C79207768696C65206C6F6164696E80
:102930006720746F2065787472756465722E204309
:102940006865636B2074686572652069736E2774AF
:1029500020616E797468696E6720737475636B208B
:10296000696E205054464520747562652E20436878
:1029700065636B20746861742073656E736F722079
:1029800072656164732070726F7065726C792E006D
:1029900050756C6C6579206D6F746F722073746103
:1029A0006C6C65642E20456E737572652074686565
:1029B0002070756C6C65792063616E206D6F766533
:1029C00020616E6420636865636B2074686520779E
:1029D0006972696E672E0046696C616D656E742060
:1029E00073656E736F72206469646E2774207377E9
:1029F00069746368206F6666207768696C65207506
:102A00006E6C6F6164696E672066696C616D656E7E
:102A1000742E20456E737572652066696C616D65F4
:102A20006E742063616E206D6F766520616E642028
:102A30007468652073656E736F7220776F726B7345
:102A40002E0046696C616D656E742073656E736FE0
:102A500072206469646E2774207472696767657296
:102A6000207768696C65206C6F6164696E6720749B
:102A700068652066696C616D656E742E20456E73A5
:102A8000757265207468652073656E736F72206956
:102A9000732063616C6962726174656420616E6445
:102AA000207468652066696C616D656E742072655E
:102AB00061636865642069742E0046494E44412074
:102AC0006469646E277420737769746368206F6625
:102AD00066207768696C6520756E6C6F6164696EDD
:102AE000672066696C616D656E742E205472792062
:102AF000756E6C6F6164696E67206D616E75616C77
:102B00006C792E20456E737572652066696C616DF7
:102B1000656E742063616E206D6F766520616E64F2
:102B20002046494E444120776F726B732E00464910
:102B30004E4441206469646E27742074726967672B
:102B40006572207768696C65206C6F6164696E6777
:102B5000207468652066696C616D656E742E204511
:102B60006E73757265207468652066696C616D6549
:102B70006E742063616E206D6F766520616E6420D7
:102B800046494E444120776F726B732E004469733F
:102B900061626C650053746F7000456A6563740010
:102BA0004C6F616400556E6C6F61640052657365B3
:102BB000744D4D5500526574727900426564206C05
:102BC0006576656C696E67206661696C65642E2048
:102BD00053656E736F72206469646E27742074721B
:102BE00069676765722E20446562726973206F6E33
:102BF000206E6F7A7A6C653F2057616974696E67E1
:102C000020666F722072657365742E0053656E7353
:102C10006974697669747900446F6E650052656302
:102C20006F766572696E67207072696E74005448C1
:102C300045524D414C20414E4F4D414C590052653B
:102C400073756D696E67207072696E740050494EBD
:102C500044412048656174696E670043616C696234
:102C6000726174696F6E20646F6E650043616C6998
:102C700062726174696E67205A0042656420646FF5
:102C80006E65004265642048656174696E6700483E
:102C9000656174696E6720646F6E652E00486561BA
:102CA00074696E67004D4D5520706F7765722066B0
:102CB00061696C73004D4D55206C6F6164206661D5
:102CC000696C73004D4D55206661696C73004D61F0
:102CD00074657269616C206368616E676573005426
:102CE0006F74616C206661696C7572657300437204
:102CF0006173680046696C2E2072756E6F7574730F
:102D000000506F776572206661696C75726573003B
:102D10004C617374207072696E74206661696C75A1
:102D200072657300546F74616C004C617374207031
:102D300072696E7400416D6269656E7400566F6CE5
:102D400074616765730054656D7065726174757246
:102D500065730042656C74207374617475730053FD
:102D6000656E736F7220696E666F00457874727558
:102D700064657220696E666F0058595A2063616CF1
:102D80002E2064657461696C73005072696E74659D
:102D90007220495020416464723A00756E6B6E6F08
:102DA000776E004D4D5520636F6E6E65637465647C
:102DB00000446174653A00746F20756E6C6F6164D5
:102DC0002066696C616D656E7400746F206C6F6154
:102DD000642066696C616D656E7400507265737312
:102DE00020746865206B6E6F620050726568656163
:102DF00074696E6720746F20637574005072656823
:102E0000656174696E6720746F20656A656374001C
:102E100050726568656174696E6720746F20756EA5
:102E20006C6F61640050726568656174696E6720DB
:102E3000746F206C6F616400436F6F6C646F776EAA
:102E40000046696C616D656E742065787472756496
:102E5000696E672026207769746820636F727265D7
:102E6000637420636F6C6F723F004175746F6C6F99
:102E70006164696E672066696C616D656E74206956
:102E800073206163746976652C206A757374207091
:102E90007265737320746865206B6E6F6220616E5B
:102EA0006420696E736572742066696C616D656E0D
:102EB000742E2E2E005072696E742074696D650038
:102EC00046696C616D656E74207573656400546F3E
:102ED00074616C207072696E742074696D65005441
:102EE0006F74616C2066696C616D656E7400507200
:102EF000656865617420746865206E6F7A7A6C65A8
:102F000021004552524F523A005269676874004C92
:102F100065667400592064697374616E6365206628
:102F2000726F6D206D696E005365766572652073F2
:102F30006B657700536C6967687420736B65770005
:102F40004D6561737572656420736B6577005B30E6
:102F50003B305D20706F696E74206F6666736574B8
:102F60000041646A757374696E67205A004D494E5A
:102F700054454D5020424544206669786564004DB3
:102F8000494E54454D5020484F54454E44206669A3
:102F900078656400252E31305320002534640045C7
:102FA0007872656D65207370616E206F662074683D
:102FB00065205A2076616C756573210025642F3970
:102FC000003F4A5241202D2042595041535320770F
:102FD0006F726C64326D616368696E655F75706491
:102FE0006174652829202823373034292E0A004DA2
:102FF0004D55323A00253364001801041904072E98
:103000002BBA2A422AD729902900298A282428D78E
:1030100027B9276F27B9275A275A275A275A275AD5
:10302000275A275A275A275A275A275A275A275A98
:10303000275A275A275A275A275A275A275A275A88
:10304000275A272527E6269E262D26FA25B2256A09
:10305000250E25D72497247C2401010101010101BB
:1030600002710171013232320303030303030303CC
:1030700003030303030303030303039393243803AA
:10308000930301025603650066006700680069004B
:103090006A006B006C00730074007D007E00C90044
:1030A000D300DD00CA00D400DE002D01370141014C
:1030B0002E01380142012F013901430130013A014B
:1030C000440131013B014501320191019201F501B9
:1030D000F601F701F801F901FA01FB01FC01840393
:1030E000B52B182CAC2BA52BA02B9A2B365D952B32
:1030F0008D2B252E3230530A70727573612E696FD5
:103100002F30342568750020557067726164696ED0
:10311000672078666C6173680A20446F206E6F7454
:1031200020646973636F6E6E656374210077323556
:10313000783230636C5F63666D0A007732357832BF
:1031400030636C5F656E7465720A007374617274CB
:103150000A007265636F7665725F6D616368696EA0
:10316000655F73746174655F61667465725F706FCB
:103170007765725F70616E69632C20696E6974692E
:10318000616C200050525553412075766C6F00479A
:1031900034205330004D32362053256C75004D31AC
:1031A00030362053257500473120462564004D38C0
:1031B00032004739322045252D2E3366004D3230FE
:1031C000342050252D2E31662052252D2E3166209B
:1031D00054252D2E3166004731205A252D2E336679
:1031E000005052555341204D424C2056310047313A
:1031F0002058252D2E33662059252D2E3366204646
:103200003330303000506F736974696F6E207265AF
:1032100061642066726F6D20656570726F6D3A0033
:103220002C20666565646D756C7469706C793A0004
:1032300046656564726174653A0047312045352002
:1032400046313230004D31303920532564004D3144
:10325000343020532564004D313034205325640030
:1032600047323820582059004731205A252E3366DE
:1032700020463830300024F4D43050C38E20C2A20F
:103280004017828B7011127A910D816CD90AA86156
:10329000E108C7586607615143061E4B5D05C145ED
:1032A000A7041A411104093D9803713931034036CE
:1032B000DB0265339102D4305402802E1D02632C50
:1032C000EE01752AC501B028A001102781018F25C4
:1032D00064012B244B01E0223401AC211F018D201D
:1032E0000D01801FFC00841EED00971DDF00B81C3F
:1032F000D200E61BC600201BBC00641AB200B21943
:10330000A8000A19A0006A189900D1179100401767
:103310008B00B516840031167E00B31579003A157E
:103320007300C7146F0058146A00EE136600881308
:10333000630025135E00C7125B006C125700151264
:103340005400C111510070114F0021114B00D610D3
:1033500049008D1047004610440002104200C00F83
:103360004000800F3E00420F3C00060F3B00CB0E9A
:103370003800930E37005C0E3500270E3400F30D35
:103380003200C10D3100900D3000600D2E00320D65
:103390002D00050D2C00D90C2B00AE0C2900850C3E
:1033A00029005C0C2700350C27000E0C2600E80BCA
:1033B0002400C40B2400A00B23007D0B23005A0B18
:1033C0002100390B2100180B2000F80A1F00D90A30
:1033D0001E00BB0A1E009D0A1D00800A1D00630A14
:1033E0001C00470A1B002C0A1B00110A1A00F709CF
:1033F0001A00DD091900C4091900AB091900920966
:1034000017007B091800630917004C0916003609DC
:103410001600200916000A091500F5081500E00835
:103420001400CC081400B8081400A4081400900874
:1034300013007D0812006B0813005808120046089C
:1034400012003408110023081100120811000108AD
:103450001100F0071000E0071000D0071000C007AF
:103460001000B0070F00A107100091070E0083079E
:103470000F0074070F0065070E0057070E0049077D
:103480000E003B070D002E070E0020070D0013074E
:103490000D0006070D00F9060C00ED060D00E00614
:1034A0000C00D4060C00C8060C00BC060C00B006CC
:1034B0000C00A4060B0099060C008D060B0082067A
:1034C0000B0077060B006C060B0061060A0057061E
:1034D0000B004C060A0042060A0038060A002E06B7
:1034E0000A0024060A001A060A0010060900070648
:1034F0000A00FD050900F4050900EB050900E205D5
:103500000900D9050900D0050900C7050900BE0555
:103510000900B5050800AD050800A50509009C05D2
:103520000800940508008C050800840508007C0547
:103530000800740508006C050700650508005D05B6
:103540000700560508004E0507004705070040051F
:10355000080038050700310507002A050700230584
:1035600007001C050600160507000F0507000805E3
:10357000060002050700FB040600F5040700EE0440
:103580000600E8040600E2040700DB040600D50498
:103590000600CF040600C9040600C3040600BD04EB
:1035A0000600B7040600B1040500AC040600A6043A
:1035B0000600A00405009B04060095040500900485
:1035C00006008A04050085040500800406007A04CC
:1035D000050075040500700405006B040500660411
:1035E0000500610405005C04050057040500520451
:1035F00005004D04050048040500430405003E0491
:1036000004003A04050035040500300404002C04CD
:10361000050027040400230405001E0404001A0406
:10362000040016040500110404000D04040009043C
:1036300005000404040000040400FC030400F80373
:103640000400F4030400F0030400EC030400E803A6
:103650000400E4030400E0030400DC030400D803D6
:103660000400D4030400D0030400CC030400C80306
:103670000300C503030024F404D9201BC40C5C0E12
:103680009804C4095F0265077101F405F900FB04A1
:10369000B30048048700C1036900580355000303C1
:1036A0004500BE023A008402310053022A0029027A
:1036B000250004022000E4011C00C8011900AF012C
:1036C00017009801140084011300710110006101BA
:1036D000100051010E0043010D0036010B002B01BB
:1036E0000B0020010B00150109000C01090003016A
:1036F0000800FB000800F3000800EB000700E400EE
:103700000600DE000600D8000600D2000600CC004D
:103710000500C7000500C2000500BD000400B90097
:103720000400B5000400B1000400AD000400A900CD
:103730000400A5000300A20003009F0004009B00FA
:10374000030098000300950002009300030090001E
:1037500003008D0002008B00030088000200860039
:10376000020084000300810002007F0002007D004F
:1037700002007B0002007900020077000100760061
:1037800002007400020072000100710002006F006C
:1037900002006D0001006C0002006A000100690077
:1037A000020067000100660001006500010064007E
:1037B00002006200010061000100600001005F0082
:1037C00002005D0001005C0001005B0001005A0086
:1037D0000100590001005800010057000100560087
:1037E0000100550001005400010053000000530087
:1037F00001005200010051000100500001004F0083
:1038000001004E0000004E0001004D0001004C0080
:1038100001004B0000004B0001004A00010049007C
:103820000100480000004800010047000100460078
:103830000000460001004500000045000100440072
:10384000010043000000430001004200000042006C
:1038500001004100000041000100400001003F0064
:1038600000003F0001003E0000003E0001003D005E
:1038700000003D0001003C0000003C0000003C0056
:1038800001003B0000003B0001003A0000003A004C
:103890000100390000003900010038000000380044
:1038A000000038000100370000003700010036003A
:1038B0000000360000003600010035000000350031
:1038C0000000350001003400000034000000340026
:1038D000010033000000330000003300010032001B
:1038E0000000320000003200010031000000310011
:1038F0000000310001003000000030000000300006
:1039000001002F0000002F0000002F0000002F00FA
:1039100001002E0000002E0000002E0001002D00EE
:1039200000002D0000002D0000002D0001002C00E3
:1039300000002C0000002C0000002C0001002B00D7
:1039400000002B0000002B0000002B0001002A00CB
:1039500000002A0000002A0000002A0001002900BF
:1039600000002900000029000000290000002900B3
:1039700001002800000028000000280000002800A6
:103980000000280001002700000027000000270099
:10399000000027000000270001002600000026008C
:1039A000000026000000260000002600010025007F
:1039B0000000250000002500000025000000250073
:1039C0000000250001002400000024000000240065
:1039D0000000240000002400010023000000230058
:1039E000000023000000230000002300000023004B
:1039F000000023000100220000002200000022003D
:103A0000000022000000220000002200010021002E
:103A10000000210000002100000021000000210022
:103A20000000210000002100010020000000200013
:103A30000000200000002000000020000000200006
:103A4000000020000000200001001F0000001F00F7
:103A500000001F0000001F0000001F0000001F00EA
:103A600000001F0001001E0000001E0000001E00DC
:103A700000001E000000504944204175746F7475A9
:103A80006E652066696E697368656421205075747F
:103A900020746865206C617374204B702C204B6916
:103AA00020616E64204B6420636F6E7374616E746A
:103AB000732066726F6D2061626F766520696E7427
:103AC0006F20436F6E66696775726174696F6E2EE1
:103AD0006800504944204175746F74756E652066A6
:103AE00061696C6564212074696D656F757400206F
:103AF000403A00543A00423A00504944204175741B
:103B00006F74756E65206661696C6564212054650B
:103B10006D706572617475726520746F6F2068696D
:103B2000676800204B643A2000204B693A2000204F
:103B30004B703A200020436C6173736963205049D5
:103B40004420002054753A2000204B753A20002074
:103B50006D61783A2000206D696E3A200020643A49
:103B6000200020626961733A200050494420417569
:103B7000746F74756E65207374617274005049447B
:103B8000204175746F74756E65206661696C65643B
:103B90002E20426164206578747275646572206EAF
:103BA000756D6265722E00544D4C2025642025648D
:103BB00020257820256C7820256C780A004D494E08
:103BC00054454D50004D494E54454D5020424544BA
:103BD000004D494E54454D5020414D42004D4158F5
:103BE00054454D50004D415854454D502042454498
:103BF000004D415854454D5020414D4200544D3ADE
:103C0000206572726F7220636C6561726564005426
:103C10004D3A206572726F722074726967676572BF
:103C200065642100544D3A206572726F72207C25C4
:103C3000667C3E25660A0070012C0190012701B0C8
:103C4000012201C0011D01F0011801100213013011
:103C5000020E016002090190020401C002FF00008F
:103C600003FA004003F5008003F000D003EB0020CE
:103C700004E6007004E100E004DC004005D700C069
:103C800005D2004006CD00D006C8008007C3003032
:103C900008BE00F008B900C009B400B00AAF00B017
:103CA0000BAA00D00CA500000EA000500F9B00C076
:103CB0001096005012910000148C00C0158700B0BF
:103CC000178200B0197D00D01B7800001E730040E1
:103CD000206E0090226900F024640040275F00906D
:103CE000295A00E02B5500102E500020304B0010B8
:103CF000324600E033410090353C00103737007009
:103D0000383200A0392D00B03A2800A03B230060D3
:103D10003C1E00103D1900903D1400103E0F007035
:103D20003E0A00C03E0500003F000090137D00B039
:103D3000157800F0177300601A6E00F01C6900A07F
:103D40001F640050225F0020255A00E02755009094
:103D50002A5000202D4B00A02F4600F031410010CA
:103D6000343C00F0353700A037320020392D006098
:103D70003A2800703B2300603C1E00203D1900C023
:103D80003D1400403E0F00A03E0A00F03E050040FA
:103D90003F0000703FFBFF903FF6FFB03FF1FFC0D8
:103DA0003FECFFD03FE7FFE03FE2FFF03FDDFFF0F9
:103DB0003FD8FF20484F54454E4420544845524D6B
:103DC000414C2052554E41574159002048454154DD
:103DD00042454420544845524D414C2052554E4195
:103DE00057415900544845524D414C2052554E417F
:103DF0005741590042454420544845524D414C20BA
:103E000052554E415741590020544845524D414C5E
:103E10002052554E4157415920285052454845415E
:103E20005420484F54454E44290020544845524D93
:103E3000414C2052554E4157415920285052454837
:103E4000454154204845415442454429005052457B
:103E500048454154204552524F520042454420505B
:103E6000524548454154204552524F5200207472E9
:103E7000696767657265642100486561746572737E
:103E8000207377697463686564206F66662E20000E
:103E90003A20004572723A200000FF010201000240
:103EA000FFFFFE0001FE01FF00506C65617365209D
:103EB0007265737461727400544D3A20696E766154
:103EC0006C696420706172616D65746572732C2019
:103ED00063616E6E6F7420656E61626C6500255360
:103EE00020204D3331302050252E32662055252E8E
:103EF00034662056252E32662043252E3266204415
:103F0000252E3466204C25752053257520422575B5
:103F10002045252E32662057252E32662054252E28
:103F200032660A00255320204D3331302049257553
:103F30002052252E32660A00546865726D616C202D
:103F40004D6F64656C2073657474696E67733A00B5
:103F50000000A441333393419A998541333373412F
:103F60009A996141CDCC544133334B419A994141A7
:103F700033333B41CDCC344100003041CDCC2C41DA
:103F80009A99294166662641333323419A99214102
:103F9000452D6D6F746F722063757272656E74203B
:103FA0007363616C696E6720656E61626C65640045
:103FB000746D63323133305F686F6D655F656E7449
:103FC000657228617865735F6D61736B3D3078252C
:103FD000303278290A00746D63323133305F686F94
:103FE0006D655F6578697420746D63323133305F5D
:103FF00073675F686F6D696E675F617865735F6D2A
:1040000061736B3D3078253032780A0072657375C4
:104010006C742076616C75653A2025640A0020690D
:104020003D25326420636E743D2532642076616CD8
:104030003D2532640A00636C7573746572733A00CF
:1040400020693D25326420737465703D2532640A11
:1040500000736F727465642073616D706C65733A80
:10406000003A2000252D31322E313253252D642F78
:1040700036002533642F252D336400203A20002597
:10408000335300252D377300252D31352E3135530F
:10409000252D35640A252D31352E313553252D3505
:1040A000640A0025530A20252D31362E313653253A
:1040B0002D33640A20252D31362E313653252D33EC
:1040C000640025530A20252D31362E313653252DF7
:1040D00033640A20252D31362E313653252D336495
:1040E0000A20252D31362E313653252D33640025F7
:1040F000530A20252D31362E313653252D33640AAF
:1041000020252D31362E313653252D33640A2025B6
:104110002D372E37535820252D3364202059202544
:104120002D33640020257325336481200A000A2082
:104130004952203A2020202020202025332E31668D
:104140005600205057523A20202020202025342E7F
:104150003166560A204245443A202020202020255E
:10416000342E3166560025530A20582025640A2033
:10417000592025640025752E25752E25752E25754B
:104180000020002000466C6173684169722049502C
:1041900020416464723A004D4D552020202020209B
:1041A00020204E2F410025642E25642E25640020FA
:1041B00046573A0046696C2E2073656E736F722005
:1041C000762E3A004E6F7620323520323032330070
:1041D000453344763666756C6C0045494E53795FBD
:1041E00031306100315F37356D6D5F4D4B335300BA
:1041F00020486173683A3000205265706F3A5072FF
:1042000075736133640020332E31332E302D5243C9
:10421000312D36383533004669726D776172653AF3
:1042200000464C4558202D20203234302F353000A8
:10423000464C4558202D202032343000505020204C
:10424000202D20203235342F3130300050502020A6
:10425000202D20203235340048495053202D202075
:104260003232302F3130300048495053202D202039
:104270003232300041425320202D20203235352F5C
:104280003130300041425320202D2020323535007E
:1042900050412020202D20203237352F393000503A
:1042A000412020202D20203237350050564220203A
:1042B0002D20203231352F37350050564220202D09
:1042C00020203231350050432020202D202032374D
:1042D000352F3131300050432020202D202032371F
:1042E000350041534120202D20203236302F3130EF
:1042F000350041534120202D2020323630005045DA
:104300005420202D20203233302F38350050455492
:1043100020202D202032333000504C4120202D20F1
:10432000203231352F363000504C4120202D2020B6
:10433000323135006E6F7A7A6C65202D202032354F
:10434000302F30006661726D2020202D2020323504
:10435000302F383000252D31322E313253252B3875
:104360002E31660045787472756465723A00256373
:104370002531372E32666D6D00583A00593A005A91
:104380003A002563252D31332E313353252B352E1D
:10439000336600312F3900880020746F6F206C6FF6
:1043A0006E6720657874727573696F6E20707265C0
:1043B00076656E7465640020636F6C642065787444
:1043C000727573696F6E2070726576656E74656460
:1043D000004D6F76652061626F7274656400504FA6
:1043E0005745522050414E4943204445544543547B
:1043F00045440055564C4F202D20656E64202564A1
:104400000A0055564C4F5F54494E59202D20656E79
:10441000642025640A00776F726C6420636F6F728A
:1044200064696E617465733A2028252E33662C20EA
:10443000252E33662C20252E3366290A004D323274
:10444000302053256400446F6E6520726561646995
:104450006E6720454550524F4D0A0054656D70659A
:1044600072617475726520526573746F7265640A47
:104470000047312045252D2E336620463237303017
:1044800000544D4320445249564552204F56455200
:1044900054454D5000486F6C642063757272656EB0
:1044A00074207472756E636174656420746F205239
:1044B000756E2063757272656E74002563253364B2
:1044C0002F256481005A25362E32662563005A2036
:1044D00020202D2D2D2000862533642525002D2D0F
:1044E0002D25250025336425250020534400202058
:1044F000200020484F002046524D2000872D2D3AA5
:104500002D2D202000872533756820256325630025
:1045100087253032753A2530327525632563002FA3
:104520002F20616374696F6E3A7061757365640002
:104530002F2F20616374696F6E3A70617573650027
:1045400044756D70206D656D6F72790068656C7073
:104550002E707275736133642E636F6D00666F72B7
:10456000756D2E707275736133642E636F6D00709C
:104570007275736133642E636F6D004D3730310097
:1045800025533A0A2531382E32666D200A25533AD2
:104590000A2531306C646820253032646D20253066
:1045A0003264730025533A0A2531382E32666D2065
:1045B0000A25533A0A2531306C6464202530326470
:1045C0006820253032646D0025362E32666D6D0010
:1045D00025530A25530A25533A0A25533A00253311
:1045E0002E32668100252D31342E3134533A0A257E
:1045F000530A252D31342E3134533A25332E326669
:10460000810A252D31342E3134533A25332E32662A
:10461000810047312058313020593138302046341C
:10462000303030004731205A31302046313330307D
:10463000004D313430205330004D31303420533070
:1046400000473120452D302E30373520463231306D
:1046500030004731204634303030004D3230342085
:104660005331303030004731205A35204637323010
:104670003000473120452D312E3520463231303043
:104680000047393000473120583520453420463125
:10469000303030004731205A302E32204631303011
:1046A00030004731205835352045323520463134E9
:1046B000303000473120592D322046313030300023
:1046C00047312058323430204532352020463232AE
:1046D0003030004731205A302E33204631303030D0
:1046E00000473120583535204538204632303030AB
:1046F0000047312058352045323920463138303096
:104700000047312058353520453239204631303781
:10471000330047393220453000473238004D3130C0
:1047200039004D313930001000C90210012C014010
:1047300001220170011801B0010E01F001040150C5
:1047400002FA00B002F0003003E600D003DC009073
:1047500004D2007005C800A006BE000008B400B076
:1047600009AA00D00BA000600E960060118C00001A
:1047700015820020197800C01D6E00A0226400B0D0
:10478000275A00902C500000314600E0343C0010C5
:10479000383200903A2800603C1E00A03D14008092
:1047A0003E0A00203F00002533750050494E444129
:1047B0002063616C6962726174696F6E2066616901
:1047C0006C65642E20436F6E74696E756520776921
:1047D0007468207072657373696E672074686520F1
:1047E0006B6E6F622E0050494E44412063616C69CC
:1047F00062726174696F6E20646F6E652E20436F04
:104800006E74696E7565207769746820707265735F
:1048100073696E6720746865206B6E6F622E004747
:104820003830004D3435004D3435205A0047373686
:10483000004D3730312050300057697A6172642062
:1048400073746174653A2025640A00457870657256
:10485000696D656E74616C004673656E736F72206E
:10486000446574656374696F6E00302E38300030B3
:104870002E363000302E343000302E323500446970
:104880007361626C65206661726D206D6F64650096
:104890005265736574204D4D55004D4D55004D3496
:1048A00034004739390044697361626C6520666180
:1048B000726D206D6F64653F004D20383400852E89
:1048C0002E00593A202575202D3E202E2E2E0058E0
:1048D0003A202575202D3E202E2E2E0046696C6133
:1048E0006D656E742073656E736F7220626F617296
:1048F00064206368616E67652064657465637465D0
:10490000643A207265766973696F6E25530A004DAB
:10491000656173757265642066696C616D656E743E
:104920002073656E736F72206C6F77206C6576658F
:104930006C3A2025342E3266560A004D6561737537
:104940007265642066696C616D656E742073656E56
:10495000736F722068696768206C6576656C3A20B1
:1049600025342E3266560A002533642F3000253355
:10497000642F300025632041584953205347313D6F
:1049800025640A00486F74656E6400426564005ACD
:1049900000590058002D2D2D2D2D2D2D2D2D2D2D77
:1049A0002D2D2D2D2D2D2D2D2D00435A5058496E76
:1049B00076616C696453657269616C4E7200794E00
:1049C000414639463146244612464731205825642F
:1049D000205925642045252D2E3566004731204677
:1049E00031303830004731205A252D2E336620468D
:1049F0003732303000473120583530205931353585
:104A00000012478146D44F724666465B465246477F
:104A100031205825642045252D2E3366204631301F
:104A20003030000147F146E146D3461247C046B355
:104A300046A24694468546542564004731205A30A4
:104A40002E3420463130303000473120592D33206C
:104A5000463130303000794E22471D471947124702
:104A60004D3834205859004D3130392053323830C8
:104A70000047312058313235205A3230302046310B
:104A8000303030004D333130204120463100473145
:104A900020583132352059313035205A31204638AE
:104AA00030303000496E76616C6964205049442092
:104AB00063616C2E20726573756C74732E204E6F5B
:104AC000742073746F72656420746F204545505272
:104AD0004F4D2E004D3330312050252E3266204967
:104AE000252E32662044252E3266004D3330332089
:104AF00045302053253375004D393134004D39315F
:104B00003500524300444556004245544100414C53
:104B10005048410000002100240027002A002D00F9
:104B20003000330001010000040107010A01000008
:104B30002200250028002B002E0031003400020145
:104B40000000050108010B010000200023002600E1
:104B500029002C002F003200000100000301060193
:104B600009010505050507050808080802020202F3
:104B70000A0A0808040404040101010101010101F9
:104B80000303030303030303040707070C0C0C0CC4
:104B90000C0C0C0C020202020606060606060606AD
:104BA0000B0B0B0B0B0B0B0B07070A0A0A0A0A0A63
:104BB0000505050404040808010210202008081057
:104BC000204010204080020102010804020101027D
:104BD0000408102040808040201008040201800456
:104BE00002018040201008040201080402010102B1
:104BF00004081020408001020408102040801008A2
:104C000004088010204004408010204004800000F0
:104C10000A0B02090C0D0E08070304010000000036
:104C20000000000000000000000000000000000084
:104C30000000000000000000000012111000000041
:104C40000000000000000000000000000000000064
:104C50000000000000000000000000000000000054
:104C600000000000332E31332E302D524331000A24
:104C7000204F726967696E616C2050727573612094
:104C800069330A2020205072757361205265736564
:104C9000617263680A2532302E32305300435A5015
:104CA00058003B530053706F6F6C4A6F696E2069F8
:104CB0007320006164635F696E697400200A200AD2
:104CC000200A2000416C6C204461746100536572BD
:104CD00076696365207072657000536869707069E9
:104CE0006E672070726570005374617469737469C3
:104CF0006373004C616E677561676500455241538F
:104D0000494E4720616C6C206461746100466163A8
:104D1000746F727920524553455400505255534197
:104D20003344465700494E54340003000D00000040
:104D3000210003000200000004004E4F435455417F
:104D400000414C5446414E00286E6F6E652C206425
:104D5000656661756C7420636F6E66696729004EC5
:104D60006F7620323520323032332031363A3038C7
:104D70003A32350020332E31332E302D5243312D2F
:104D80003638353300737461727400534E20757079
:104D900064617465206661696C656400534E2075BA
:104DA00070646174656400435A5058004352415323
:104DB000485F444554454354454458590043524183
:104DC00053485F4445544543544544590043524178
:104DD00053485F444554454354454458004D323987
:104DE00000252D392E39535B00473120582564208A
:104DF00059252D2E32662045252D2E336600544D23
:104E000020657374696D6174696F6E2064696420D4
:104E10006E6F7420636F6E766572676500544D2007
:104E2000697465723A257520763A252E32662065BA
:104E30003A252E33660A0057726974696E672074CA
:104E40006F2066696C653A200046696C6520616C6C
:104E50007265616479206F70656E65640033332913
:104E600042000058419A998D4133335340200A2023
:104E70000A20004D4D55323A004D31303700202088
:104E800030002020310046494E44410050494E44F4
:104E9000410057697A61726420656E6420737461A1
:104EA00074653A2025640A0053706F6F6C4A6F690D
:104EB0006E004669726D77617265004842656420D4
:104EC0006F6E206C6F616400466C6173684169723B
:104ED00000546865726D616C204D6F64656C206371
:104EE000616C2E004572723A5052494E5420464130
:104EF0004E204552524F52004572723A484F544527
:104F00004E442046414E204552524F52002F2F20F2
:104F1000616374696F6E3A726573756D6564002FB5
:104F20002F20616374696F6E3A726573756D6500E9
:104F30002F2F20616374696F6E3A63616E63656CD5
:104F40000041786973206C656E67746820646966D7
:104F5000666572656E63653A252E33660A004D6597
:104F60006173757265642061786973206C656E6722
:104F700074683A252E33660A004F4B004C43442098
:104F8000737461747573206368616E676564005340
:104F90004420636172642072656C656173656400AE
:104FA00046616B652073657269616C206E756D6218
:104FB000657200452D636F6F6C206D6F64650041F5
:104FC0004C5446414E206465742E004D3834004DDB
:104FD000373032004D3833004732382057004D35D6
:104FE00030300045787465726E616C2053504920F2
:104FF000666C6173680A58464C41534820697320B7
:105000006E6F74207265732D0A706F6E64696E67BF
:105010002E204C616E67756167650A7377697463EA
:105020006820756E617661696C61626C652E0058EE
:10503000464C415348206E6F7420726573706F6EDA
:1050400064696E672E00465720637261736820643E
:10505000657465637465642120596F752063616EA2
:1050600020636F6E74696E7565207072696E746905
:105070006E672E20446562756720646174612061EB
:105080007661696C61626C6520666F7220616E6129
:105090006C797369732E20436F6E7461637420732F
:1050A0007570706F727420746F207375626D69749F
:1050B0002064657461696C732E002F2F2061637406
:1050C000696F6E3A64756D705F617661696C61627B
:1050D0006C65004372617368446574656374204550
:1050E0004E41424C454421004372617368446574EB
:1050F0006563742044495341424C454400486F74F1
:10510000656E642066616E20747970653A200020B7
:1051100020506C616E6E657242756666657242798A
:105120007465733A20002046726565204D656D6F89
:1051300072793A2000207C20417574686F723A20A1
:1051400000204C61737420557064617465643A206A
:105150000020536F667477617265205265736574C1
:1051600000205761746368646F67205265736574CB
:10517000002042726F776E206F75742052657365E0
:1051800074002045787465726E616C205265736599
:105190007400506F7765725570006572726F72207F
:1051A00077726974696E6720746F2066696C650038
:1051B000446F6E6520736176696E672066696C6501
:1051C0002E006F6B00526561722073696465205B0D
:1051D000E46D5D0046726F6E7420736964655BE414
:1051E0006D5D00526967687420736964655BE46D86
:1051F0005D004C6566742073696465205BE46D5DD9
:10520000005365742074656D7065726174757265A4
:105210003A0050494E44412063616C696272617486
:10522000696F6E206661696C65640050494E444147
:105230002063616C6962726174696F6E20697320AA
:1052400066696E697368656420616E642061637469
:105250006976652E2049742063616E206265206442
:10526000697361626C656420696E206D656E75207E
:1052700053657474696E67732D3E50494E444120E6
:1052800063616C2E004578747275646572004D6FB1
:105290007665205A004D6F76652059004D6F766512
:1052A0002058004372617368206465746563746993
:1052B0006F6E2063616E0A6265207475726E65643C
:1052C000206F6E206F6E6C7920696E0A4E6F726D62
:1052D000616C206D6F6465005741524E494E473AEC
:1052E0000A437261736820646574656374696F6EE4
:1052F0000A64697361626C656420696E0A5374653F
:10530000616C7468206D6F6465004D6F6465206327
:1053100068616E676520696E2070726F6772657371
:10532000732E2E2E00536865657420252E37730A60
:105330005A206F66667365743A20252B312E3366CA
:105340006D6D0A2563436F6E74696E75650A25631A
:10535000526573657400506C65617365206C6F6194
:10536000642066696C616D656E7420666972737421
:105370002E003E43616E63656C0052756E6E696E01
:10538000672057697A6172642077696C6C20646564
:105390006C6574652063757272656E742063616CF0
:1053A0006962726174696F6E20726573756C747373
:1053B00020616E642073746172742066726F6D2058
:1053C00074686520626567696E6E696E672E20433A
:1053D0006F6E74696E75653F0050726568656174C3
:1053E000696E67206E6F7A7A6C652E20506C6561ED
:1053F000736520776169742E00506C656173652058
:10540000696E736572742066696C616D656E742077
:10541000696E746F20746865206578747275646550
:10542000722C207468656E207072657373207468C6
:1054300065206B6E6F6220746F206C6F61642069F1
:10544000742E00506C6561736520696E73657274AB
:105450002066696C616D656E7420696E746F20746E
:1054600068652066697273742074756265206F6662
:1054700020746865204D4D552C207468656E207031
:105480007265737320746865206B6E6F6220746F31
:10549000206C6F61642069742E00546865207072FE
:1054A000696E7465722077696C6C207374617274B4
:1054B000207072696E74696E672061207A69672D49
:1054C0007A6167206C696E652E20526F7461746515
:1054D00020746865206B6E6F6220756E74696C2035
:1054E000796F7520726561636820746865206F70DC
:1054F00074696D616C206865696768742E20436803
:1055000065636B2074686520706963747572657378
:1055100020696E207468652068616E64626F6F6BCD
:10552000202843616C6962726174696F6E206368E0
:105530006170746572292E0053656C656374207404
:10554000656D7065726174757265207768696368EE
:10555000206D61746368657320796F7572206D6169
:1055600074657269616C2E0053656C6563742061AB
:105570002066696C616D656E7420666F7220746858
:1055800065204669727374204C61796572204361AD
:105590006C6962726174696F6E20616E64207365FC
:1055A0006C65637420697420696E20746865206F6F
:1055B0006E2D73637265656E206D656E752E004E7F
:1055C0006F7720492077696C6C2063616C69627227
:1055D0006174652064697374616E636520626574CB
:1055E0007765656E20746970206F66207468652029
:1055F0006E6F7A7A6C6520616E6420686561746292
:10560000656420737572666163652E00506C656118
:10561000736520636865636B206F75722068616EC7
:1056200064626F6F6B20616E6420666978207468B5
:10563000652070726F626C656D2E205468656E20F7
:10564000726573756D65207468652057697A61723B
:1056500064206279207265626F6F74696E6720746E
:105660006865207072696E7465722E00416C6C20E2
:10567000697320646F6E652E2048617070792070A8
:1056800072696E74696E672100596F752063616E6F
:1056900020616C7761797320726573756D65207414
:1056A00068652057697A6172642066726F6D204365
:1056B000616C6962726174696F6E202D3E2057695A
:1056C0007A6172642E00496620796F752068617670
:1056D00065206164646974696F6E616C20737465C0
:1056E000656C207368656574732C2063616C6962F6
:1056F0007261746520746865697220707265736583
:10570000747320696E2053657474696E6773202DFD
:10571000204857205365747570202D20537465659B
:105720006C207368656574732E00506C65617365D9
:1057300020636C65616E20686561746265642061D8
:105740006E64207468656E2070726573732074686F
:1057500065206B6E6F622E00446F20796F75207725
:10576000616E7420746F20726570656174206C6165
:105770007374207374657020746F20726561646A3D
:105780007573742064697374616E636520626574F7
:105790007765656E206E6F7A7A6C6520616E642025
:1057A000686561746265643F0053656C656374206D
:1057B0006E6F7A7A6C6520707265686561742074AA
:1057C000656D70657261747572652077686963686C
:1057D000206D61746368657320796F7572206D61E7
:1057E00074657269616C2E0049732066696C616D25
:1057F000656E74206C6F616465643F005468657207
:105800006D616C206D6F64656C2063616C2E20741B
:10581000616B657320617070726F782E2031322059
:105820006D696E732E205365650A70727573612EF3
:10583000696F2F746D2D63616C004E6F7720492066
:1058400077696C6C2070726568656174206E6F7A20
:105850007A6C6520666F7220504C412E004920778B
:10586000696C6C2072756E207A2063616C6962725B
:105870006174696F6E206E6F772E004E6F772072A5
:10588000656D6F766520746865207465737420702B
:1058900072696E742066726F6D20737465656C201A
:1058A00073686565742E00506C6561736520726560
:1058B0006D6F7665207368697070696E67206865C2
:1058C0006C706572732066697273742E004920775C
:1058D000696C6C2072756E2078797A2063616C69CE
:1058E00062726174696F6E206E6F772E204974202A
:1058F00077696C6C2074616B6520757020746F2003
:105900003234206D696E732E0046697273742C20D8
:10591000492077696C6C2072756E207468652073FD
:10592000656C667465737420746F20636865636B5F
:10593000206D6F737420636F6D6D6F6E2061737374
:10594000656D626C792070726F626C656D732E008C
:1059500048692C204920616D20796F7572204F7243
:105960006967696E616C20507275736120693320BC
:105970007072696E7465722E20576F756C64207931
:105980006F75206C696B65206D6520746F2067757D
:1059900069646520796F75207468726F7567682017
:1059A0007468652073657475702070726F636573B9
:1059B000733F0048692C204920616D20796F757212
:1059C000204F726967696E616C2050727573612037
:1059D0006933207072696E7465722E204920776970
:1059E0006C6C20677569646520796F7520746872C6
:1059F0006F75676820612073686F727420736574B7
:105A000075702070726F636573732C20696E2077D8
:105A10006869636820746865205A2D61786973200D
:105A200077696C6C2062652063616C696272617475
:105A300065642E205468656E2C20796F7520776917
:105A40006C6C20626520726561647920746F2070CF
:105A500072696E742E00452D636F727265637400F7
:105A60005A2D636F727265637400592D636F727281
:105A700065637400582D636F7272656374005061C2
:105A800075736500436F6E742E0046532041637436
:105A9000696F6E00462E206175746F6C6F616400D3
:105AA000462E2072756E6F7574004D4D55204D6FEA
:105AB0006465004375747465720046616E2073708E
:105AC000656564004265640046616E7320636865C5
:105AD000636B004D6F64656C00537472696374008E
